{
  "contractName": "WeRgame",
  "abi": [
    {
      "inputs": [
        {
          "internalType": "address",
          "name": "usdcToken",
          "type": "address"
        }
      ],
      "stateMutability": "nonpayable",
      "type": "constructor"
    },
    {
      "inputs": [],
      "name": "ECDSAInvalidSignature",
      "type": "error"
    },
    {
      "inputs": [
        {
          "internalType": "uint256",
          "name": "length",
          "type": "uint256"
        }
      ],
      "name": "ECDSAInvalidSignatureLength",
      "type": "error"
    },
    {
      "inputs": [
        {
          "internalType": "bytes32",
          "name": "s",
          "type": "bytes32"
        }
      ],
      "name": "ECDSAInvalidSignatureS",
      "type": "error"
    },
    {
      "inputs": [],
      "name": "ReentrancyGuardReentrantCall",
      "type": "error"
    },
    {
      "inputs": [
        {
          "internalType": "address",
          "name": "token",
          "type": "address"
        }
      ],
      "name": "SafeERC20FailedOperation",
      "type": "error"
    },
    {
      "anonymous": false,
      "inputs": [
        {
          "indexed": true,
          "internalType": "uint256",
          "name": "marketId",
          "type": "uint256"
        },
        {
          "indexed": true,
          "internalType": "address",
          "name": "user",
          "type": "address"
        },
        {
          "indexed": false,
          "internalType": "uint256",
          "name": "amount",
          "type": "uint256"
        }
      ],
      "name": "BoostClaimed",
      "type": "event"
    },
    {
      "anonymous": false,
      "inputs": [
        {
          "indexed": true,
          "internalType": "uint256",
          "name": "marketId",
          "type": "uint256"
        },
        {
          "indexed": true,
          "internalType": "address",
          "name": "user",
          "type": "address"
        },
        {
          "indexed": false,
          "internalType": "uint256",
          "name": "amount",
          "type": "uint256"
        }
      ],
      "name": "BoostStakeAdded",
      "type": "event"
    },
    {
      "anonymous": false,
      "inputs": [
        {
          "indexed": true,
          "internalType": "uint256",
          "name": "marketId",
          "type": "uint256"
        },
        {
          "indexed": true,
          "internalType": "address",
          "name": "user",
          "type": "address"
        },
        {
          "indexed": false,
          "internalType": "uint256",
          "name": "amount",
          "type": "uint256"
        }
      ],
      "name": "BoostStakeWithdrawn",
      "type": "event"
    },
    {
      "anonymous": false,
      "inputs": [
        {
          "indexed": true,
          "internalType": "uint256",
          "name": "marketId",
          "type": "uint256"
        },
        {
          "indexed": true,
          "internalType": "address",
          "name": "user",
          "type": "address"
        },
        {
          "indexed": false,
          "internalType": "string",
          "name": "outcome",
          "type": "string"
        },
        {
          "indexed": false,
          "internalType": "uint256",
          "name": "amount",
          "type": "uint256"
        }
      ],
      "name": "BoostStaked",
      "type": "event"
    },
    {
      "anonymous": false,
      "inputs": [
        {
          "indexed": false,
          "internalType": "uint256",
          "name": "amount",
          "type": "uint256"
        }
      ],
      "name": "ClaimPredictionWinsPoolFunded",
      "type": "event"
    },
    {
      "anonymous": false,
      "inputs": [
        {
          "indexed": true,
          "internalType": "address",
          "name": "to",
          "type": "address"
        },
        {
          "indexed": false,
          "internalType": "uint256",
          "name": "amount",
          "type": "uint256"
        }
      ],
      "name": "ClaimPredictionWinsPoolWithdrawn",
      "type": "event"
    },
    {
      "anonymous": false,
      "inputs": [
        {
          "indexed": true,
          "internalType": "address",
          "name": "to",
          "type": "address"
        },
        {
          "indexed": false,
          "internalType": "uint256",
          "name": "amount",
          "type": "uint256"
        }
      ],
      "name": "ContractMigratedForUpgrade",
      "type": "event"
    },
    {
      "anonymous": false,
      "inputs": [
        {
          "indexed": false,
          "internalType": "uint256",
          "name": "platformFee",
          "type": "uint256"
        },
        {
          "indexed": false,
          "internalType": "uint256",
          "name": "boostJackpotFee",
          "type": "uint256"
        },
        {
          "indexed": false,
          "internalType": "uint256",
          "name": "marketPlatformFee",
          "type": "uint256"
        },
        {
          "indexed": false,
          "internalType": "uint256",
          "name": "freeJackpotFee",
          "type": "uint256"
        }
      ],
      "name": "FeesUpdated",
      "type": "event"
    },
    {
      "anonymous": false,
      "inputs": [
        {
          "indexed": true,
          "internalType": "address",
          "name": "to",
          "type": "address"
        },
        {
          "indexed": false,
          "internalType": "uint256",
          "name": "amount",
          "type": "uint256"
        }
      ],
      "name": "FundsTransferred",
      "type": "event"
    },
    {
      "anonymous": false,
      "inputs": [
        {
          "indexed": false,
          "internalType": "uint256",
          "name": "amount",
          "type": "uint256"
        }
      ],
      "name": "JackpotFunded",
      "type": "event"
    },
    {
      "anonymous": false,
      "inputs": [
        {
          "indexed": true,
          "internalType": "address",
          "name": "to",
          "type": "address"
        },
        {
          "indexed": false,
          "internalType": "uint256",
          "name": "amount",
          "type": "uint256"
        }
      ],
      "name": "JackpotPoolWithdrawn",
      "type": "event"
    },
    {
      "anonymous": false,
      "inputs": [
        {
          "indexed": true,
          "internalType": "address",
          "name": "user",
          "type": "address"
        },
        {
          "indexed": false,
          "internalType": "uint256",
          "name": "amount",
          "type": "uint256"
        }
      ],
      "name": "JackpotWithdrawn",
      "type": "event"
    },
    {
      "anonymous": false,
      "inputs": [
        {
          "indexed": true,
          "internalType": "uint256",
          "name": "marketId",
          "type": "uint256"
        },
        {
          "indexed": false,
          "internalType": "string",
          "name": "option",
          "type": "string"
        },
        {
          "indexed": false,
          "internalType": "uint256",
          "name": "amount",
          "type": "uint256"
        }
      ],
      "name": "LiquidityAdded",
      "type": "event"
    },
    {
      "anonymous": false,
      "inputs": [
        {
          "indexed": true,
          "internalType": "uint256",
          "name": "marketId",
          "type": "uint256"
        },
        {
          "indexed": true,
          "internalType": "address",
          "name": "user",
          "type": "address"
        },
        {
          "indexed": false,
          "internalType": "string",
          "name": "outcome",
          "type": "string"
        },
        {
          "indexed": false,
          "internalType": "uint256",
          "name": "ethAmount",
          "type": "uint256"
        },
        {
          "indexed": false,
          "internalType": "uint256",
          "name": "shares",
          "type": "uint256"
        }
      ],
      "name": "MarketBought",
      "type": "event"
    },
    {
      "anonymous": false,
      "inputs": [
        {
          "indexed": true,
          "internalType": "uint256",
          "name": "marketId",
          "type": "uint256"
        },
        {
          "indexed": true,
          "internalType": "address",
          "name": "user",
          "type": "address"
        },
        {
          "indexed": false,
          "internalType": "string",
          "name": "outcome",
          "type": "string"
        },
        {
          "indexed": false,
          "internalType": "uint256",
          "name": "amount",
          "type": "uint256"
        }
      ],
      "name": "MarketClaimed",
      "type": "event"
    },
    {
      "anonymous": false,
      "inputs": [
        {
          "indexed": true,
          "internalType": "uint256",
          "name": "marketId",
          "type": "uint256"
        },
        {
          "indexed": false,
          "internalType": "bool",
          "name": "isPoll",
          "type": "bool"
        },
        {
          "indexed": false,
          "internalType": "string[]",
          "name": "options",
          "type": "string[]"
        }
      ],
      "name": "MarketCreated",
      "type": "event"
    },
    {
      "anonymous": false,
      "inputs": [
        {
          "indexed": true,
          "internalType": "uint256",
          "name": "marketId",
          "type": "uint256"
        },
        {
          "indexed": false,
          "internalType": "string",
          "name": "winningOption",
          "type": "string"
        }
      ],
      "name": "MarketResolved",
      "type": "event"
    },
    {
      "anonymous": false,
      "inputs": [
        {
          "indexed": true,
          "internalType": "uint256",
          "name": "marketId",
          "type": "uint256"
        },
        {
          "indexed": true,
          "internalType": "address",
          "name": "user",
          "type": "address"
        },
        {
          "indexed": false,
          "internalType": "string",
          "name": "outcome",
          "type": "string"
        },
        {
          "indexed": false,
          "internalType": "uint256",
          "name": "shares",
          "type": "uint256"
        },
        {
          "indexed": false,
          "internalType": "uint256",
          "name": "ethAmount",
          "type": "uint256"
        }
      ],
      "name": "MarketSold",
      "type": "event"
    },
    {
      "anonymous": false,
      "inputs": [
        {
          "indexed": true,
          "internalType": "uint256",
          "name": "marketId",
          "type": "uint256"
        },
        {
          "indexed": false,
          "internalType": "enum WeRgame.MarketStatus",
          "name": "status",
          "type": "uint8"
        }
      ],
      "name": "MarketStatusUpdated",
      "type": "event"
    },
    {
      "anonymous": false,
      "inputs": [
        {
          "indexed": true,
          "internalType": "uint256",
          "name": "marketId",
          "type": "uint256"
        },
        {
          "indexed": false,
          "internalType": "uint256",
          "name": "totalAmount",
          "type": "uint256"
        }
      ],
      "name": "OrderbookLiquidityBatchAdded",
      "type": "event"
    },
    {
      "anonymous": false,
      "inputs": [
        {
          "indexed": true,
          "internalType": "uint256",
          "name": "marketId",
          "type": "uint256"
        },
        {
          "indexed": true,
          "internalType": "address",
          "name": "user",
          "type": "address"
        },
        {
          "indexed": false,
          "internalType": "string",
          "name": "positionKey",
          "type": "string"
        },
        {
          "indexed": false,
          "internalType": "uint256",
          "name": "amount",
          "type": "uint256"
        }
      ],
      "name": "OrderbookPositionClaimed",
      "type": "event"
    },
    {
      "anonymous": false,
      "inputs": [
        {
          "indexed": true,
          "internalType": "uint256",
          "name": "marketId",
          "type": "uint256"
        },
        {
          "indexed": false,
          "internalType": "uint256",
          "name": "legs",
          "type": "uint256"
        },
        {
          "indexed": false,
          "internalType": "uint256",
          "name": "feeToClaimPool",
          "type": "uint256"
        },
        {
          "indexed": false,
          "internalType": "uint256",
          "name": "feeToJackpotPool",
          "type": "uint256"
        }
      ],
      "name": "OrderbookSettlementsApplied",
      "type": "event"
    },
    {
      "anonymous": false,
      "inputs": [
        {
          "indexed": true,
          "internalType": "uint256",
          "name": "marketId",
          "type": "uint256"
        },
        {
          "indexed": true,
          "internalType": "address",
          "name": "user",
          "type": "address"
        },
        {
          "indexed": false,
          "internalType": "uint256",
          "name": "amount",
          "type": "uint256"
        }
      ],
      "name": "PredictionWinsClaimed",
      "type": "event"
    },
    {
      "anonymous": false,
      "inputs": [
        {
          "indexed": true,
          "internalType": "address",
          "name": "user",
          "type": "address"
        },
        {
          "indexed": false,
          "internalType": "uint256",
          "name": "amount",
          "type": "uint256"
        }
      ],
      "name": "TradingVaultDeposited",
      "type": "event"
    },
    {
      "anonymous": false,
      "inputs": [
        {
          "indexed": true,
          "internalType": "address",
          "name": "user",
          "type": "address"
        },
        {
          "indexed": false,
          "internalType": "uint256",
          "name": "amount",
          "type": "uint256"
        }
      ],
      "name": "TradingVaultWithdrawn",
      "type": "event"
    },
    {
      "inputs": [
        {
          "internalType": "address",
          "name": "",
          "type": "address"
        }
      ],
      "name": "admins",
      "outputs": [
        {
          "internalType": "bool",
          "name": "",
          "type": "bool"
        }
      ],
      "stateMutability": "view",
      "type": "function"
    },
    {
      "inputs": [],
      "name": "boostJackpotFee",
      "outputs": [
        {
          "internalType": "uint256",
          "name": "",
          "type": "uint256"
        }
      ],
      "stateMutability": "view",
      "type": "function"
    },
    {
      "inputs": [
        {
          "internalType": "uint256",
          "name": "",
          "type": "uint256"
        },
        {
          "internalType": "address",
          "name": "",
          "type": "address"
        },
        {
          "internalType": "string",
          "name": "",
          "type": "string"
        }
      ],
      "name": "boostPredictions",
      "outputs": [
        {
          "internalType": "address",
          "name": "user",
          "type": "address"
        },
        {
          "internalType": "uint256",
          "name": "marketId",
          "type": "uint256"
        },
        {
          "internalType": "string",
          "name": "outcome",
          "type": "string"
        },
        {
          "internalType": "uint256",
          "name": "stakeAmount",
          "type": "uint256"
        },
        {
          "internalType": "uint256",
          "name": "totalStake",
          "type": "uint256"
        },
        {
          "internalType": "bool",
          "name": "claimed",
          "type": "bool"
        }
      ],
      "stateMutability": "view",
      "type": "function"
    },
    {
      "inputs": [],
      "name": "claimAuthSigner",
      "outputs": [
        {
          "internalType": "address",
          "name": "",
          "type": "address"
        }
      ],
      "stateMutability": "view",
      "type": "function"
    },
    {
      "inputs": [],
      "name": "claimPredictionWinsPool",
      "outputs": [
        {
          "internalType": "uint256",
          "name": "",
          "type": "uint256"
        }
      ],
      "stateMutability": "view",
      "type": "function"
    },
    {
      "inputs": [
        {
          "internalType": "uint256",
          "name": "",
          "type": "uint256"
        },
        {
          "internalType": "address",
          "name": "",
          "type": "address"
        }
      ],
      "name": "claimableBalances",
      "outputs": [
        {
          "internalType": "uint256",
          "name": "",
          "type": "uint256"
        }
      ],
      "stateMutability": "view",
      "type": "function"
    },
    {
      "inputs": [
        {
          "internalType": "uint256",
          "name": "",
          "type": "uint256"
        },
        {
          "internalType": "address",
          "name": "",
          "type": "address"
        }
      ],
      "name": "claimableBoost",
      "outputs": [
        {
          "internalType": "uint256",
          "name": "",
          "type": "uint256"
        }
      ],
      "stateMutability": "view",
      "type": "function"
    },
    {
      "inputs": [
        {
          "internalType": "uint256",
          "name": "",
          "type": "uint256"
        },
        {
          "internalType": "address",
          "name": "",
          "type": "address"
        }
      ],
      "name": "claimableMarket",
      "outputs": [
        {
          "internalType": "uint256",
          "name": "",
          "type": "uint256"
        }
      ],
      "stateMutability": "view",
      "type": "function"
    },
    {
      "inputs": [],
      "name": "deployer",
      "outputs": [
        {
          "internalType": "address",
          "name": "",
          "type": "address"
        }
      ],
      "stateMutability": "view",
      "type": "function"
    },
    {
      "inputs": [],
      "name": "freeJackpotFee",
      "outputs": [
        {
          "internalType": "uint256",
          "name": "",
          "type": "uint256"
        }
      ],
      "stateMutability": "view",
      "type": "function"
    },
    {
      "inputs": [
        {
          "internalType": "address",
          "name": "",
          "type": "address"
        }
      ],
      "name": "jackpotBalances",
      "outputs": [
        {
          "internalType": "uint256",
          "name": "",
          "type": "uint256"
        }
      ],
      "stateMutability": "view",
      "type": "function"
    },
    {
      "inputs": [],
      "name": "jackpotPool",
      "outputs": [
        {
          "internalType": "uint256",
          "name": "",
          "type": "uint256"
        }
      ],
      "stateMutability": "view",
      "type": "function"
    },
    {
      "inputs": [],
      "name": "marketPlatformFee",
      "outputs": [
        {
          "internalType": "uint256",
          "name": "",
          "type": "uint256"
        }
      ],
      "stateMutability": "view",
      "type": "function"
    },
    {
      "inputs": [
        {
          "internalType": "uint256",
          "name": "",
          "type": "uint256"
        },
        {
          "internalType": "address",
          "name": "",
          "type": "address"
        },
        {
          "internalType": "string",
          "name": "",
          "type": "string"
        }
      ],
      "name": "marketPositions",
      "outputs": [
        {
          "internalType": "address",
          "name": "user",
          "type": "address"
        },
        {
          "internalType": "string",
          "name": "outcome",
          "type": "string"
        },
        {
          "internalType": "uint256",
          "name": "shares",
          "type": "uint256"
        },
        {
          "internalType": "uint256",
          "name": "totalInvested",
          "type": "uint256"
        }
      ],
      "stateMutability": "view",
      "type": "function"
    },
    {
      "inputs": [
        {
          "internalType": "uint256",
          "name": "",
          "type": "uint256"
        }
      ],
      "name": "markets",
      "outputs": [
        {
          "internalType": "uint256",
          "name": "marketId",
          "type": "uint256"
        },
        {
          "internalType": "bool",
          "name": "isPoll",
          "type": "bool"
        },
        {
          "internalType": "enum WeRgame.MarketStatus",
          "name": "status",
          "type": "uint8"
        },
        {
          "internalType": "uint256",
          "name": "totalLiquidity",
          "type": "uint256"
        },
        {
          "internalType": "bool",
          "name": "resolved",
          "type": "bool"
        },
        {
          "internalType": "string",
          "name": "winningOption",
          "type": "string"
        },
        {
          "internalType": "uint256",
          "name": "createdAt",
          "type": "uint256"
        },
        {
          "internalType": "uint256",
          "name": "resolvedAt",
          "type": "uint256"
        }
      ],
      "stateMutability": "view",
      "type": "function"
    },
    {
      "inputs": [],
      "name": "nextMarketId",
      "outputs": [
        {
          "internalType": "uint256",
          "name": "",
          "type": "uint256"
        }
      ],
      "stateMutability": "view",
      "type": "function"
    },
    {
      "inputs": [
        {
          "internalType": "uint256",
          "name": "",
          "type": "uint256"
        },
        {
          "internalType": "string",
          "name": "",
          "type": "string"
        }
      ],
      "name": "orderbookLiquidityNo",
      "outputs": [
        {
          "internalType": "uint256",
          "name": "",
          "type": "uint256"
        }
      ],
      "stateMutability": "view",
      "type": "function"
    },
    {
      "inputs": [
        {
          "internalType": "uint256",
          "name": "",
          "type": "uint256"
        },
        {
          "internalType": "string",
          "name": "",
          "type": "string"
        }
      ],
      "name": "orderbookLiquidityYes",
      "outputs": [
        {
          "internalType": "uint256",
          "name": "",
          "type": "uint256"
        }
      ],
      "stateMutability": "view",
      "type": "function"
    },
    {
      "inputs": [
        {
          "internalType": "uint256",
          "name": "",
          "type": "uint256"
        },
        {
          "internalType": "string",
          "name": "",
          "type": "string"
        }
      ],
      "name": "orderbookSharesNo",
      "outputs": [
        {
          "internalType": "uint256",
          "name": "",
          "type": "uint256"
        }
      ],
      "stateMutability": "view",
      "type": "function"
    },
    {
      "inputs": [
        {
          "internalType": "uint256",
          "name": "",
          "type": "uint256"
        },
        {
          "internalType": "string",
          "name": "",
          "type": "string"
        }
      ],
      "name": "orderbookSharesYes",
      "outputs": [
        {
          "internalType": "uint256",
          "name": "",
          "type": "uint256"
        }
      ],
      "stateMutability": "view",
      "type": "function"
    },
    {
      "inputs": [],
      "name": "platformFee",
      "outputs": [
        {
          "internalType": "uint256",
          "name": "",
          "type": "uint256"
        }
      ],
      "stateMutability": "view",
      "type": "function"
    },
    {
      "inputs": [],
      "name": "superAdmin",
      "outputs": [
        {
          "internalType": "address",
          "name": "",
          "type": "address"
        }
      ],
      "stateMutability": "view",
      "type": "function"
    },
    {
      "inputs": [],
      "name": "totalTradingVaultLiabilities",
      "outputs": [
        {
          "internalType": "uint256",
          "name": "",
          "type": "uint256"
        }
      ],
      "stateMutability": "view",
      "type": "function"
    },
    {
      "inputs": [
        {
          "internalType": "address",
          "name": "",
          "type": "address"
        }
      ],
      "name": "tradingVaultBalances",
      "outputs": [
        {
          "internalType": "uint256",
          "name": "",
          "type": "uint256"
        }
      ],
      "stateMutability": "view",
      "type": "function"
    },
    {
      "inputs": [],
      "name": "usdc",
      "outputs": [
        {
          "internalType": "contract IERC20",
          "name": "",
          "type": "address"
        }
      ],
      "stateMutability": "view",
      "type": "function"
    },
    {
      "inputs": [
        {
          "internalType": "bytes32",
          "name": "",
          "type": "bytes32"
        }
      ],
      "name": "usedAuthPredictionClaims",
      "outputs": [
        {
          "internalType": "bool",
          "name": "",
          "type": "bool"
        }
      ],
      "stateMutability": "view",
      "type": "function"
    },
    {
      "inputs": [
        {
          "internalType": "bytes32",
          "name": "",
          "type": "bytes32"
        }
      ],
      "name": "usedJackpotWithdrawNonces",
      "outputs": [
        {
          "internalType": "bool",
          "name": "",
          "type": "bool"
        }
      ],
      "stateMutability": "view",
      "type": "function"
    },
    {
      "inputs": [
        {
          "internalType": "bytes32",
          "name": "",
          "type": "bytes32"
        }
      ],
      "name": "usedOrderbookClaimKeys",
      "outputs": [
        {
          "internalType": "bool",
          "name": "",
          "type": "bool"
        }
      ],
      "stateMutability": "view",
      "type": "function"
    },
    {
      "inputs": [
        {
          "internalType": "bytes32",
          "name": "",
          "type": "bytes32"
        }
      ],
      "name": "usedTradingVaultWithdrawNonces",
      "outputs": [
        {
          "internalType": "bool",
          "name": "",
          "type": "bool"
        }
      ],
      "stateMutability": "view",
      "type": "function"
    },
    {
      "inputs": [
        {
          "internalType": "bool",
          "name": "isPoll",
          "type": "bool"
        },
        {
          "internalType": "string[]",
          "name": "options",
          "type": "string[]"
        }
      ],
      "name": "createMarket",
      "outputs": [
        {
          "internalType": "uint256",
          "name": "",
          "type": "uint256"
        }
      ],
      "stateMutability": "nonpayable",
      "type": "function"
    },
    {
      "inputs": [
        {
          "internalType": "uint256",
          "name": "marketId",
          "type": "uint256"
        },
        {
          "internalType": "enum WeRgame.MarketStatus",
          "name": "status",
          "type": "uint8"
        }
      ],
      "name": "updateMarketStatus",
      "outputs": [],
      "stateMutability": "nonpayable",
      "type": "function"
    },
    {
      "inputs": [
        {
          "internalType": "uint256",
          "name": "marketId",
          "type": "uint256"
        },
        {
          "internalType": "string",
          "name": "option",
          "type": "string"
        },
        {
          "internalType": "uint256",
          "name": "amount",
          "type": "uint256"
        }
      ],
      "name": "addLiquidity",
      "outputs": [],
      "stateMutability": "nonpayable",
      "type": "function"
    },
    {
      "inputs": [
        {
          "internalType": "uint256",
          "name": "marketId",
          "type": "uint256"
        },
        {
          "internalType": "string",
          "name": "winningOption",
          "type": "string"
        }
      ],
      "name": "resolveMarket",
      "outputs": [],
      "stateMutability": "nonpayable",
      "type": "function"
    },
    {
      "inputs": [
        {
          "internalType": "address",
          "name": "signer",
          "type": "address"
        }
      ],
      "name": "setClaimAuthSigner",
      "outputs": [],
      "stateMutability": "nonpayable",
      "type": "function"
    },
    {
      "inputs": [
        {
          "internalType": "uint256",
          "name": "_platformFee",
          "type": "uint256"
        },
        {
          "internalType": "uint256",
          "name": "_boostJackpotFee",
          "type": "uint256"
        },
        {
          "internalType": "uint256",
          "name": "_marketPlatformFee",
          "type": "uint256"
        },
        {
          "internalType": "uint256",
          "name": "_freeJackpotFee",
          "type": "uint256"
        }
      ],
      "name": "setFees",
      "outputs": [],
      "stateMutability": "nonpayable",
      "type": "function"
    },
    {
      "inputs": [],
      "name": "getFees",
      "outputs": [
        {
          "internalType": "uint256",
          "name": "_platformFee",
          "type": "uint256"
        },
        {
          "internalType": "uint256",
          "name": "_boostJackpotFee",
          "type": "uint256"
        },
        {
          "internalType": "uint256",
          "name": "_marketPlatformFee",
          "type": "uint256"
        },
        {
          "internalType": "uint256",
          "name": "_freeJackpotFee",
          "type": "uint256"
        }
      ],
      "stateMutability": "view",
      "type": "function"
    },
    {
      "inputs": [
        {
          "internalType": "uint256",
          "name": "marketId",
          "type": "uint256"
        }
      ],
      "name": "getMarketOptions",
      "outputs": [
        {
          "internalType": "string[]",
          "name": "",
          "type": "string[]"
        }
      ],
      "stateMutability": "view",
      "type": "function"
    },
    {
      "inputs": [
        {
          "internalType": "uint256",
          "name": "marketId",
          "type": "uint256"
        },
        {
          "internalType": "string",
          "name": "outcome",
          "type": "string"
        },
        {
          "internalType": "uint256",
          "name": "amount",
          "type": "uint256"
        }
      ],
      "name": "stakeBoost",
      "outputs": [],
      "stateMutability": "nonpayable",
      "type": "function"
    },
    {
      "inputs": [
        {
          "internalType": "uint256",
          "name": "marketId",
          "type": "uint256"
        },
        {
          "internalType": "string",
          "name": "outcome",
          "type": "string"
        },
        {
          "internalType": "uint256",
          "name": "amount",
          "type": "uint256"
        }
      ],
      "name": "addBoostStake",
      "outputs": [],
      "stateMutability": "nonpayable",
      "type": "function"
    },
    {
      "inputs": [
        {
          "internalType": "uint256",
          "name": "marketId",
          "type": "uint256"
        },
        {
          "internalType": "string",
          "name": "outcome",
          "type": "string"
        },
        {
          "internalType": "uint256",
          "name": "amount",
          "type": "uint256"
        }
      ],
      "name": "withdrawBoostStake",
      "outputs": [],
      "stateMutability": "nonpayable",
      "type": "function"
    },
    {
      "inputs": [
        {
          "internalType": "uint256",
          "name": "marketId",
          "type": "uint256"
        },
        {
          "internalType": "address",
          "name": "user",
          "type": "address"
        },
        {
          "internalType": "uint256",
          "name": "amount",
          "type": "uint256"
        }
      ],
      "name": "setClaimableBalance",
      "outputs": [],
      "stateMutability": "nonpayable",
      "type": "function"
    },
    {
      "inputs": [
        {
          "internalType": "uint256",
          "name": "marketId",
          "type": "uint256"
        },
        {
          "internalType": "address",
          "name": "user",
          "type": "address"
        },
        {
          "internalType": "uint256",
          "name": "amount",
          "type": "uint256"
        }
      ],
      "name": "setClaimableBoost",
      "outputs": [],
      "stateMutability": "nonpayable",
      "type": "function"
    },
    {
      "inputs": [
        {
          "internalType": "uint256",
          "name": "marketId",
          "type": "uint256"
        },
        {
          "internalType": "address",
          "name": "user",
          "type": "address"
        },
        {
          "internalType": "uint256",
          "name": "amount",
          "type": "uint256"
        }
      ],
      "name": "setClaimableMarket",
      "outputs": [],
      "stateMutability": "nonpayable",
      "type": "function"
    },
    {
      "inputs": [
        {
          "internalType": "uint256",
          "name": "marketId",
          "type": "uint256"
        },
        {
          "internalType": "bool",
          "name": "isBoost",
          "type": "bool"
        },
        {
          "internalType": "uint256",
          "name": "amount",
          "type": "uint256"
        },
        {
          "internalType": "bytes32",
          "name": "predictionId",
          "type": "bytes32"
        },
        {
          "internalType": "uint256",
          "name": "deadline",
          "type": "uint256"
        },
        {
          "internalType": "bytes",
          "name": "signature",
          "type": "bytes"
        }
      ],
      "name": "claimPredictionWinsWithAuth",
      "outputs": [],
      "stateMutability": "nonpayable",
      "type": "function"
    },
    {
      "inputs": [
        {
          "internalType": "uint256",
          "name": "amount",
          "type": "uint256"
        },
        {
          "internalType": "bytes32",
          "name": "nonce",
          "type": "bytes32"
        },
        {
          "internalType": "uint256",
          "name": "deadline",
          "type": "uint256"
        },
        {
          "internalType": "bytes",
          "name": "signature",
          "type": "bytes"
        }
      ],
      "name": "withdrawJackpotWithAuth",
      "outputs": [],
      "stateMutability": "nonpayable",
      "type": "function"
    },
    {
      "inputs": [
        {
          "internalType": "uint256",
          "name": "amount",
          "type": "uint256"
        }
      ],
      "name": "fundClaimPredictionWinsPool",
      "outputs": [],
      "stateMutability": "nonpayable",
      "type": "function"
    },
    {
      "inputs": [
        {
          "internalType": "address payable",
          "name": "to",
          "type": "address"
        },
        {
          "internalType": "uint256",
          "name": "amount",
          "type": "uint256"
        }
      ],
      "name": "withdrawFromClaimPredictionWinsPool",
      "outputs": [],
      "stateMutability": "nonpayable",
      "type": "function"
    },
    {
      "inputs": [
        {
          "internalType": "uint256",
          "name": "marketId",
          "type": "uint256"
        },
        {
          "internalType": "string",
          "name": "outcome",
          "type": "string"
        },
        {
          "internalType": "uint256",
          "name": "amount",
          "type": "uint256"
        }
      ],
      "name": "buyMarketShares",
      "outputs": [],
      "stateMutability": "nonpayable",
      "type": "function"
    },
    {
      "inputs": [
        {
          "internalType": "uint256",
          "name": "marketId",
          "type": "uint256"
        },
        {
          "internalType": "string",
          "name": "outcome",
          "type": "string"
        },
        {
          "internalType": "uint256",
          "name": "shares",
          "type": "uint256"
        }
      ],
      "name": "sellMarketShares",
      "outputs": [],
      "stateMutability": "nonpayable",
      "type": "function"
    },
    {
      "inputs": [
        {
          "internalType": "uint256",
          "name": "marketId",
          "type": "uint256"
        },
        {
          "internalType": "string",
          "name": "outcome",
          "type": "string"
        }
      ],
      "name": "claimMarket",
      "outputs": [],
      "stateMutability": "nonpayable",
      "type": "function"
    },
    {
      "inputs": [
        {
          "internalType": "uint256",
          "name": "marketId",
          "type": "uint256"
        },
        {
          "internalType": "string",
          "name": "outcome",
          "type": "string"
        }
      ],
      "name": "getPrice",
      "outputs": [
        {
          "internalType": "uint256",
          "name": "",
          "type": "uint256"
        }
      ],
      "stateMutability": "view",
      "type": "function"
    },
    {
      "inputs": [
        {
          "internalType": "uint256",
          "name": "marketId",
          "type": "uint256"
        },
        {
          "internalType": "address",
          "name": "user",
          "type": "address"
        },
        {
          "internalType": "string",
          "name": "outcome",
          "type": "string"
        }
      ],
      "name": "getUserPosition",
      "outputs": [
        {
          "internalType": "uint256",
          "name": "shares",
          "type": "uint256"
        },
        {
          "internalType": "uint256",
          "name": "totalInvested",
          "type": "uint256"
        }
      ],
      "stateMutability": "view",
      "type": "function"
    },
    {
      "inputs": [
        {
          "internalType": "uint256",
          "name": "marketId",
          "type": "uint256"
        },
        {
          "internalType": "address",
          "name": "user",
          "type": "address"
        },
        {
          "internalType": "string",
          "name": "outcome",
          "type": "string"
        }
      ],
      "name": "getBoostPrediction",
      "outputs": [
        {
          "internalType": "address",
          "name": "_user",
          "type": "address"
        },
        {
          "internalType": "uint256",
          "name": "_totalStake",
          "type": "uint256"
        },
        {
          "internalType": "bool",
          "name": "_claimed",
          "type": "bool"
        }
      ],
      "stateMutability": "view",
      "type": "function"
    },
    {
      "inputs": [
        {
          "internalType": "uint256",
          "name": "amount",
          "type": "uint256"
        }
      ],
      "name": "fundJackpotPool",
      "outputs": [],
      "stateMutability": "nonpayable",
      "type": "function"
    },
    {
      "inputs": [
        {
          "internalType": "address",
          "name": "user",
          "type": "address"
        },
        {
          "internalType": "uint256",
          "name": "amount",
          "type": "uint256"
        }
      ],
      "name": "setJackpotBalance",
      "outputs": [],
      "stateMutability": "nonpayable",
      "type": "function"
    },
    {
      "inputs": [
        {
          "internalType": "address[]",
          "name": "users",
          "type": "address[]"
        },
        {
          "internalType": "uint256[]",
          "name": "amounts",
          "type": "uint256[]"
        }
      ],
      "name": "batchSetJackpotBalances",
      "outputs": [],
      "stateMutability": "nonpayable",
      "type": "function"
    },
    {
      "inputs": [
        {
          "internalType": "address payable",
          "name": "to",
          "type": "address"
        },
        {
          "internalType": "uint256",
          "name": "amount",
          "type": "uint256"
        }
      ],
      "name": "withdrawFromJackpotPool",
      "outputs": [],
      "stateMutability": "nonpayable",
      "type": "function"
    },
    {
      "inputs": [],
      "name": "getContractBalance",
      "outputs": [
        {
          "internalType": "uint256",
          "name": "",
          "type": "uint256"
        }
      ],
      "stateMutability": "view",
      "type": "function"
    },
    {
      "inputs": [
        {
          "internalType": "address payable",
          "name": "to",
          "type": "address"
        },
        {
          "internalType": "uint256",
          "name": "amount",
          "type": "uint256"
        }
      ],
      "name": "transferFunds",
      "outputs": [],
      "stateMutability": "nonpayable",
      "type": "function"
    },
    {
      "inputs": [
        {
          "internalType": "address payable",
          "name": "to",
          "type": "address"
        }
      ],
      "name": "migrateAllFundsForUpgrade",
      "outputs": [],
      "stateMutability": "nonpayable",
      "type": "function"
    },
    {
      "inputs": [
        {
          "internalType": "address",
          "name": "_superAdmin",
          "type": "address"
        }
      ],
      "name": "setSuperAdmin",
      "outputs": [],
      "stateMutability": "nonpayable",
      "type": "function"
    },
    {
      "inputs": [
        {
          "internalType": "address",
          "name": "admin",
          "type": "address"
        },
        {
          "internalType": "bool",
          "name": "enabled",
          "type": "bool"
        }
      ],
      "name": "setAdmin",
      "outputs": [],
      "stateMutability": "nonpayable",
      "type": "function"
    },
    {
      "inputs": [
        {
          "internalType": "address",
          "name": "user",
          "type": "address"
        }
      ],
      "name": "getJackpotBalance",
      "outputs": [
        {
          "internalType": "uint256",
          "name": "",
          "type": "uint256"
        }
      ],
      "stateMutability": "view",
      "type": "function"
    },
    {
      "inputs": [
        {
          "internalType": "uint256",
          "name": "marketId",
          "type": "uint256"
        },
        {
          "internalType": "address",
          "name": "user",
          "type": "address"
        }
      ],
      "name": "getClaimableBalance",
      "outputs": [
        {
          "internalType": "uint256",
          "name": "",
          "type": "uint256"
        }
      ],
      "stateMutability": "view",
      "type": "function"
    },
    {
      "inputs": [
        {
          "internalType": "uint256",
          "name": "amount",
          "type": "uint256"
        }
      ],
      "name": "depositTradingVault",
      "outputs": [],
      "stateMutability": "nonpayable",
      "type": "function"
    },
    {
      "inputs": [
        {
          "internalType": "uint256",
          "name": "amount",
          "type": "uint256"
        },
        {
          "internalType": "bytes32",
          "name": "nonce",
          "type": "bytes32"
        },
        {
          "internalType": "uint256",
          "name": "deadline",
          "type": "uint256"
        },
        {
          "internalType": "bytes",
          "name": "signature",
          "type": "bytes"
        }
      ],
      "name": "withdrawTradingVaultWithAuth",
      "outputs": [],
      "stateMutability": "nonpayable",
      "type": "function"
    },
    {
      "inputs": [
        {
          "internalType": "uint256",
          "name": "marketId",
          "type": "uint256"
        },
        {
          "components": [
            {
              "internalType": "string",
              "name": "option",
              "type": "string"
            },
            {
              "internalType": "uint256",
              "name": "yesAmount",
              "type": "uint256"
            },
            {
              "internalType": "uint256",
              "name": "noAmount",
              "type": "uint256"
            }
          ],
          "internalType": "struct WeRgame.OrderbookLiquidityRow[]",
          "name": "rows",
          "type": "tuple[]"
        }
      ],
      "name": "batchAddOrderbookLiquidity",
      "outputs": [],
      "stateMutability": "nonpayable",
      "type": "function"
    },
    {
      "inputs": [
        {
          "internalType": "uint256",
          "name": "marketId",
          "type": "uint256"
        },
        {
          "components": [
            {
              "internalType": "address",
              "name": "user",
              "type": "address"
            },
            {
              "internalType": "string",
              "name": "positionKey",
              "type": "string"
            },
            {
              "internalType": "int256",
              "name": "vaultDelta",
              "type": "int256"
            },
            {
              "internalType": "int256",
              "name": "sharesDelta",
              "type": "int256"
            },
            {
              "internalType": "int256",
              "name": "investedDelta",
              "type": "int256"
            }
          ],
          "internalType": "struct WeRgame.OrderbookSettlementLeg[]",
          "name": "legs",
          "type": "tuple[]"
        },
        {
          "internalType": "uint256",
          "name": "feeToClaimPool",
          "type": "uint256"
        },
        {
          "internalType": "uint256",
          "name": "feeToJackpotPool",
          "type": "uint256"
        }
      ],
      "name": "applyOrderbookSettlements",
      "outputs": [],
      "stateMutability": "nonpayable",
      "type": "function"
    },
    {
      "inputs": [
        {
          "internalType": "uint256",
          "name": "marketId",
          "type": "uint256"
        },
        {
          "components": [
            {
              "internalType": "address",
              "name": "user",
              "type": "address"
            },
            {
              "internalType": "string",
              "name": "positionKey",
              "type": "string"
            },
            {
              "internalType": "int256",
              "name": "vaultDelta",
              "type": "int256"
            },
            {
              "internalType": "int256",
              "name": "sharesDelta",
              "type": "int256"
            },
            {
              "internalType": "int256",
              "name": "investedDelta",
              "type": "int256"
            }
          ],
          "internalType": "struct WeRgame.OrderbookSettlementLeg[]",
          "name": "legs",
          "type": "tuple[]"
        },
        {
          "internalType": "uint256",
          "name": "collateralToClaimPool",
          "type": "uint256"
        }
      ],
      "name": "finalizeResolvedMarketSettlements",
      "outputs": [],
      "stateMutability": "nonpayable",
      "type": "function"
    },
    {
      "inputs": [],
      "name": "getTreasurySnapshot",
      "outputs": [
        {
          "internalType": "uint256",
          "name": "usdcBalance",
          "type": "uint256"
        },
        {
          "internalType": "uint256",
          "name": "claimPoolBalance",
          "type": "uint256"
        },
        {
          "internalType": "uint256",
          "name": "jackpotPoolBalance",
          "type": "uint256"
        },
        {
          "internalType": "uint256",
          "name": "tradingVaultLiabilities",
          "type": "uint256"
        },
        {
          "internalType": "uint256",
          "name": "maxRoutineTransfer",
          "type": "uint256"
        }
      ],
      "stateMutability": "view",
      "type": "function"
    },
    {
      "inputs": [
        {
          "internalType": "uint256",
          "name": "marketId",
          "type": "uint256"
        },
        {
          "internalType": "uint256",
          "name": "amount",
          "type": "uint256"
        },
        {
          "internalType": "string",
          "name": "positionKey",
          "type": "string"
        },
        {
          "internalType": "bytes32",
          "name": "predictionId",
          "type": "bytes32"
        },
        {
          "internalType": "uint256",
          "name": "deadline",
          "type": "uint256"
        },
        {
          "internalType": "bytes",
          "name": "signature",
          "type": "bytes"
        }
      ],
      "name": "claimOrderbookPositionWithAuth",
      "outputs": [],
      "stateMutability": "nonpayable",
      "type": "function"
    }
  ],
  "bytecode": "0x60a034620001b857601f620052ae38819003918201601f19168301916001600160401b03831184841017620001bc57808492602094604052833981010312620001b857516001600160a01b03811690819003620001b85760017f9b779b17422d0df92223018b32b4d1fa46e071723d6817e2486d003becc55f005580156200017e5760018060a01b03199033825f5416175f5533826001541617600155335f52600260205260405f20600160ff198254161790556080526103e86003556101f480600455806005556006556001600e55339060115416176011556040516150dd9081620001d1823960805181818161050e01528181610706015281816109a101528181610e8c0152818161120b01528181611300015281816117370152818161186d01528181611a0c01528181611ba901528181611c6b0152818161246e015281816127d00152818161299701528181612b12015281816131a40152818161326601528181613358015281816135d50152818161386b0152613c600152f35b60405162461bcd60e51b815260206004820152601260248201527124b73b30b634b2102aa9a221903a37b5b2b760711b6044820152606490fd5b5f80fd5b634e487b7160e01b5f52604160045260245ffdfe608060409080825260049081361015610016575f80fd5b5f3560e01c908163019d669414613d48575080630325bbe814613d2a578063033a7e0614613bd457806305d45d5f14613b385780630cd83c6e14613b0b57806312497adb14613aed5780631570005214613a9357806318bb1f2914613a085780631d38461c146139a857806326232a2e1461398a578063277c02aa1461392857806329575f6a146139005780632b96b6ae146136405780632e82ff04146135a65780632fd09b6f14613579578063307e2e611461355b5780633577392e146134fb578063392a9094146132ad5780633a08ff3b146131f85780633d165aaa146131d35780633e413bee146131905780633ed724081461304e578063406ef2ef14613030578063429b62e514612ff457806348d0eca214612f305780634b0bddd214612ec85780635776558214612ea35780636523acf414612e63578063663370c114612e465780636742775014612c205780636822d82314612313578063698d2d7614612be95780636a4d9a0c14612b895780636f9fb98a14612ae45780636fcba377146129d15780637a73103d14612937578063814fb79014612912578063990dc9db146127665780639ef69e8c146127395780639f1d024614612492578063a2ddbca5146123cd578063ad21a6691461234a578063b00e039514612313578063b05b32ae146122f5578063b1283e7714612246578063b3e60a26146121d3578063b3eb525314612193578063b5f3d19c14611f07578063b8f8f2ca14611bd9578063bd0237b114611b00578063c01744e91461193a578063c08e7c711461183f578063c1730ee1146117a2578063c20499ff14611625578063c75bb72414611463578063d437441e14611445578063d5f394881461141e578063d81168b01461129d578063db831127146110ad578063db8d55f11461106e578063dcc8dee91461100e578063dd75444814610fe6578063df1aa90514610c6a578063e44da3af14610c3d578063e87ece1314610b3d578063e981012314610b10578063ecf7137d14610ad9578063f87dd74b14610a99578063f95d530b1461087c578063fb5bdd49146106315763fbf91a141461032d575f80fd5b3461062d5761033b36613e84565b825f94929452602060078152610355865f205415156141c2565b61035d614b3a565b835f5260078152855f209061038f60ff600184015460081c1661037f81614169565b8015908115610619575b50614252565b845f5260098152865f20335f5281526103aa875f2087613f9e565b80549091906103c3906001600160a01b03163314614ab8565b60028201926103d58585541015614af8565b60058101805490919080156105ec576103f1600383018b613f9e565b54612710908181029181830414901517156105d9576104166127109261041c926142b9565b88614292565b049660038201918861042e848d613f9e565b54106105965781019387610442868d613f9e565b54106105545750508899936104a761053e96946104ea946104876003957f2136d4ee254f7d800aae52b9b653ccd229ae15988bf2d1371a31db50132a69e99d9e613f9e565b6104928c82546142d7565b905561049f8b82546142d7565b90558c613f9e565b6104b28882546142d7565b90556104bf8785546142d7565b80945501916104e48354916104de886104d8858c614292565b92614330565b906142b9565b906142d7565b9055610504846010546104ff82821015614563565b6142d7565b60105561053284337f0000000000000000000000000000000000000000000000000000000000000000614c55565b519283923397846149fc565b0390a360015f8051602061508883398151915255005b8b5162461bcd60e51b815291820152601a60248201527f496e73756666696369656e74206d61726b657420736861726573000000000000604482015260649150fd5b8b5162461bcd60e51b8152808301869052601d60248201527f496e73756666696369656e74206d61726b6574206c69717569646974790000006044820152606490fd5b601189634e487b7160e01b5f525260245ffd5b50600281015480156106065761041c612710918204610416565b601288634e487b7160e01b5f525260245ffd5b6001915061062681614169565b145f610389565b5f80fd5b50903461062d5761064136613e84565b92825f939293526020926007845261065d825f205415156141c2565b610665614b3a565b610670851515614206565b825f5260078452815f20946001966106a660ff8989015460081c1661069481614169565b898115918215610868575b5050614252565b875f60025f99018054995b8a8110610818575b50508798506107c96107c16107e595897f9af5caefb8cea3d0910b8a9636232b856d7fadb93249d5b0bfbeab7c38f792169a9b98966107d4966106fe6104ff976149be565b61072a8430337f0000000000000000000000000000000000000000000000000000000000000000614b69565b610757612710948561073e60035483614292565b0498899661074e60065484614292565b04998a926142d7565b9a8b936107658515156142e4565b5f52600881528c5f2090335f52528d6107808d5f208b613f9e565b80549092906001600160a01b03166108005782546001600160a01b031916331783558201556107b2896002830161486b565b82600382015501555b87614330565b601054614330565b601055600f54614330565b600f55835193808552840190613edb565b948201528033940390a35f8051602061508883398151915255005b505090915001610811898254614330565b90556107bb565b61083461083b6108288385614856565b508a5192838092613ffc565b0382613e00565b8a815191012087518b890120146108535783016106b1565b509798508897508190506107c96107c16106b9565b90915061087481614169565b14895f61069f565b503461062d5761088b36614114565b929091825f52602093600785526108a6835f205415156141c2565b6108ae614b3a565b835f526007855260076108dc845f206108cd60ff600683015416614521565b61083486518094819301613ffc565b85815191012081518683012003610a6157835f5260098552825f20335f528552600261090a845f2083613f9e565b8054610920906001600160a01b03163314614ab8565b015415610a2a57835f52600a8552825f20335f528552825f20549182156109f05750906109d37fb293892389f4a468a51fa597d7cd2627d3fa920ae52f4843616707f64a8041769392610977836010541015614563565b855f52600a8752835f20335f5287525f84812055610997836010546142d7565b6010556109c583337f0000000000000000000000000000000000000000000000000000000000000000614c55565b835193808552840190613edb565b948201528033940390a360015f8051602061508883398151915255005b835162461bcd60e51b815290810186905260146024820152734e6f20636c61696d61626c652062616c616e636560601b6044820152606490fd5b5083606492519162461bcd60e51b835282015260126024820152714e6f2073686172657320746f20636c61696d60701b6044820152fd5b5083606492519162461bcd60e51b835282015260136024820152724e6f742077696e6e696e67206f7574636f6d6560681b6044820152fd5b50903461062d578060031936011261062d57602091610ab6613d89565b90355f52600a8352815f209060018060a01b03165f528252805f20549051908152f35b823461062d57602036600319011261062d576020906001600160a01b03610afe613d9f565b165f5260148252805f20549051908152f35b50903461062d57602036600319011261062d57602091355f526017825260ff815f20541690519015158152f35b503461062d578160031936011261062d576001600160401b03813581811161062d57610b6c90369084016140e4565b93909160243590811161062d57610b8690369085016140e4565b5f54919590946001600160a01b0392831633148015610c26575b610ba9906143b7565b858203610bf157505f5b818110610bbc57005b80610bca600192888a614aa8565b3584610bdf610bda84878b614aa8565b6146b4565b165f52600d602052855f205501610bb3565b606490602085519162461bcd60e51b8352820152600f60248201526e098cadccee8d040dad2e6dac2e8c6d608b1b6044820152fd5b50335f90815260026020528490205460ff16610ba0565b50903461062d57602036600319011261062d57602091355f526016825260ff815f20541690519015158152f35b503461062d5760c036600319011261062d57803590610c87614143565b9260443593606435926084359060a4356001600160401b03811161062d5784938891610cb690369085016140b7565b9790895f5260209860078a52875f20541515610cd1906141c2565b610cd9614b3a565b8a8a600160a01b60019003988995866011541698891515610cf9906143f0565b82421115610d0690614433565b610d11811515614469565b8c51948486013360601b9687825284603482015260348152610d3281613de5565b5190209d8e5f5260128652805f205460ff1615610d4e906144a3565b51948501958652603485015288151560f81b60548501526055840152607583015260958201524660b58201523060601b60d582015260c98152610d9081613db5565b51902091610d9d92614bf2565b16801515600793610db59282610fdc575b50506144e1565b875f52818752610de7865f20610dd160ff600683015416614521565b610de088518095819301613ffc565b0383613e00565b15610f2857610e0890875f5260088752855f20335f528752855f2090613f9e565b9133908354161480610f1c575b80610f0d575b15610eca5750600501805460ff191660011790557fa3097d366dbda72a300109ce4eb4df25c8b2709e0b539bcfaf91102fff0e81749291905b610e62866010541015614563565b5f5260128252805f20600160ff19825416179055610e82856010546142d7565b601055610eb085337f0000000000000000000000000000000000000000000000000000000000000000614c55565b519384523393a360015f8051602061508883398151915255005b835162461bcd60e51b8152908101859052601760248201527f4e6f74206120626f6f7374207061727469636970616e740000000000000000006044820152606490fd5b5060ff60058301541615610e1b565b50808201541515610e15565b610f4490875f5260098752855f20335f528752855f2090613f9e565b9133908354161480610fcf575b15610f8c5750905f6003838260027fa3097d366dbda72a300109ce4eb4df25c8b2709e0b539bcfaf91102fff0e817498979601550155610e54565b835162461bcd60e51b8152908101859052601860248201527f4e6f742061206d61726b6574207061727469636970616e7400000000000000006044820152606490fd5b5060028201541515610f51565b1490505f80610dae565b823461062d575f36600319011261062d5760115490516001600160a01b039091168152602090f35b823461062d5761101d3661408d565b5f549093926001600160a01b0391821633148015611057575b61103f906143b7565b5f52600a602052825f2091165f526020525f20555f80f35b50335f90815260026020528490205460ff16611036565b503461062d575f36600319011261062d5760035490546005546006549351928352602083019190915260408201526060810191909152608090f35b0390f35b503461062d576110bc36614187565b6110cb96939695929495614b3a565b6011546001600160a01b03908116929091906110e88415156143f0565b6110f487421115614433565b6110ff881515614469565b885f526020966013885261111960ff885f20541615614a1e565b8651888101913360601b83528a60348301528b605483015260748201524660948201523060601b60b482015260a8815260e081018181106001600160401b0382111761128a578852519020611187949392611175929091614bf2565b16908115159182610fdc5750506144e1565b335f52600d835261119d84835f205410156147ff565b83600f541061124957507fd40b323ed8b019a73e488040e2e991ed6218cbfa9561673125581fc37780918792935f5260138252805f20600160ff19825416179055335f52600d8252805f206111f38582546142d7565b905561120184600f546142d7565b600f5561122f84337f0000000000000000000000000000000000000000000000000000000000000000614c55565b519283523392a260015f8051602061508883398151915255005b82606492519162461bcd60e51b8352820152601960248201527f496e73756666696369656e74206a61636b706f7420706f6f6c000000000000006044820152fd5b604188634e487b7160e01b5f525260245ffd5b503461062d5760208060031936011261062d5760246112ba613d9f565b6001546001600160a01b03918291821633148015611412575b6112dc90614654565b6112e4614b3a565b16936112f1851515614773565b6112fd308614156147b3565b837f0000000000000000000000000000000000000000000000000000000000000000928751948580926370a0823160e01b8252308683015286165afa928315611408575f936113d9575b5082156113a157509361138982857ff4dce203c8f4eb3095854b1c66cbc121ab60692c57b36989ec635f685dfc53aa96975f6010555f600f555f601555614c55565b51908152a260015f8051602061508883398151915255005b855162461bcd60e51b815290810184905260126024820152714e6f205553444320746f206d69677261746560701b6044820152606490fd5b9092508381813d8311611401575b6113f18183613e00565b8101031261062d5751915f611347565b503d6113e7565b86513d5f823e3d90fd5b505f54821633146112d3565b823461062d575f36600319011261062d575f5490516001600160a01b039091168152602090f35b823461062d575f36600319011261062d576020906006549051908152f35b503461062d5761147236614114565b91909260018060a01b035f54163314801561160e575b611491906143b7565b835f52602091600783526114a9825f205415156141c2565b845f5260078352815f2090600180830191825491600360ff8460081c166114cf81614169565b146115d8575f905f600287018054915b828110611596575b505050501561155a575061ff00191661030017905560068101805460ff191660011790557f2ec1f84b4079525f1ab2216f53a16f520efec75c91c517667151e55bbea7b9ec93929161155591611540856007830161486b565b60094291015551928284938452830190613edb565b0390a2005b845162461bcd60e51b8152908101869052601660248201527524b73b30b634b2103bb4b73734b7339037b83a34b7b760511b6044820152606490fd5b6108346115b26115a68385614856565b508c5192838092613ffc565b8051908c01208c518d8d0120146115ca5783016114df565b50505090505f8080806114e7565b855162461bcd60e51b8152808301889052601060248201526f105b1c9958591e481c995cdbdb1d995960821b6044820152606490fd5b50335f90815260026020528190205460ff16611488565b823461062d576116f2906116e061163b36614187565b61164b9794979591929395614b3a565b6011546001600160a01b03908116949093906116688615156143f0565b61167481421115614433565b61167f8a1515614469565b875f52601660205261169760ff8a5f20541615614a1e565b885160208101913360601b83528b603483015289605483015260748201524660948201523060601b60b4820152600160c882015260c881526116d881613db5565b519020614bf2565b169081151591826117985750506144e1565b335f52601460205261170983835f20541015614a57565b5f526016602052805f20600160ff1982541617905561173061172a83614a98565b33614cb4565b61175b82337f0000000000000000000000000000000000000000000000000000000000000000614c55565b519081527fc806a53d83b50a9163d7117c35333b998202cee5dffd5dea16a45f725f26c26e60203392a260015f8051602061508883398151915255005b1490508580610dae565b50903461062d576117db916117b636613f5c565b9094915f526008602052835f2060018060a01b038096165f52602052835f2090613f9e565b928354169160018401549361182982516117fc816108348160028701613ffc565b60c060ff6005600386015497860154950154169480519889988952602089015287015260c0860190613edb565b9260608501526080840152151560a08301520390f35b50903461062d575f36600319011261062d5780516370a0823160e01b815230928101929092526020826024817f00000000000000000000000000000000000000000000000000000000000000006001600160a01b03165afa908115611931575f916118fc575b60a0925060105490600f54601554916118c7836118c28487614330565b614330565b808611156118f4576118d990866142d7565b935b8151958652602086015284015260608301526080820152f35b505f936118db565b90506020823d602011611929575b8161191760209383613e00565b8101031261062d5760a09151906118a5565b3d915061190a565b513d5f823e3d90fd5b823461062d5761194936613e84565b9260018060a01b035f541633148015611ae9575b611966906143b7565b825f52602093600760205261197f825f205415156141c2565b61198a811515614206565b835f526007602052815f2060016119bd60ff600184015460081c166119ae81614169565b8015908115611ad55750614252565b5f965f90600284018054925b838110611a76575b5050505050600590611a047faa83f946898046e98d04323d1f949f879cd43a774cb0981f1025ce3caa9afc8c9697614617565b611a308330337f0000000000000000000000000000000000000000000000000000000000000000614b69565b611a3d6003820186613f9e565b611a48848254614330565b905501611a56828254614330565b9055611a6b8251938385948552840190613edb565b9060208301520390a2005b610834611a866108288385614856565b8381519101208951848b012014611a9e5784016119c9565b50929850839250611a0491507faa83f946898046e98d04323d1f949f879cd43a774cb0981f1025ce3caa9afc8c905060058a6119d1565b60019150611ae281614169565b1489610389565b50335f90815260026020528190205460ff1661195d565b823461062d578060031936011261062d577f9b4720e539e7a1f0094cfce31d8cc4e3f6a63afdbe9350a2636b0edd879c83256020611b3c613d9f565b600154602435916001600160a01b0391821633148015611bcd575b611b6090614654565b611b68614b3a565b1693611b75851515614773565b611b81308614156147b3565b611b8c821515614206565b611b9f826010546104ff82821015614972565b60105561138982867f0000000000000000000000000000000000000000000000000000000000000000614c55565b505f5482163314611b57565b503461062d57611be836613e84565b825f9392935260209460078652611c03815f205415156141c2565b611c0b614b3a565b611c16821515614206565b825f5260078652805f2091600196611c3a60ff8986015460081c1661069481614169565b5f965f9460028101958a8754915b828110611ecf575b505050611c63611cbd95969798996149be565b611c8f8430337f0000000000000000000000000000000000000000000000000000000000000000614b69565b6127109687611ca060055487614292565b049586956104ff8a611cb460065484614292565b049889926142d7565b978815611e8c5760058301805490928115611e685750611ce0600385018d613f9e565b5482810290808204841490151715611e555790611cfc916142b9565b905b808a02908a820403611e425794611d7a7f65b9cf5504284839513abe58c29b419750bf6617216734ca4c0aa61a06c717849a9895611de0956107c1958f9c99611d4e611df69c97611d59926142b9565b9d6003840190613f9e565b611d648d8254614330565b9055611d718c8254614330565b9055018d613f9e565b611d858a8254614330565b90558a5f5260098152855f2090335f52526003611da4865f208d613f9e565b80548d8f6001600160a01b03831615611e1f575b50505060028101611dca8b8254614330565b905501611dd8888254614330565b905586614330565b60105580611e0a575b50519283923397846149fc565b0390a35f8051602061508883398151915255005b611e1690600f54614330565b600f555f611de9565b6001600160a01b031990921633178355611e3a91830161486b565b5f8d8f611db8565b601185634e487b7160e01b5f525260245ffd5b601186634e487b7160e01b5f525260245ffd5b9050548015611e7957810490611cfe565b601285634e487b7160e01b5f525260245ffd5b875162461bcd60e51b8152808501869052601b60248201527f416d6f756e7420746f6f20736d616c6c206166746572206665657300000000006044820152606490fd5b610834611edf610828838c614856565b8681519101208b51878d012014611ef857018b90611c48565b509950611c6390508a5f611c50565b503461062d57608090608060031936011261062d578035926024356001600160401b03811161062d57611f3d90369084016140e4565b5f549094606435946044359390926001600160a01b03929083163314801561217c575b611f69906143b7565b885f5260206007602052611f81875f205415156141c2565b611f89614b3a565b895f526007602052600192611fad60ff60018a5f20015460081c1661037f81614169565b5f945f5b8b8d8b82841061208f578d83918d8d611fd48e611fce8685614330565b90614700565b6120555750917ff16f569f7fb6cac6c3cb740184f9b94cf82d3b473d2f1156c0c3628bedd4982b939183606094612041575b8261202d575b81519384526020840152820152a260015f8051602061508883398151915255005b61203983600f54614330565b600f5561200c565b61204d81601054614330565b601055612006565b606490602084519162461bcd60e51b83528201526014602482015273536574746c656d656e7420696d62616c616e636560601b6044820152fd5b918587926120e16120ce9c87966120ab610bda8f9a8888614692565b9e8f6120ba8c821615156146c8565b826120c68b8a8a614692565b013590614cb4565b6120d9888787614692565b013590614700565b9b8560608c816120f2848989614692565b013515801590612166575b612110575b505050505050505001611fb1565b612148836121326121589a612129612152978c8c614692565b908101906145e5565b99909461214083838c614692565b013598614692565b0135953691613e21565b91614dff565b848d8f86905f85818c612102565b5080612173848989614692565b013515156120fd565b50335f90815260026020528690205460ff16611f60565b50903461062d578060031936011261062d576020916121b0613d89565b90355f52600b8352815f209060018060a01b03165f528252805f20549051908152f35b503461062d5760609161222760ff60056121ec36613f5c565b909491805f526007602052612205875f205415156141c2565b5f526008602052855f2060018060a01b038096165f52602052855f2090613f9e565b9283541694830154920154169082519384526020840152151590820152f35b50903461062d57602036600319011261062d5760ff91355f526007602052805f208054916122e6600183015493858560081c1690600585015487600687015416908551936122a28561229b8160078c01613ffc565b0386613e00565b600960088901549801549680519a8b9a610100968c5216151560208b01526122c982614169565b8901526060880152151560808701528060a0870152850190613edb565b9160c084015260e08301520390f35b823461062d575f36600319011261062d57602090600f549051908152f35b823461062d57602036600319011261062d576020906001600160a01b03612338613d9f565b165f52600d8252805f20549051908152f35b503461062d57602036600319011261062d57612364613d9f565b5f546001600160a01b03919061237d908316331461433d565b1691821561239957601180546001600160a01b03191684179055005b906020606492519162461bcd60e51b8352820152600e60248201526d24b73b30b634b21039b4b3b732b960911b6044820152fd5b823461062d578060031936011261062d577f05388187d2d8839bf46fead5ad128385c82076ad81b57a1278382a2f77ca24446020612409613d9f565b5f54602435916001600160a01b0391612425908316331461433d565b61242d614b3a565b169361243a851515614773565b612446308614156147b3565b612451821515614206565b61246482600f546104ff82821015614972565b600f5561138982867f0000000000000000000000000000000000000000000000000000000000000000614c55565b50903461062d578060031936011261062d578135908115159182810361062d576024928335916001600160401b039586841161062d573660238501121561062d5783810135936124e185614152565b946124ee87519687613e00565b808652602098888a88019260051b8401019236841161062d57898101925b84841061271357505050505060018060a01b035f5416331480156126fd575b612534906143b7565b60028451106126bb57600e54955f1987146126a957918693919492600191829160018701600e55865f5260078b52885f20918783556125836001840191829060ff801983541691151516179055565b61ff001981541690554260088301555f97600283019181600385019401945b6125ef575b8c898c817f41671df7de79859ef92d2dc3d0936d3890eea9d4dda0c64e7d375277f2e5e7a18c8c6125e685519283928352868984015286830190613f00565b0390a251908152f35b919395978799919395975182101561269f575061260c818a614842565b5184546801000000000000000081101561268d57808961262f9201875586614856565b61267c57915f61266b8961265f848f6126508f9e9d9c9b9a99988f9961486b565b856126658d61265f8585614842565b51613f9e565b55614842565b5501989694939291908b98966125a2565b835f86634e487b7160e01b8252525ffd5b83604186634e487b7160e01b5f52525ffd5b97958997506125a7565b634e487b7160e01b5f90815260118352fd5b845162461bcd60e51b8152908101879052601c818701527f4d7573742068617665206174206c656173742032206f7074696f6e73000000006044820152606490fd5b50335f908152600288528590205460ff1661252b565b833583811161062d578c9161272e83928e3691870101613e66565b81520193019261250c565b823461062d5760209061275e61274e36614114565b905f5260198452825f2090613f9e565b549051908152f35b503461062d578160031936011261062d5761277f613d9f565b60243560018060a01b038092816001541633148015612906575b6127a290614654565b6127aa614b3a565b16926127b7841515614773565b6127c3308514156147b3565b6127ce821515614206565b7f000000000000000000000000000000000000000000000000000000000000000090855180946370a0823160e01b82523083830152816024602097889387165afa9081156128fc575f916128cf575b5061284a8461283d612834601054600f5490614330565b60155490614330565b926104ff828210156147ff565b1061287e57509361138982857f8c9a4f13b67cb64d7c6aa1ae0c9bf07694af521a28b93e7060020810ab4bc59f9697614c55565b855162461bcd60e51b8152908101849052602560248201527f43616e6e6f742077697468647261772075736572206f7220706f6f6c20726573604482015264657276657360d81b6064820152608490fd5b90508481813d83116128f5575b6128e68183613e00565b8101031261062d57515f61281d565b503d6128dc565b87513d5f823e3d90fd5b505f5482163314612799565b823461062d5760209061275e61292736614114565b905f52601a8452825f2090613f9e565b503461062d57602036600319011261062d577f2076cd8bd7c147f4b7bb2b5e2dd0db46fb74246bc4c4e3ded824202bfff5ca5791602091359061298460018060a01b035f5416331461433d565b61298f821515614206565b6129bb8230337f0000000000000000000000000000000000000000000000000000000000000000614b69565b6129c782600f54614330565b600f5551908152a1005b503461062d57608036600319011261062d5780356024359160443560643591612a0460018060a01b035f5416331461433d565b612710808511159081612ad9575b81612ace575b81612ac3575b5015612a8057907f16e6f67290546b8dd0e587f4b7f67d4f61932ae17ffd8c60d3509dbc05c175fe9585612a7b94938660035555816005558260065551948594859094939260609260808301968352602083015260408201520152565b0390a1005b606490602087519162461bcd60e51b8352820152601760248201527f466565732063616e6e6f742065786365656420313030250000000000000000006044820152fd5b90508311155f612a1e565b808411159150612a18565b808711159150612a12565b50903461062d575f36600319011261062d5780516370a0823160e01b815230928101929092526020826024817f00000000000000000000000000000000000000000000000000000000000000006001600160a01b03165afa908115611931575f91612b54575b6020925051908152f35b90506020823d602011612b81575b81612b6f60209383613e00565b8101031261062d576020915190612b4a565b3d9150612b62565b823461062d57612b983661408d565b5f549093926001600160a01b0391821633148015612bd2575b612bba906143b7565b5f52600c602052825f2091165f526020525f20555f80f35b50335f90815260026020528490205460ff16612bb1565b823461062d57602090612c19612bfe36614114565b90805f5260078552612c14845f205415156141c2565b61471b565b9051908152f35b503461062d57606091606060031936011261062d578135926024356001600160401b03811161062d57612c5690369085016140e4565b5f5490946044359390926001600160a01b0392831633148015612e2f575b91889391612c8287946143b7565b845f526020926007602052612c9b895f205415156141c2565b612ca3614b3a565b855f526007602052612cbd60ff60068b5f20015416614521565b5f935f5b8a8c808310612d76578991898c612cd8828c614700565b612d3e5750915f606092847ff16f569f7fb6cac6c3cb740184f9b94cf82d3b473d2f1156c0c3628bedd4982b95612d2a5781519384526020840152820152a260015f8051602061508883398151915255005b612d3681601054614330565b60105561200c565b606490602084519162461bcd60e51b8352820152601260248201527146696e616c697a6520696d62616c616e636560701b6044820152fd5b90919294600194969850612dc38198612d93610bda878686614692565b94612da18a871615156146c8565b612db881612db0898888614692565b013587614cb4565b6120d9878686614692565b9989612dd0868585614692565b013515801590612e18575b612df2575b5050505001918a959391889593612cc1565b612e0f936121528b6080612148896121328d612129838c8c614692565b5f8b868e612de0565b506080612e26868585614692565b01351515612ddb565b50335f90815260026020528690205460ff16612c74565b50903461062d575f36600319011261062d57602091549051908152f35b50903461062d578060031936011261062d57602091612e80613d89565b90355f52600c8352815f209060018060a01b03165f528252805f20549051908152f35b823461062d5760209061275e612eb836614114565b905f52601b8452825f2090613f9e565b823461062d578060031936011261062d57612f2e90612ee5613d9f565b90612eee614143565b5f5490926001600160a01b0391612f08908316331461433d565b16612f14811515614379565b5f5260026020525f209060ff801983541691151516179055565b005b503461062d578160031936011261062d578035916024359182101561062d577fd067ebf1565b7b7f7e3c08ccb7f355defc06fd6a3e5e3da1f0a43c8a235350ac9160209160018060a01b035f541633148015612fde575b612f90906143b7565b845f5260078352612fa5815f205415156141c2565b845f52600783526001815f2001612fbb83614169565b805461ff001916600884901b61ff00161790555190612fd981614169565b8152a2005b50335f908152600284528190205460ff16612f87565b823461062d57602036600319011261062d576020906001600160a01b03613019613d9f565b165f526002825260ff815f20541690519015158152f35b823461062d575f36600319011261062d57602090600e549051908152f35b503461062d5761305d36613e84565b93909192835f526130bc6020936007855261307c845f205415156141c2565b613084614b3a565b855f52600785526130a460ff6001865f20015460081c1661037f81614169565b855f5260088552835f20335f528552835f2090613f9e565b8054336001600160a01b03909116036131585781019081549086821061312057509061310b867fbcbb1a32e70b3a4c7e261bf1aa686d9baefa195ed797e1225c008ae953d6f1cf9594936142d7565b9055610e82856010546104ff82821015614563565b835162461bcd60e51b81529081018590526012602482015271496e73756666696369656e74207374616b6560701b6044820152606490fd5b5082606492519162461bcd60e51b83528201526013602482015272139bc81c1c99591a58dd1a5bdb88199bdd5b99606a1b6044820152fd5b823461062d575f36600319011261062d57517f00000000000000000000000000000000000000000000000000000000000000006001600160a01b03168152602090f35b823461062d5760209061275e6131e836614114565b905f5260188452825f2090613f9e565b503461062d57602036600319011261062d576001547f4986ef868ee9659d51f041598f943aa46a8bd02efd1912472d5990a090d3732192602092359161325390336001600160a01b03918216149081156132a0575b50614654565b61325e821515614206565b61328a8230337f0000000000000000000000000000000000000000000000000000000000000000614b69565b61329682601054614330565b60105551908152a1005b90505f541633145f61324d565b503461062d578160031936011261062d578035906024356001600160401b03811161062d576132df90369083016140e4565b91909360018060a01b035f5416331480156134e4575b6132fe906143b7565b835f5260209260078452613316825f205415156141c2565b845f526007845260019061333960ff6001855f20015460081c1661037f81614169565b5f935f5b88878483106134ab57505050841561347b575061337c8430337f0000000000000000000000000000000000000000000000000000000000000000614b69565b5f5b8181106133b157867f6b10a9fec29d0efd07b4aabbce21a618ccab013b141804be2f6bf1fc67c0a43087878751908152a2005b806133d16133ca6133c48694868d6145af565b806145e5565b3691613e21565b6133e36133de828b614d94565b614617565b876133ef83868d6145af565b0135613450575b8184878c816134068585846145af565b0135613418575b50505050500161337e565b6134449361343c93613429926145af565b0135928b5f5260198b52885f2090613f9e565b918254614330565b90555f8184878c61340d565b8761345c83868d6145af565b0135895f526018895261347461343c885f2084613f9e565b90556133f6565b835162461bcd60e51b8152908101869052600a60248201526916995c9bc81d1bdd185b60b21b6044820152606490fd5b966134d782886134cf8689819d6134c78d9a836134dd9b6145af565b0135946145af565b013590614330565b90614330565b950161333d565b50335f90815260026020528190205460ff166132f5565b823461062d5761354561350d36613f5c565b91805f526007602052613524855f205415156141c2565b5f526009602052835f209060018060a01b03165f52602052825f2090613f9e565b6003600282015491015482519182526020820152f35b823461062d575f36600319011261062d576020906015549051908152f35b50903461062d57602036600319011261062d57602091355f526012825260ff815f20541690519015158152f35b503461062d57602036600319011261062d5735906135c2614b3a565b6135cd821515614206565b6135f98230337f0000000000000000000000000000000000000000000000000000000000000000614b69565b6136038233614cb4565b519081527fd537095d36052e8eac258e2230bac449b49fb5f034a431d7114fdc1ab3786f4560203392a260015f8051602061508883398151915255005b50903461062d5760c036600319011261062d578135906001600160401b039060243560443583811161062d5761367990369087016140b7565b959060643560843560a43587811161062d5761369890369086016140b7565b895f52602095600787526136b0895f205415156141c2565b6136b8614b3a565b6011546001600160a01b039081169a9094906136d58c15156143f0565b6136e182421115614433565b6136ec8a1515614469565b8a51898101913360601b9485845289603484015260026054840152605483526080830191838310908311176138ed57508f9998979694928f9192889795938f5251902097885f5260178c528d5f205460ff1615613748906144a3565b8d519283928d840195865260348401528d60548401528b8b60748501378b830191607483015260948201524660b48201523060601b60d482015260e88101600390520360e8810182526101080161379f9082613e00565b519020916137ac92614bf2565b168015157f01009e1bdaf798125523e8dfa68dfc4c46e9d3eebc55e7b123757baeb4667699996137e29282610fdc5750506144e1565b885f52600785526137fb60ff6006895f20015416614521565b885f5260098552865f20335f528552865f208588518092878783378782019081520301902090339082541614806138e0575b6138ce575b50613841856010541015614563565b5f5260178352845f20600160ff19825416179055613861846010546142d7565b60105561388f84337f0000000000000000000000000000000000000000000000000000000000000000614c55565b8185519580875286015260608501375f606087850101528201526060813395601f80199101168101030190a360015f8051602061508883398151915255005b6003815f60028194015501555f613832565b506002810154151561382d565b604190634e487b7160e01b5f525260245ffd5b823461062d575f36600319011261062d5760015490516001600160a01b039091168152602090f35b823461062d578060031936011261062d57613941613d9f565b5f546001600160a01b039190821633148015613973575b613961906143b7565b165f908152600d602052206024359055005b50335f90815260026020528390205460ff16613958565b823461062d575f36600319011261062d576020906003549051908152f35b823461062d576139b73661408d565b5f549093926001600160a01b03918216331480156139f1575b6139d9906143b7565b5f52600b602052825f2091165f526020525f20555f80f35b50335f90815260026020528490205460ff166139d0565b823461062d57613a4090613a1b36613f5c565b9093915f526009602052825f2060018060a01b038095165f52602052825f2090613f9e565b9182541690805192613a6084613a598160018501613ffc565b0385613e00565b6003600282015491015490613a8683519586958652608060208701526080860190613edb565b9284015260608301520390f35b3461062d57602036600319011261062d57613aac613d9f565b5f546001600160a01b039190613ac5908316331461433d565b16613ad1811515614379565b6bffffffffffffffffffffffff60a01b60015416176001555f80f35b823461062d575f36600319011261062d576020906010549051908152f35b50903461062d57602036600319011261062d57602091355f526013825260ff815f20541690519015158152f35b503461062d576020908160031936011261062d5735805f5260078252613b62835f205415156141c2565b5f52600781526002825f2001918254613b7a81614152565b93613b8783519586613e00565b8185525f908152838120848087015b848410613baf578551828152806110a98185018b613f00565b60019182918751613bc4816108348189613ffc565b8152019201920191908590613b96565b50903461062d57613be436613e84565b825f9492939452613c1660209360078552613c03845f205415156141c2565b613c0b614b3a565b613084831515614206565b943360018060a01b0387541603613cee576104ff6107c96107c184613cd194613c847fafc28a1adb0af8d9ee797f710633dbeb0799ebb3270743a3c4a31111f1ffbc9099989730337f0000000000000000000000000000000000000000000000000000000000000000614b69565b613cb16127109283613c9860035483614292565b04968794613ca860065484614292565b049788926142d7565b9a613cbd8c15156142e4565b01613cc98b8254614330565b905589614330565b600f55519384523393a360015f8051602061508883398151915255005b825162461bcd60e51b8152908101849052601660248201527527379032bc34b9ba34b73390383932b234b1ba34b7b760511b6044820152606490fd5b823461062d575f36600319011261062d576020906005549051908152f35b9050823461062d578060031936011261062d57602092613d66613d89565b90355f908152600a85528281206001600160a01b03909216815290845220548152f35b602435906001600160a01b038216820361062d57565b600435906001600160a01b038216820361062d57565b61010081019081106001600160401b03821117613dd157604052565b634e487b7160e01b5f52604160045260245ffd5b606081019081106001600160401b03821117613dd157604052565b90601f801991011681019081106001600160401b03821117613dd157604052565b9291926001600160401b038211613dd15760405191613e4a601f8201601f191660200184613e00565b82948184528183011161062d578281602093845f960137010152565b9080601f8301121561062d57816020613e8193359101613e21565b90565b90606060031983011261062d5760043591602435906001600160401b03821161062d57613eb391600401613e66565b9060443590565b5f5b838110613ecb5750505f910152565b8181015183820152602001613ebc565b90602091613ef481518092818552858086019101613eba565b601f01601f1916010190565b90808251908181526020809101926020808460051b8301019501935f915b848310613f2e5750505050505090565b9091929394958480613f4c600193601f198682030187528a51613edb565b9801930193019194939290613f1e565b606060031982011261062d57600435916024356001600160a01b038116810361062d5791604435906001600160401b03821161062d57613e8191600401613e66565b602090613fb8928260405194838680955193849201613eba565b82019081520301902090565b90600182811c92168015613ff2575b6020831014613fde57565b634e487b7160e01b5f52602260045260245ffd5b91607f1691613fd3565b80545f939261400a82613fc4565b918282526020936001916001811690815f1461406e5750600114614030575b5050505050565b90939495505f92919252835f2092845f945b83861061405a57505050500101905f80808080614029565b805485870183015294019385908201614042565b60ff19168685015250505090151560051b010191505f80808080614029565b606090600319011261062d57600435906024356001600160a01b038116810361062d579060443590565b9181601f8401121561062d578235916001600160401b03831161062d576020838186019501011161062d57565b9181601f8401121561062d578235916001600160401b03831161062d576020808501948460051b01011161062d57565b90604060031983011261062d5760043591602435906001600160401b03821161062d57613e8191600401613e66565b60243590811515820361062d57565b6001600160401b038111613dd15760051b60200190565b6004111561417357565b634e487b7160e01b5f52602160045260245ffd5b90608060031983011261062d57600435916024359160443591606435906001600160401b03821161062d576141be916004016140b7565b9091565b156141c957565b60405162461bcd60e51b815260206004820152601560248201527413585c9ad95d08191bd95cc81b9bdd08195e1a5cdd605a1b6044820152606490fd5b1561420d57565b60405162461bcd60e51b815260206004820152601d60248201527f416d6f756e74206d7573742062652067726561746572207468616e20300000006044820152606490fd5b1561425957565b60405162461bcd60e51b81526020600482015260116024820152704d61726b6574206e6f742061637469766560781b6044820152606490fd5b818102929181159184041417156142a557565b634e487b7160e01b5f52601160045260245ffd5b81156142c3570490565b634e487b7160e01b5f52601260045260245ffd5b919082039182116142a557565b156142eb57565b60405162461bcd60e51b815260206004820152601a60248201527f5374616b6520746f6f20736d616c6c20616674657220666565730000000000006044820152606490fd5b919082018092116142a557565b1561434457565b60405162461bcd60e51b815260206004820152600d60248201526c27b7363c903232b83637bcb2b960991b6044820152606490fd5b1561438057565b60405162461bcd60e51b815260206004820152600f60248201526e496e76616c6964206164647265737360881b6044820152606490fd5b156143be57565b60405162461bcd60e51b815260206004820152600a60248201526927b7363c9030b236b4b760b11b6044820152606490fd5b156143f757565b60405162461bcd60e51b815260206004820152601460248201527310db185a5b481cda59db995c881b9bdd081cd95d60621b6044820152606490fd5b1561443a57565b60405162461bcd60e51b8152602060048201526007602482015266115e1c1a5c995960ca1b6044820152606490fd5b1561447057565b60405162461bcd60e51b815260206004820152600b60248201526a16995c9bc8185b5bdd5b9d60aa1b6044820152606490fd5b156144aa57565b60405162461bcd60e51b815260206004820152600f60248201526e105b1c9958591e4818db185a5b5959608a1b6044820152606490fd5b156144e857565b60405162461bcd60e51b8152602060048201526011602482015270496e76616c6964207369676e617475726560781b6044820152606490fd5b1561452857565b60405162461bcd60e51b815260206004820152601360248201527213585c9ad95d081b9bdd081c995cdbdb1d9959606a1b6044820152606490fd5b1561456a57565b60405162461bcd60e51b815260206004820152601760248201527f496e73756666696369656e7420636c61696d20706f6f6c0000000000000000006044820152606490fd5b91908110156145d15760051b81013590605e198136030182121561062d570190565b634e487b7160e01b5f52603260045260245ffd5b903590601e198136030182121561062d57018035906001600160401b03821161062d5760200191813603831361062d57565b1561461e57565b60405162461bcd60e51b815260206004820152600e60248201526d24b73b30b634b21037b83a34b7b760911b6044820152606490fd5b1561465b57565b60405162461bcd60e51b815260206004820152600f60248201526e27b7363c9039bab832b920b236b4b760891b6044820152606490fd5b91908110156145d15760051b81013590609e198136030182121561062d570190565b356001600160a01b038116810361062d5790565b156146cf57565b60405162461bcd60e51b81526020600482015260096024820152682d32b937903ab9b2b960b91b6044820152606490fd5b9190915f83820193841291129080158216911516176142a557565b5f52600760205260405f2090600582015490811561476057600361474192930190613f9e565b5490612710918281029281840414901517156142a557613e81916142b9565b50506002015480156142c3576127100490565b1561477a57565b60405162461bcd60e51b8152602060048201526011602482015270125b9d985b1a59081c9958da5c1a595b9d607a1b6044820152606490fd5b156147ba57565b60405162461bcd60e51b815260206004820152601760248201527f43616e6e6f742073656e6420746f20636f6e74726163740000000000000000006044820152606490fd5b1561480657565b60405162461bcd60e51b8152602060048201526014602482015273496e73756666696369656e742062616c616e636560601b6044820152606490fd5b80518210156145d15760209160051b010190565b80548210156145d1575f5260205f2001905f90565b91909182516001600160401b038111613dd1576148888254613fc4565b601f811161492d575b50602080601f83116001146148cc5750819293945f926148c1575b50508160011b915f199060031b1c1916179055565b015190505f806148ac565b90601f19831695845f5260205f20925f905b888210614915575050836001959697106148fd575b505050811b019055565b01515f1960f88460031b161c191690555f80806148f3565b806001859682949686015181550195019301906148de565b825f5260205f20601f830160051c81019160208410614968575b601f0160051c01905b81811061495d5750614891565b5f8155600101614950565b9091508190614947565b1561497957565b60405162461bcd60e51b815260206004820152601960248201527f496e73756666696369656e7420706f6f6c2062616c616e6365000000000000006044820152606490fd5b156149c557565b60405162461bcd60e51b815260206004820152600f60248201526e496e76616c6964206f7574636f6d6560881b6044820152606490fd5b614a1460409295949395606083526060830190613edb565b9460208201520152565b15614a2557565b60405162461bcd60e51b815260206004820152600a602482015269139bdb98d9481d5cd95960b21b6044820152606490fd5b15614a5e57565b60405162461bcd60e51b8152602060048201526012602482015271125b9cdd59999a58da595b9d081d985d5b1d60721b6044820152606490fd5b600160ff1b81146142a5575f0390565b91908110156145d15760051b0190565b15614abf57565b60405162461bcd60e51b8152602060048201526011602482015270139bc81c1bdcda5d1a5bdb88199bdd5b99607a1b6044820152606490fd5b15614aff57565b60405162461bcd60e51b8152602060048201526013602482015272496e73756666696369656e742073686172657360681b6044820152606490fd5b5f805160206150888339815191526002815414614b575760029055565b604051633ee5aeb560e01b8152600490fd5b6040516323b872dd60e01b5f9081526001600160a01b03938416600452938316602452604494909452909160209060648180855af160015f5114811615614bd3575b836040525f60605215614bbd57505050565b635274afe760e01b835216600482015260249150fd5b6001811516614be957813b15153d151616614bab565b833d5f823e3d90fd5b91614c46614c4c92613e819460405160208101917f19457468657265756d205369676e6564204d6573736167653a0a3332000000008352603c820152603c8152614c3b81613de5565b519020923691613e21565b90614f35565b90929192614f6f565b60405163a9059cbb60e01b5f9081526001600160a01b039384166004526024949094529260209060448180855af160015f5114811615614c9e575b8360405215614bbd57505050565b6001811516614be957813b15153d151616614c90565b905f811315614cee57614ce99160018060a01b03165f52601460205260405f20614cdf828254614330565b9055601554614330565b601555565b5f8112614cf9575050565b614d0290614a98565b9060018060a01b0316805f526014602052614d238260405f20541015614a57565b5f52601460205260405f20614d398282546142d7565b905560155490808210614d4f57614ce9916142d7565b60405162461bcd60e51b815260206004820152601960248201527f5661756c74206c696162696c69747920756e646572666c6f77000000000000006044820152606490fd5b5f526020600760205260409160405f209260025f94018054945b858110614dbf575050505050505f90565b610834614ddb614dcf8385614856565b50855192838092613ffc565b85815191012084518686012014614df457600101614dae565b505050505050600190565b9291925f52600960205260405f209260018060a01b0380921693845f52602052614e2c60405f2082613f9e565b93845492831615614f0c575b5050505f811315614ed757614e5260028301918254614330565b90555b5f821315614e70576003614e6c9101918254614330565b9055565b905f8112614e7c575050565b614e87600391614a98565b910190815490808210614e9d57614e6c916142d7565b60405162461bcd60e51b8152602060048201526012602482015271496e76657374656420756e646572666c6f7760701b6044820152606490fd5b5f8112614ee5575b50614e55565b614eee90614a98565b614f04600283019182546104ff82821015614af8565b90555f614edf565b614f2d926bffffffffffffffffffffffff60a01b161784556001840161486b565b5f8080614e38565b8151919060418303614f6557614f5e9250602082015190606060408401519301515f1a90614ffa565b9192909190565b50505f9160029190565b614f7881614169565b80614f81575050565b614f8a81614169565b60018103614fa45760405163f645eedf60e01b8152600490fd5b614fad81614169565b60028103614fce5760405163fce698f760e01b815260048101839052602490fd5b80614fda600392614169565b14614fe25750565b602490604051906335e2f38360e21b82526004820152fd5b91907f7fffffffffffffffffffffffffffffff5d576e7357a4501ddfe92f46681b20a0841161507c579160209360809260ff5f9560405194855216868401526040830152606082015282805260015afa15615071575f516001600160a01b0381161561506757905f905f90565b505f906001905f90565b6040513d5f823e3d90fd5b5050505f916003919056fe9b779b17422d0df92223018b32b4d1fa46e071723d6817e2486d003becc55f00a2646970667358221220491ed2745e8a2cc382b92db5d2c25cb52cb9a8cc954658f40214a4b6a8b8e94764736f6c63430008180033",
  "immutableReferences": {
    "8936": [
      {
        "length": 32,
        "start": 1294
      },
      {
        "length": 32,
        "start": 1798
      },
      {
        "length": 32,
        "start": 2465
      },
      {
        "length": 32,
        "start": 3724
      },
      {
        "length": 32,
        "start": 4619
      },
      {
        "length": 32,
        "start": 4864
      },
      {
        "length": 32,
        "start": 5943
      },
      {
        "length": 32,
        "start": 6253
      },
      {
        "length": 32,
        "start": 6668
      },
      {
        "length": 32,
        "start": 7081
      },
      {
        "length": 32,
        "start": 7275
      },
      {
        "length": 32,
        "start": 9326
      },
      {
        "length": 32,
        "start": 10192
      },
      {
        "length": 32,
        "start": 10647
      },
      {
        "length": 32,
        "start": 11026
      },
      {
        "length": 32,
        "start": 12708
      },
      {
        "length": 32,
        "start": 12902
      },
      {
        "length": 32,
        "start": 13144
      },
      {
        "length": 32,
        "start": 13781
      },
      {
        "length": 32,
        "start": 14443
      },
      {
        "length": 32,
        "start": 15456
      }
    ]
  },
  "source": "// SPDX-License-Identifier: MIT\r\npragma solidity ^0.8.20;\r\n\r\nimport {IERC20} from \"@openzeppelin/contracts/token/ERC20/IERC20.sol\";\r\nimport {SafeERC20} from \"@openzeppelin/contracts/token/ERC20/utils/SafeERC20.sol\";\r\nimport {ReentrancyGuard} from \"@openzeppelin/contracts/utils/ReentrancyGuard.sol\";\r\nimport {ECDSA} from \"@openzeppelin/contracts/utils/cryptography/ECDSA.sol\";\r\n\r\n/**\r\n * @title WeRgame\r\n * @dev Comprehensive smart contract for prediction market platform\r\n * Handles market creation, trading, boost predictions, and jackpot management\r\n */\r\ncontract WeRgame is ReentrancyGuard {\r\n    using SafeERC20 for IERC20;\r\n\r\n    address public deployer;\r\n    address public superAdmin;\r\n    mapping(address => bool) public admins;\r\n\r\n    /// @notice Platform currency token (Base USDC). All pools and payouts are denominated in this token.\r\n    IERC20 public immutable usdc;\r\n    \r\n    // Fee structure (in basis points, 10000 = 100%)\r\n    uint256 public platformFee; // For boost predictions\r\n    uint256 public boostJackpotFee;\r\n    uint256 public marketPlatformFee;\r\n    uint256 public freeJackpotFee;\r\n    \r\n    // Market status enum\r\n    enum MarketStatus {\r\n        Upcoming,\r\n        Active,\r\n        Locked,\r\n        Resolved\r\n    }\r\n    \r\n    // Market structure\r\n    struct Market {\r\n        uint256 marketId;\r\n        bool isPoll; // true for poll, false for match\r\n        MarketStatus status;\r\n        string[] options; // Options/outcomes for this market\r\n        mapping(string => uint256) liquidity; // Liquidity per option\r\n        mapping(string => uint256) shares; // Total shares per option\r\n        uint256 totalLiquidity;\r\n        bool resolved;\r\n        string winningOption; // Set when resolved\r\n        uint256 createdAt;\r\n        uint256 resolvedAt;\r\n    }\r\n    \r\n    // Boost prediction structure\r\n    struct BoostPrediction {\r\n        address user;\r\n        uint256 marketId;\r\n        string outcome;\r\n        uint256 stakeAmount;\r\n        uint256 totalStake;\r\n        bool claimed;\r\n    }\r\n    \r\n    // Market trading position\r\n    struct MarketPosition {\r\n        address user;\r\n        string outcome;\r\n        uint256 shares;\r\n        uint256 totalInvested;\r\n    }\r\n    \r\n    // Mappings\r\n    mapping(uint256 => Market) public markets;\r\n    mapping(uint256 => mapping(address => mapping(string => BoostPrediction))) public boostPredictions; // marketId => user => outcome => prediction\r\n    mapping(uint256 => mapping(address => mapping(string => MarketPosition))) public marketPositions; // marketId => user => outcome => position\r\n    mapping(uint256 => mapping(address => uint256)) public claimableBalances; // marketId => user => claimable amount (legacy/total)\r\n    mapping(uint256 => mapping(address => uint256)) public claimableBoost;    // marketId => user => boost claimable\r\n    mapping(uint256 => mapping(address => uint256)) public claimableMarket;  // marketId => user => market claimable\r\n    mapping(address => uint256) public jackpotBalances; // user => jackpot balance\r\n    \r\n    uint256 public nextMarketId;\r\n    uint256 public jackpotPool;\r\n    /// @dev Pool for paying Boost and Market prediction wins; funded by deployer and by boost stakes\r\n    uint256 public claimPredictionWinsPool;\r\n\r\n    /// @notice Backend / ops wallet that signs authorized claims (set by deployer)\r\n    address public claimAuthSigner;\r\n    /// @notice Replay protection for signature-based prediction claims\r\n    mapping(bytes32 => bool) public usedAuthPredictionClaims;\r\n    /// @notice Replay protection for signature-based jackpot withdrawals\r\n    mapping(bytes32 => bool) public usedJackpotWithdrawNonces;\r\n    /// @notice USDC credited to users for orderbook trading (deposit / settlement)\r\n    mapping(address => uint256) public tradingVaultBalances;\r\n    /// @notice Sum of all tradingVaultBalances — used to prevent superAdmin draining user vault collateral\r\n    uint256 public totalTradingVaultLiabilities;\r\n    mapping(bytes32 => bool) public usedTradingVaultWithdrawNonces;\r\n    /// @notice Replay for orderbook position claims (separate from boost/market auth key space)\r\n    mapping(bytes32 => bool) public usedOrderbookClaimKeys;\r\n    /// @notice On-chain reference liquidity for YES/NO books per outcome option (USDC units)\r\n    mapping(uint256 => mapping(string => uint256)) public orderbookLiquidityYes;\r\n    mapping(uint256 => mapping(string => uint256)) public orderbookLiquidityNo;\r\n    mapping(uint256 => mapping(string => uint256)) public orderbookSharesYes;\r\n    mapping(uint256 => mapping(string => uint256)) public orderbookSharesNo;\r\n    \r\n    // Events\r\n    event MarketCreated(uint256 indexed marketId, bool isPoll, string[] options);\r\n    event MarketStatusUpdated(uint256 indexed marketId, MarketStatus status);\r\n    event MarketResolved(uint256 indexed marketId, string winningOption);\r\n    event LiquidityAdded(uint256 indexed marketId, string option, uint256 amount);\r\n    event FeesUpdated(uint256 platformFee, uint256 boostJackpotFee, uint256 marketPlatformFee, uint256 freeJackpotFee);\r\n    event BoostStaked(uint256 indexed marketId, address indexed user, string outcome, uint256 amount);\r\n    event BoostStakeAdded(uint256 indexed marketId, address indexed user, uint256 amount);\r\n    event BoostStakeWithdrawn(uint256 indexed marketId, address indexed user, uint256 amount);\r\n    event BoostClaimed(uint256 indexed marketId, address indexed user, uint256 amount);\r\n    event MarketBought(uint256 indexed marketId, address indexed user, string outcome, uint256 ethAmount, uint256 shares);\r\n    event MarketSold(uint256 indexed marketId, address indexed user, string outcome, uint256 shares, uint256 ethAmount);\r\n    event MarketClaimed(uint256 indexed marketId, address indexed user, string outcome, uint256 amount);\r\n    event JackpotFunded(uint256 amount);\r\n    event JackpotWithdrawn(address indexed user, uint256 amount);\r\n    event JackpotPoolWithdrawn(address indexed to, uint256 amount);\r\n    event FundsTransferred(address indexed to, uint256 amount);\r\n    event ClaimPredictionWinsPoolFunded(uint256 amount);\r\n    event ClaimPredictionWinsPoolWithdrawn(address indexed to, uint256 amount);\r\n    event PredictionWinsClaimed(uint256 indexed marketId, address indexed user, uint256 amount);\r\n    event TradingVaultDeposited(address indexed user, uint256 amount);\r\n    event TradingVaultWithdrawn(address indexed user, uint256 amount);\r\n    event OrderbookLiquidityBatchAdded(uint256 indexed marketId, uint256 totalAmount);\r\n    event OrderbookSettlementsApplied(\r\n        uint256 indexed marketId,\r\n        uint256 legs,\r\n        uint256 feeToClaimPool,\r\n        uint256 feeToJackpotPool\r\n    );\r\n    event OrderbookPositionClaimed(uint256 indexed marketId, address indexed user, string positionKey, uint256 amount);\r\n    event ContractMigratedForUpgrade(address indexed to, uint256 amount);\r\n    \r\n    modifier onlyDeployer() {\r\n        require(msg.sender == deployer, \"Only deployer\");\r\n        _;\r\n    }\r\n    \r\n    modifier onlySuperAdmin() {\r\n        require(msg.sender == superAdmin || msg.sender == deployer, \"Only superAdmin\");\r\n        _;\r\n    }\r\n\r\n    modifier onlyAdmin() {\r\n        require(msg.sender == deployer || admins[msg.sender], \"Only admin\");\r\n        _;\r\n    }\r\n    \r\n    modifier validMarket(uint256 marketId) {\r\n        require(markets[marketId].marketId != 0, \"Market does not exist\");\r\n        _;\r\n    }\r\n\r\n    function _marketHasOption(uint256 marketId, string memory option) internal view returns (bool) {\r\n        Market storage market = markets[marketId];\r\n        for (uint256 i = 0; i < market.options.length; i++) {\r\n            if (keccak256(bytes(market.options[i])) == keccak256(bytes(option))) {\r\n                return true;\r\n            }\r\n        }\r\n        return false;\r\n    }\r\n\r\n    function _applyVaultDelta(address user, int256 delta) internal {\r\n        if (delta > 0) {\r\n            tradingVaultBalances[user] += uint256(delta);\r\n            totalTradingVaultLiabilities += uint256(delta);\r\n        } else if (delta < 0) {\r\n            uint256 dec = uint256(-delta);\r\n            require(tradingVaultBalances[user] >= dec, \"Insufficient vault\");\r\n            tradingVaultBalances[user] -= dec;\r\n            require(totalTradingVaultLiabilities >= dec, \"Vault liability underflow\");\r\n            totalTradingVaultLiabilities -= dec;\r\n        }\r\n    }\r\n\r\n    function _applyShareDelta(uint256 marketId, address user, string memory positionKey, int256 sharesDelta, int256 investedDelta) internal {\r\n        MarketPosition storage position = marketPositions[marketId][user][positionKey];\r\n        if (position.user == address(0)) {\r\n            position.user = user;\r\n            position.outcome = positionKey;\r\n        }\r\n        if (sharesDelta > 0) {\r\n            position.shares += uint256(sharesDelta);\r\n        } else if (sharesDelta < 0) {\r\n            uint256 dec = uint256(-sharesDelta);\r\n            require(position.shares >= dec, \"Insufficient shares\");\r\n            position.shares -= dec;\r\n        }\r\n        if (investedDelta > 0) {\r\n            position.totalInvested += uint256(investedDelta);\r\n        } else if (investedDelta < 0) {\r\n            uint256 dec2 = uint256(-investedDelta);\r\n            require(position.totalInvested >= dec2, \"Invested underflow\");\r\n            position.totalInvested -= dec2;\r\n        }\r\n    }\r\n    \r\n    /// @dev EIP-191 personal_sign over keccak256(abi.encodePacked(...fields...))\r\n    function _recoverAuthSigner(bytes32 messageHash, bytes calldata signature) internal pure returns (address) {\r\n        bytes32 ethSigned = keccak256(abi.encodePacked(\"\\x19Ethereum Signed Message:\\n32\", messageHash));\r\n        return ECDSA.recover(ethSigned, signature);\r\n    }\r\n    \r\n    constructor(address usdcToken) {\r\n        require(usdcToken != address(0), \"Invalid USDC token\");\r\n        deployer = msg.sender;\r\n        superAdmin = msg.sender;\r\n        admins[msg.sender] = true;\r\n        usdc = IERC20(usdcToken);\r\n        \r\n        // Default fees (in basis points: 1000 = 10%, 500 = 5%)\r\n        platformFee = 1000; // 10%\r\n        boostJackpotFee = 500; // 5%\r\n        marketPlatformFee = 500; // 5%\r\n        freeJackpotFee = 500; // 5%\r\n        \r\n        nextMarketId = 1;\r\n        // Default to deployer; change with setClaimAuthSigner if backend uses a dedicated ops key.\r\n        claimAuthSigner = msg.sender;\r\n    }\r\n    \r\n    /**\r\n     * @dev Create a new market (match or poll)\r\n     * @param isPoll true if poll, false if match\r\n     * @param options array of outcome options\r\n     */\r\n    function createMarket(bool isPoll, string[] memory options) external onlyAdmin returns (uint256) {\r\n        require(options.length >= 2, \"Must have at least 2 options\");\r\n        \r\n        uint256 marketId = nextMarketId++;\r\n        Market storage market = markets[marketId];\r\n        market.marketId = marketId;\r\n        market.isPoll = isPoll;\r\n        market.status = MarketStatus.Upcoming;\r\n        market.createdAt = block.timestamp;\r\n        \r\n        // Initialize options\r\n        for (uint256 i = 0; i < options.length; i++) {\r\n            market.options.push(options[i]);\r\n            market.liquidity[options[i]] = 0;\r\n            market.shares[options[i]] = 0;\r\n        }\r\n        \r\n        emit MarketCreated(marketId, isPoll, options);\r\n        return marketId;\r\n    }\r\n    \r\n    /**\r\n     * @dev Update market status\r\n     */\r\n    function updateMarketStatus(uint256 marketId, MarketStatus status) external onlyAdmin validMarket(marketId) {\r\n        markets[marketId].status = status;\r\n        emit MarketStatusUpdated(marketId, status);\r\n    }\r\n    \r\n    /**\r\n     * @dev Add initial liquidity to a market option\r\n     */\r\n    function addLiquidity(uint256 marketId, string memory option, uint256 amount) external onlyAdmin validMarket(marketId) {\r\n        require(amount > 0, \"Amount must be greater than 0\");\r\n        \r\n        Market storage market = markets[marketId];\r\n        require(market.status == MarketStatus.Upcoming || market.status == MarketStatus.Active, \"Market not active\");\r\n        \r\n        // Verify option exists\r\n        bool optionExists = false;\r\n        for (uint256 i = 0; i < market.options.length; i++) {\r\n            if (keccak256(bytes(market.options[i])) == keccak256(bytes(option))) {\r\n                optionExists = true;\r\n                break;\r\n            }\r\n        }\r\n        require(optionExists, \"Invalid option\");\r\n        \r\n        usdc.safeTransferFrom(msg.sender, address(this), amount);\r\n\r\n        market.liquidity[option] += amount;\r\n        market.totalLiquidity += amount;\r\n        \r\n        emit LiquidityAdded(marketId, option, amount);\r\n    }\r\n    \r\n    /**\r\n     * @dev Resolve a market\r\n     */\r\n    function resolveMarket(uint256 marketId, string memory winningOption) external onlyAdmin validMarket(marketId) {\r\n        Market storage market = markets[marketId];\r\n        require(market.status != MarketStatus.Resolved, \"Already resolved\");\r\n        \r\n        // Verify option exists\r\n        bool optionExists = false;\r\n        for (uint256 i = 0; i < market.options.length; i++) {\r\n            if (keccak256(bytes(market.options[i])) == keccak256(bytes(winningOption))) {\r\n                optionExists = true;\r\n                break;\r\n            }\r\n        }\r\n        require(optionExists, \"Invalid winning option\");\r\n        \r\n        market.status = MarketStatus.Resolved;\r\n        market.resolved = true;\r\n        market.winningOption = winningOption;\r\n        market.resolvedAt = block.timestamp;\r\n        \r\n        emit MarketResolved(marketId, winningOption);\r\n    }\r\n    \r\n    /**\r\n     * @dev Set fees (in basis points)\r\n     */\r\n    /**\r\n     * @dev Set wallet whose signatures authorize user claims (off-chain payout amount). Use the same key as CLAIM_AUTH_PRIVATE_KEY on the API.\r\n     */\r\n    function setClaimAuthSigner(address signer) external onlyDeployer {\r\n        require(signer != address(0), \"Invalid signer\");\r\n        claimAuthSigner = signer;\r\n    }\r\n    \r\n    function setFees(\r\n        uint256 _platformFee,\r\n        uint256 _boostJackpotFee,\r\n        uint256 _marketPlatformFee,\r\n        uint256 _freeJackpotFee\r\n    ) external onlyDeployer {\r\n        require(_platformFee <= 10000 && _boostJackpotFee <= 10000 && \r\n                _marketPlatformFee <= 10000 && _freeJackpotFee <= 10000, \"Fees cannot exceed 100%\");\r\n        \r\n        platformFee = _platformFee;\r\n        boostJackpotFee = _boostJackpotFee;\r\n        marketPlatformFee = _marketPlatformFee;\r\n        freeJackpotFee = _freeJackpotFee;\r\n        \r\n        emit FeesUpdated(_platformFee, _boostJackpotFee, _marketPlatformFee, _freeJackpotFee);\r\n    }\r\n    \r\n    /**\r\n     * @dev Get current fees\r\n     */\r\n    function getFees() external view returns (\r\n        uint256 _platformFee,\r\n        uint256 _boostJackpotFee,\r\n        uint256 _marketPlatformFee,\r\n        uint256 _freeJackpotFee\r\n    ) {\r\n        return (platformFee, boostJackpotFee, marketPlatformFee, freeJackpotFee);\r\n    }\r\n    \r\n    /**\r\n     * @dev Get options for a market (so frontend can validate outcome before staking)\r\n     */\r\n    function getMarketOptions(uint256 marketId) external view validMarket(marketId) returns (string[] memory) {\r\n        return markets[marketId].options;\r\n    }\r\n    \r\n    /**\r\n     * @dev Stake USDC for boost prediction. Net stake + platform fee fund `claimPredictionWinsPool`\r\n     *      (same pool `claimPredictionWinsWithAuth` pays from); jackpot fee funds `jackpotPool`.\r\n     */\r\n    function stakeBoost(uint256 marketId, string memory outcome, uint256 amount) external validMarket(marketId) nonReentrant {\r\n        require(amount > 0, \"Amount must be greater than 0\");\r\n        Market storage market = markets[marketId];\r\n        require(market.status == MarketStatus.Upcoming || market.status == MarketStatus.Active, \"Market not active\");\r\n        \r\n        // Verify option exists\r\n        bool optionExists = false;\r\n        for (uint256 i = 0; i < market.options.length; i++) {\r\n            if (keccak256(bytes(market.options[i])) == keccak256(bytes(outcome))) {\r\n                optionExists = true;\r\n                break;\r\n            }\r\n        }\r\n        require(optionExists, \"Invalid outcome\");\r\n        \r\n        usdc.safeTransferFrom(msg.sender, address(this), amount);\r\n\r\n        uint256 platformFeeAmount = (amount * platformFee) / 10000;\r\n        uint256 jackpotFeeAmount = (amount * freeJackpotFee) / 10000;\r\n        uint256 netStake = amount - platformFeeAmount - jackpotFeeAmount;\r\n        require(netStake > 0, \"Stake too small after fees\");\r\n        \r\n        // Update or create boost prediction\r\n        BoostPrediction storage prediction = boostPredictions[marketId][msg.sender][outcome];\r\n        if (prediction.user == address(0)) {\r\n            // New prediction\r\n            prediction.user = msg.sender;\r\n            prediction.marketId = marketId;\r\n            prediction.outcome = outcome;\r\n            prediction.stakeAmount = netStake;\r\n            prediction.totalStake = netStake;\r\n        } else {\r\n            // Update existing prediction\r\n            prediction.totalStake += netStake;\r\n        }\r\n        \r\n        claimPredictionWinsPool += netStake + platformFeeAmount;\r\n        jackpotPool += jackpotFeeAmount;\r\n        \r\n        emit BoostStaked(marketId, msg.sender, outcome, netStake);\r\n    }\r\n    \r\n    /**\r\n     * @dev Add more stake to existing boost prediction\r\n     */\r\n    function addBoostStake(uint256 marketId, string memory outcome, uint256 amount) external validMarket(marketId) nonReentrant {\r\n        require(amount > 0, \"Amount must be greater than 0\");\r\n        Market storage market = markets[marketId];\r\n        require(market.status == MarketStatus.Upcoming || market.status == MarketStatus.Active, \"Market not active\");\r\n        \r\n        BoostPrediction storage prediction = boostPredictions[marketId][msg.sender][outcome];\r\n        require(prediction.user == msg.sender, \"No existing prediction\");\r\n        \r\n        usdc.safeTransferFrom(msg.sender, address(this), amount);\r\n\r\n        uint256 platformFeeAmount = (amount * platformFee) / 10000;\r\n        uint256 jackpotFeeAmount = (amount * freeJackpotFee) / 10000;\r\n        uint256 netStake = amount - platformFeeAmount - jackpotFeeAmount;\r\n        require(netStake > 0, \"Stake too small after fees\");\r\n        \r\n        prediction.totalStake += netStake;\r\n        \r\n        claimPredictionWinsPool += netStake + platformFeeAmount;\r\n        jackpotPool += jackpotFeeAmount;\r\n        \r\n        emit BoostStakeAdded(marketId, msg.sender, netStake);\r\n    }\r\n    \r\n    /**\r\n     * @dev Withdraw stake from boost prediction (only before resolution)\r\n     */\r\n    function withdrawBoostStake(uint256 marketId, string memory outcome, uint256 amount) external validMarket(marketId) nonReentrant {\r\n        Market storage market = markets[marketId];\r\n        require(market.status == MarketStatus.Upcoming || market.status == MarketStatus.Active, \"Market not active\");\r\n        \r\n        BoostPrediction storage prediction = boostPredictions[marketId][msg.sender][outcome];\r\n        require(prediction.user == msg.sender, \"No prediction found\");\r\n        require(prediction.totalStake >= amount, \"Insufficient stake\");\r\n        \r\n        prediction.totalStake -= amount;\r\n        require(claimPredictionWinsPool >= amount, \"Insufficient claim pool\");\r\n        claimPredictionWinsPool -= amount;\r\n        \r\n        usdc.safeTransfer(msg.sender, amount);\r\n        \r\n        emit BoostStakeWithdrawn(marketId, msg.sender, amount);\r\n    }\r\n    \r\n    /**\r\n     * @dev Claim boost prediction winnings — REMOVED: use claimPredictionWinsWithAuth only.\r\n     * Legacy claimBoost() allowed unsigned claims when admin set claimableBalances.\r\n     */\r\n\r\n    /**\r\n     * @dev Set claimable balance for a user (legacy admin bookkeeping; not used for user claims).\r\n     */\r\n    function setClaimableBalance(uint256 marketId, address user, uint256 amount) external onlyAdmin {\r\n        claimableBalances[marketId][user] = amount;\r\n    }\r\n    \r\n    /**\r\n     * @dev Set claimable boost amount for a user (called after resolution).\r\n     */\r\n    function setClaimableBoost(uint256 marketId, address user, uint256 amount) external onlyAdmin {\r\n        claimableBoost[marketId][user] = amount;\r\n    }\r\n    \r\n    /**\r\n     * @dev Set claimable market amount for a user (admin bookkeeping after resolve; claims use WithAuth).\r\n     */\r\n    function setClaimableMarket(uint256 marketId, address user, uint256 amount) external onlyAdmin {\r\n        claimableMarket[marketId][user] = amount;\r\n    }\r\n\r\n    /**\r\n     * @dev Claim boost or market winnings using a signature from `claimAuthSigner`.\r\n     * Unsigned claimPredictionWins() removed — all user payouts require backend authorization.\r\n     */\r\n    function claimPredictionWinsWithAuth(\r\n        uint256 marketId,\r\n        bool isBoost,\r\n        uint256 amount,\r\n        bytes32 predictionId,\r\n        uint256 deadline,\r\n        bytes calldata signature\r\n    ) external validMarket(marketId) nonReentrant {\r\n        require(claimAuthSigner != address(0), \"Claim signer not set\");\r\n        require(block.timestamp <= deadline, \"Expired\");\r\n        require(amount > 0, \"Zero amount\");\r\n\r\n        bytes32 authKey = keccak256(abi.encodePacked(msg.sender, predictionId));\r\n        require(!usedAuthPredictionClaims[authKey], \"Already claimed\");\r\n\r\n        bytes32 messageHash = keccak256(\r\n            abi.encodePacked(\r\n                msg.sender,\r\n                marketId,\r\n                isBoost,\r\n                amount,\r\n                predictionId,\r\n                deadline,\r\n                block.chainid,\r\n                address(this)\r\n            )\r\n        );\r\n        address recovered = _recoverAuthSigner(messageHash, signature);\r\n        require(recovered != address(0) && recovered == claimAuthSigner, \"Invalid signature\");\r\n\r\n        Market storage market = markets[marketId];\r\n        require(market.resolved, \"Market not resolved\");\r\n        string memory winningOption = market.winningOption;\r\n\r\n        if (isBoost) {\r\n            BoostPrediction storage boostPred = boostPredictions[marketId][msg.sender][winningOption];\r\n            require(boostPred.user == msg.sender && boostPred.totalStake > 0 && !boostPred.claimed, \"Not a boost participant\");\r\n            boostPred.claimed = true;\r\n        } else {\r\n            MarketPosition storage pos = marketPositions[marketId][msg.sender][winningOption];\r\n            require(pos.user == msg.sender && pos.shares > 0, \"Not a market participant\");\r\n            pos.shares = 0;\r\n            pos.totalInvested = 0;\r\n        }\r\n\r\n        require(claimPredictionWinsPool >= amount, \"Insufficient claim pool\");\r\n        usedAuthPredictionClaims[authKey] = true;\r\n        claimPredictionWinsPool -= amount;\r\n        usdc.safeTransfer(msg.sender, amount);\r\n        emit PredictionWinsClaimed(marketId, msg.sender, amount);\r\n    }\r\n    \r\n    /**\r\n     * @dev Withdraw from jackpot pool using a signature from `claimAuthSigner`.\r\n     * Enforces per-user on-chain `jackpotBalances` (synced from admin/backend on resolve).\r\n     */\r\n    function withdrawJackpotWithAuth(\r\n        uint256 amount,\r\n        bytes32 nonce,\r\n        uint256 deadline,\r\n        bytes calldata signature\r\n    ) external nonReentrant {\r\n        require(claimAuthSigner != address(0), \"Claim signer not set\");\r\n        require(block.timestamp <= deadline, \"Expired\");\r\n        require(amount > 0, \"Zero amount\");\r\n        require(!usedJackpotWithdrawNonces[nonce], \"Nonce used\");\r\n\r\n        bytes32 messageHash = keccak256(\r\n            abi.encodePacked(msg.sender, amount, nonce, deadline, block.chainid, address(this))\r\n        );\r\n        address recovered = _recoverAuthSigner(messageHash, signature);\r\n        require(recovered != address(0) && recovered == claimAuthSigner, \"Invalid signature\");\r\n\r\n        require(jackpotBalances[msg.sender] >= amount, \"Insufficient balance\");\r\n        require(jackpotPool >= amount, \"Insufficient jackpot pool\");\r\n        usedJackpotWithdrawNonces[nonce] = true;\r\n        jackpotBalances[msg.sender] -= amount;\r\n        jackpotPool -= amount;\r\n\r\n        usdc.safeTransfer(msg.sender, amount);\r\n        emit JackpotWithdrawn(msg.sender, amount);\r\n    }\r\n\r\n    /**\r\n     * @dev Fund the claim prediction wins pool (super admin or deployer).\r\n     */\r\n    function fundClaimPredictionWinsPool(uint256 amount) external onlySuperAdmin {\r\n        require(amount > 0, \"Amount must be greater than 0\");\r\n        usdc.safeTransferFrom(msg.sender, address(this), amount);\r\n        claimPredictionWinsPool += amount;\r\n        emit ClaimPredictionWinsPoolFunded(amount);\r\n    }\r\n    \r\n    /**\r\n     * @dev Withdraw from claim prediction wins pool (deployer only).\r\n     */\r\n    function withdrawFromClaimPredictionWinsPool(address payable to, uint256 amount) external onlySuperAdmin nonReentrant {\r\n        require(to != address(0), \"Invalid recipient\");\r\n        require(to != address(this), \"Cannot send to contract\");\r\n        require(amount > 0, \"Amount must be greater than 0\");\r\n        require(claimPredictionWinsPool >= amount, \"Insufficient pool balance\");\r\n        claimPredictionWinsPool -= amount;\r\n        usdc.safeTransfer(to, amount);\r\n        emit ClaimPredictionWinsPoolWithdrawn(to, amount);\r\n    }\r\n    \r\n    /**\r\n     * @dev Buy shares in market (fixed-sum AMM)\r\n     */\r\n    function buyMarketShares(uint256 marketId, string memory outcome, uint256 amount) external validMarket(marketId) nonReentrant {\r\n        require(amount > 0, \"Amount must be greater than 0\");\r\n        Market storage market = markets[marketId];\r\n        require(market.status == MarketStatus.Upcoming || market.status == MarketStatus.Active, \"Market not active\");\r\n        \r\n        // Verify option exists\r\n        bool optionExists = false;\r\n        for (uint256 i = 0; i < market.options.length; i++) {\r\n            if (keccak256(bytes(market.options[i])) == keccak256(bytes(outcome))) {\r\n                optionExists = true;\r\n                break;\r\n            }\r\n        }\r\n        require(optionExists, \"Invalid outcome\");\r\n        \r\n        // Calculate fees\r\n        usdc.safeTransferFrom(msg.sender, address(this), amount);\r\n\r\n        uint256 platformFeeAmount = (amount * marketPlatformFee) / 10000;\r\n        uint256 freeJackpotFeeAmount = (amount * freeJackpotFee) / 10000;\r\n        uint256 netAmount = amount - platformFeeAmount - freeJackpotFeeAmount;\r\n        require(netAmount > 0, \"Amount too small after fees\");\r\n        \r\n        // Calculate current price (liquidity / total liquidity)\r\n        uint256 currentPrice = market.totalLiquidity > 0 \r\n            ? (market.liquidity[outcome] * 10000) / market.totalLiquidity \r\n            : (10000 / market.options.length); // Equal distribution if no liquidity\r\n        \r\n        // Calculate shares received\r\n        uint256 shares = (netAmount * 10000) / currentPrice;\r\n        \r\n        // Update liquidity (fixed-sum AMM: buying increases selected option's liquidity)\r\n        market.liquidity[outcome] += netAmount;\r\n        market.totalLiquidity += netAmount;\r\n        market.shares[outcome] += shares;\r\n        \r\n        // Update user position\r\n        MarketPosition storage position = marketPositions[marketId][msg.sender][outcome];\r\n        if (position.user == address(0)) {\r\n            position.user = msg.sender;\r\n            position.outcome = outcome;\r\n        }\r\n        position.shares += shares;\r\n        position.totalInvested += netAmount;\r\n        \r\n        // Market buys fund the claim prediction wins pool; jackpot fee share goes to jackpotPool\r\n        claimPredictionWinsPool += netAmount + platformFeeAmount;\r\n        if (freeJackpotFeeAmount > 0) {\r\n            jackpotPool += freeJackpotFeeAmount;\r\n        }\r\n        \r\n        emit MarketBought(marketId, msg.sender, outcome, netAmount, shares);\r\n    }\r\n    \r\n    /**\r\n     * @dev Sell shares in market\r\n     */\r\n    function sellMarketShares(uint256 marketId, string memory outcome, uint256 shares) external validMarket(marketId) nonReentrant {\r\n        Market storage market = markets[marketId];\r\n        require(market.status == MarketStatus.Upcoming || market.status == MarketStatus.Active, \"Market not active\");\r\n        \r\n        MarketPosition storage position = marketPositions[marketId][msg.sender][outcome];\r\n        require(position.user == msg.sender, \"No position found\");\r\n        require(position.shares >= shares, \"Insufficient shares\");\r\n        \r\n        // Calculate current price\r\n        uint256 currentPrice = market.totalLiquidity > 0 \r\n            ? (market.liquidity[outcome] * 10000) / market.totalLiquidity \r\n            : (10000 / market.options.length);\r\n        \r\n        // Calculate payout\r\n        uint256 payout = (shares * currentPrice) / 10000;\r\n        require(market.liquidity[outcome] >= payout, \"Insufficient market liquidity\");\r\n        require(market.shares[outcome] >= shares, \"Insufficient market shares\");\r\n        \r\n        // Update liquidity (selling decreases selected option's liquidity)\r\n        market.liquidity[outcome] -= payout;\r\n        market.totalLiquidity -= payout;\r\n        market.shares[outcome] -= shares;\r\n        \r\n        // Update user position\r\n        position.shares -= shares;\r\n        position.totalInvested -= (payout * position.totalInvested) / (position.shares + shares);\r\n        \r\n        // Deduct from claim prediction wins pool when user sells (pool was credited on buy)\r\n        require(claimPredictionWinsPool >= payout, \"Insufficient claim pool\");\r\n        claimPredictionWinsPool -= payout;\r\n        \r\n        usdc.safeTransfer(msg.sender, payout);\r\n        \r\n        emit MarketSold(marketId, msg.sender, outcome, shares, payout);\r\n    }\r\n    \r\n    /**\r\n     * @dev Claim market winnings after resolution\r\n     */\r\n    function claimMarket(uint256 marketId, string memory outcome) external validMarket(marketId) nonReentrant {\r\n        Market storage market = markets[marketId];\r\n        require(market.resolved, \"Market not resolved\");\r\n        require(keccak256(bytes(market.winningOption)) == keccak256(bytes(outcome)), \"Not winning outcome\");\r\n        \r\n        MarketPosition storage position = marketPositions[marketId][msg.sender][outcome];\r\n        require(position.user == msg.sender, \"No position found\");\r\n        require(position.shares > 0, \"No shares to claim\");\r\n        \r\n        // Calculate claimable amount (backend will set this)\r\n        uint256 claimable = claimableBalances[marketId][msg.sender];\r\n        require(claimable > 0, \"No claimable balance\");\r\n        require(claimPredictionWinsPool >= claimable, \"Insufficient claim pool\");\r\n        \r\n        claimableBalances[marketId][msg.sender] = 0;\r\n        claimPredictionWinsPool -= claimable;\r\n        \r\n        usdc.safeTransfer(msg.sender, claimable);\r\n        \r\n        emit MarketClaimed(marketId, msg.sender, outcome, claimable);\r\n    }\r\n    \r\n    /**\r\n     * @dev Get current price for an option (in basis points)\r\n     */\r\n    function getPrice(uint256 marketId, string memory outcome) external view validMarket(marketId) returns (uint256) {\r\n        Market storage market = markets[marketId];\r\n        if (market.totalLiquidity == 0) {\r\n            return (10000 / market.options.length);\r\n        }\r\n        return (market.liquidity[outcome] * 10000) / market.totalLiquidity;\r\n    }\r\n    \r\n    /**\r\n     * @dev Get user's market position\r\n     */\r\n    function getUserPosition(uint256 marketId, address user, string memory outcome) external view validMarket(marketId) returns (uint256 shares, uint256 totalInvested) {\r\n        MarketPosition storage position = marketPositions[marketId][user][outcome];\r\n        return (position.shares, position.totalInvested);\r\n    }\r\n    \r\n    /**\r\n     * @dev Get user's boost prediction\r\n     */\r\n    function getBoostPrediction(uint256 marketId, address user, string memory outcome) external view validMarket(marketId) returns (\r\n        address _user,\r\n        uint256 _totalStake,\r\n        bool _claimed\r\n    ) {\r\n        BoostPrediction storage prediction = boostPredictions[marketId][user][outcome];\r\n        return (prediction.user, prediction.totalStake, prediction.claimed);\r\n    }\r\n    \r\n    /**\r\n     * @dev Fund jackpot pool (deployer only). Transfers USDC into contract jackpotPool.\r\n     */\r\n    function fundJackpotPool(uint256 amount) external onlyDeployer {\r\n        require(amount > 0, \"Amount must be greater than 0\");\r\n        usdc.safeTransferFrom(msg.sender, address(this), amount);\r\n        jackpotPool += amount;\r\n        emit JackpotFunded(amount);\r\n    }\r\n\r\n    /**\r\n     * @dev User jackpot payout — signature required (withdrawJackpot without auth removed).\r\n     */\r\n    function setJackpotBalance(address user, uint256 amount) external onlyAdmin {\r\n        jackpotBalances[user] = amount;\r\n    }\r\n\r\n    /**\r\n     * @dev Batch-set on-chain jackpot balances after resolve (gas-efficient sync with off-chain ledger).\r\n     */\r\n    function batchSetJackpotBalances(address[] calldata users, uint256[] calldata amounts) external onlyAdmin {\r\n        require(users.length == amounts.length, \"Length mismatch\");\r\n        for (uint256 i = 0; i < users.length; i++) {\r\n            jackpotBalances[users[i]] = amounts[i];\r\n        }\r\n    }\r\n    \r\n    /**\r\n     * @dev Withdraw from jackpot pool (deployer only)\r\n     */\r\n    function withdrawFromJackpotPool(address payable to, uint256 amount) external onlyDeployer nonReentrant {\r\n        require(to != address(0), \"Invalid recipient\");\r\n        require(to != address(this), \"Cannot send to contract\");\r\n        require(amount > 0, \"Amount must be greater than 0\");\r\n        require(jackpotPool >= amount, \"Insufficient pool balance\");\r\n        jackpotPool -= amount;\r\n        usdc.safeTransfer(to, amount);\r\n\r\n        emit JackpotPoolWithdrawn(to, amount);\r\n    }\r\n    \r\n    /**\r\n     * @dev Get contract balance\r\n     */\r\n    function getContractBalance() external view returns (uint256) {\r\n        return usdc.balanceOf(address(this));\r\n    }\r\n    \r\n    /**\r\n     * @dev Transfer surplus USDC (above claim pool + jackpot + user vault liabilities).\r\n     *      Callable by deployer or superAdmin. For full contract drain before upgrade, use\r\n     *      `migrateAllFundsForUpgrade`.\r\n     */\r\n    function transferFunds(address payable to, uint256 amount) external onlySuperAdmin nonReentrant {\r\n        require(to != address(0), \"Invalid recipient\");\r\n        require(to != address(this), \"Cannot send to contract\");\r\n        require(amount > 0, \"Amount must be greater than 0\");\r\n        uint256 balance = usdc.balanceOf(address(this));\r\n        uint256 minReserve = claimPredictionWinsPool + jackpotPool + totalTradingVaultLiabilities;\r\n        require(balance >= amount, \"Insufficient balance\");\r\n        require(balance - amount >= minReserve, \"Cannot withdraw user or pool reserves\");\r\n        usdc.safeTransfer(to, amount);\r\n\r\n        emit FundsTransferred(to, amount);\r\n    }\r\n\r\n    /**\r\n     * @dev Withdraw **all** USDC for contract upgrade / migration. Resets on-chain pool and vault\r\n     *      liability counters (per-user `tradingVaultBalances` mappings are not iterated).\r\n     *      Only use when deprecating this contract — users must claim on the new deployment.\r\n     *      Callable by deployer or superAdmin.\r\n     */\r\n    function migrateAllFundsForUpgrade(address payable to) external onlySuperAdmin nonReentrant {\r\n        require(to != address(0), \"Invalid recipient\");\r\n        require(to != address(this), \"Cannot send to contract\");\r\n        uint256 balance = usdc.balanceOf(address(this));\r\n        require(balance > 0, \"No USDC to migrate\");\r\n\r\n        claimPredictionWinsPool = 0;\r\n        jackpotPool = 0;\r\n        totalTradingVaultLiabilities = 0;\r\n\r\n        usdc.safeTransfer(to, balance);\r\n        emit ContractMigratedForUpgrade(to, balance);\r\n    }\r\n    \r\n    /**\r\n     * @dev Set superAdmin address\r\n     */\r\n    function setSuperAdmin(address _superAdmin) external onlyDeployer {\r\n        require(_superAdmin != address(0), \"Invalid address\");\r\n        superAdmin = _superAdmin;\r\n    }\r\n\r\n    /**\r\n     * @dev Manage on-chain admins (deployer only).\r\n     * Admins can operate Admin-page contract functions (resolve/update markets, set claimables, set jackpot balances).\r\n     */\r\n    function setAdmin(address admin, bool enabled) external onlyDeployer {\r\n        require(admin != address(0), \"Invalid address\");\r\n        admins[admin] = enabled;\r\n    }\r\n    \r\n    /**\r\n     * @dev Get jackpot balance for user\r\n     */\r\n    function getJackpotBalance(address user) external view returns (uint256) {\r\n        return jackpotBalances[user];\r\n    }\r\n    \r\n    /**\r\n     * @dev Get claimable balance for user\r\n     */\r\n    function getClaimableBalance(uint256 marketId, address user) external view returns (uint256) {\r\n        return claimableBalances[marketId][user];\r\n    }\r\n\r\n    // --- Orderbook / trading vault (backend matching + admin settlement) ---\r\n\r\n    /**\r\n     * @dev User deposits USDC into the trading vault (custody) for orderbook flow.\r\n     */\r\n    function depositTradingVault(uint256 amount) external nonReentrant {\r\n        require(amount > 0, \"Amount must be greater than 0\");\r\n        usdc.safeTransferFrom(msg.sender, address(this), amount);\r\n        _applyVaultDelta(msg.sender, int256(amount));\r\n        emit TradingVaultDeposited(msg.sender, amount);\r\n    }\r\n\r\n    /**\r\n     * @dev Withdraw from trading vault using the same EIP-191 signer pattern as jackpot withdraw.\r\n     * Backend authorizes amount (must not exceed off-chain computed withdrawable).\r\n     */\r\n    function withdrawTradingVaultWithAuth(\r\n        uint256 amount,\r\n        bytes32 nonce,\r\n        uint256 deadline,\r\n        bytes calldata signature\r\n    ) external nonReentrant {\r\n        require(claimAuthSigner != address(0), \"Claim signer not set\");\r\n        require(block.timestamp <= deadline, \"Expired\");\r\n        require(amount > 0, \"Zero amount\");\r\n        require(!usedTradingVaultWithdrawNonces[nonce], \"Nonce used\");\r\n\r\n        bytes32 messageHash = keccak256(\r\n            abi.encodePacked(msg.sender, amount, nonce, deadline, block.chainid, address(this), uint256(1))\r\n        );\r\n        address recovered = _recoverAuthSigner(messageHash, signature);\r\n        require(recovered != address(0) && recovered == claimAuthSigner, \"Invalid signature\");\r\n\r\n        require(tradingVaultBalances[msg.sender] >= amount, \"Insufficient vault\");\r\n        usedTradingVaultWithdrawNonces[nonce] = true;\r\n        _applyVaultDelta(msg.sender, -int256(amount));\r\n        usdc.safeTransfer(msg.sender, amount);\r\n        emit TradingVaultWithdrawn(msg.sender, amount);\r\n    }\r\n\r\n    struct OrderbookLiquidityRow {\r\n        string option;\r\n        uint256 yesAmount;\r\n        uint256 noAmount;\r\n    }\r\n\r\n    /**\r\n     * @dev Single USDC pull; credits YES/NO pools per outcome (on-chain reference + settlement accounting).\r\n     */\r\n    function batchAddOrderbookLiquidity(uint256 marketId, OrderbookLiquidityRow[] calldata rows)\r\n        external\r\n        onlyAdmin\r\n        validMarket(marketId)\r\n    {\r\n        Market storage market = markets[marketId];\r\n        require(market.status == MarketStatus.Upcoming || market.status == MarketStatus.Active, \"Market not active\");\r\n\r\n        uint256 total = 0;\r\n        for (uint256 i = 0; i < rows.length; i++) {\r\n            total += rows[i].yesAmount + rows[i].noAmount;\r\n        }\r\n        require(total > 0, \"Zero total\");\r\n\r\n        usdc.safeTransferFrom(msg.sender, address(this), total);\r\n\r\n        for (uint256 i = 0; i < rows.length; i++) {\r\n            string memory opt = rows[i].option;\r\n            require(_marketHasOption(marketId, opt), \"Invalid option\");\r\n            if (rows[i].yesAmount > 0) {\r\n                orderbookLiquidityYes[marketId][opt] += rows[i].yesAmount;\r\n            }\r\n            if (rows[i].noAmount > 0) {\r\n                orderbookLiquidityNo[marketId][opt] += rows[i].noAmount;\r\n            }\r\n        }\r\n\r\n        emit OrderbookLiquidityBatchAdded(marketId, total);\r\n    }\r\n\r\n    struct OrderbookSettlementLeg {\r\n        address user;\r\n        string positionKey;\r\n        int256 vaultDelta;\r\n        int256 sharesDelta;\r\n        int256 investedDelta;\r\n    }\r\n\r\n    /**\r\n     * @dev Apply batched vault + position updates after off-chain matching.\r\n     *      Platform fee share credits `claimPredictionWinsPool`; free-jackpot fee share credits `jackpotPool` (same split as superadmin Settings).\r\n     * Conservation: sum(vaultDelta) + feeToClaimPool + feeToJackpotPool == 0 (USDC units).\r\n     */\r\n    function applyOrderbookSettlements(\r\n        uint256 marketId,\r\n        OrderbookSettlementLeg[] calldata legs,\r\n        uint256 feeToClaimPool,\r\n        uint256 feeToJackpotPool\r\n    ) external onlyAdmin validMarket(marketId) nonReentrant {\r\n        Market storage market = markets[marketId];\r\n        require(market.status == MarketStatus.Upcoming || market.status == MarketStatus.Active, \"Market not active\");\r\n\r\n        int256 netFromVaults = 0;\r\n        for (uint256 i = 0; i < legs.length; i++) {\r\n            address u = legs[i].user;\r\n            require(u != address(0), \"Zero user\");\r\n            _applyVaultDelta(u, legs[i].vaultDelta);\r\n            netFromVaults += legs[i].vaultDelta;\r\n            if (legs[i].sharesDelta != 0 || legs[i].investedDelta != 0) {\r\n                _applyShareDelta(marketId, u, legs[i].positionKey, legs[i].sharesDelta, legs[i].investedDelta);\r\n            }\r\n        }\r\n\r\n        uint256 totalFees = feeToClaimPool + feeToJackpotPool;\r\n        require(netFromVaults + int256(totalFees) == 0, \"Settlement imbalance\");\r\n        if (feeToClaimPool > 0) {\r\n            claimPredictionWinsPool += feeToClaimPool;\r\n        }\r\n        if (feeToJackpotPool > 0) {\r\n            jackpotPool += feeToJackpotPool;\r\n        }\r\n\r\n        emit OrderbookSettlementsApplied(marketId, legs.length, feeToClaimPool, feeToJackpotPool);\r\n    }\r\n\r\n    /**\r\n     * @dev After market resolution: sweep remaining trading-vault collateral for this market into\r\n     *      `claimPredictionWinsPool` and clear on-chain positions so users cannot withdraw vault\r\n     *      funds that belong in the claim pool (prevents double payout with claimOrderbookPositionWithAuth).\r\n     *      Conservation: sum(vaultDelta) + collateralToClaimPool == 0.\r\n     */\r\n    function finalizeResolvedMarketSettlements(\r\n        uint256 marketId,\r\n        OrderbookSettlementLeg[] calldata legs,\r\n        uint256 collateralToClaimPool\r\n    ) external onlyAdmin validMarket(marketId) nonReentrant {\r\n        Market storage market = markets[marketId];\r\n        require(market.resolved, \"Market not resolved\");\r\n\r\n        int256 netFromVaults = 0;\r\n        for (uint256 i = 0; i < legs.length; i++) {\r\n            address u = legs[i].user;\r\n            require(u != address(0), \"Zero user\");\r\n            _applyVaultDelta(u, legs[i].vaultDelta);\r\n            netFromVaults += legs[i].vaultDelta;\r\n            if (legs[i].sharesDelta != 0 || legs[i].investedDelta != 0) {\r\n                _applyShareDelta(marketId, u, legs[i].positionKey, legs[i].sharesDelta, legs[i].investedDelta);\r\n            }\r\n        }\r\n\r\n        require(netFromVaults + int256(collateralToClaimPool) == 0, \"Finalize imbalance\");\r\n        if (collateralToClaimPool > 0) {\r\n            claimPredictionWinsPool += collateralToClaimPool;\r\n        }\r\n\r\n        emit OrderbookSettlementsApplied(marketId, legs.length, collateralToClaimPool, 0);\r\n    }\r\n\r\n    /**\r\n     * @dev USDC held by this contract and internal pool balances (for super-admin treasury view).\r\n     */\r\n    function getTreasurySnapshot()\r\n        external\r\n        view\r\n        returns (\r\n            uint256 usdcBalance,\r\n            uint256 claimPoolBalance,\r\n            uint256 jackpotPoolBalance,\r\n            uint256 tradingVaultLiabilities,\r\n            uint256 maxRoutineTransfer\r\n        )\r\n    {\r\n        usdcBalance = usdc.balanceOf(address(this));\r\n        claimPoolBalance = claimPredictionWinsPool;\r\n        jackpotPoolBalance = jackpotPool;\r\n        tradingVaultLiabilities = totalTradingVaultLiabilities;\r\n        uint256 minReserve = claimPredictionWinsPool + jackpotPool + totalTradingVaultLiabilities;\r\n        maxRoutineTransfer = usdcBalance > minReserve ? usdcBalance - minReserve : 0;\r\n    }\r\n\r\n    /**\r\n     * @dev Claim resolved orderbook position: eligibility and payout amount are enforced off-chain via signature.\r\n     */\r\n    function claimOrderbookPositionWithAuth(\r\n        uint256 marketId,\r\n        uint256 amount,\r\n        string calldata positionKey,\r\n        bytes32 predictionId,\r\n        uint256 deadline,\r\n        bytes calldata signature\r\n    ) external validMarket(marketId) nonReentrant {\r\n        require(claimAuthSigner != address(0), \"Claim signer not set\");\r\n        require(block.timestamp <= deadline, \"Expired\");\r\n        require(amount > 0, \"Zero amount\");\r\n\r\n        bytes32 authKey = keccak256(abi.encodePacked(msg.sender, predictionId, uint256(2)));\r\n        require(!usedOrderbookClaimKeys[authKey], \"Already claimed\");\r\n\r\n        bytes32 messageHash = keccak256(\r\n            abi.encodePacked(\r\n                msg.sender,\r\n                marketId,\r\n                amount,\r\n                positionKey,\r\n                predictionId,\r\n                deadline,\r\n                block.chainid,\r\n                address(this),\r\n                uint256(3)\r\n            )\r\n        );\r\n        address recovered = _recoverAuthSigner(messageHash, signature);\r\n        require(recovered != address(0) && recovered == claimAuthSigner, \"Invalid signature\");\r\n\r\n        require(markets[marketId].resolved, \"Market not resolved\");\r\n\r\n        MarketPosition storage pos = marketPositions[marketId][msg.sender][positionKey];\r\n        // Payout is authorized only by `claimAuthSigner` (replay-safe via `usedOrderbookClaimKeys`).\r\n        // Clear on-chain ledger when it exists; allow claims when settlement never wrote shares on-chain\r\n        // (off-chain book + backend payout) so winners still receive from `claimPredictionWinsPool`.\r\n        if (pos.user == msg.sender && pos.shares > 0) {\r\n            pos.shares = 0;\r\n            pos.totalInvested = 0;\r\n        }\r\n\r\n        require(claimPredictionWinsPool >= amount, \"Insufficient claim pool\");\r\n        usedOrderbookClaimKeys[authKey] = true;\r\n        claimPredictionWinsPool -= amount;\r\n        usdc.safeTransfer(msg.sender, amount);\r\n\r\n        emit OrderbookPositionClaimed(marketId, msg.sender, positionKey, amount);\r\n    }\r\n    \r\n    // No receive/fallback: this contract is ERC20-based (USDC), not native ETH.\r\n}\r\n",
  "sourcePath": "C:\\Users\\HELLO\\Desktop\\startups\\SaveWRG\\smart-contracts\\contracts\\WeRgame.sol",
  "compiler": {
    "name": "solc",
    "version": "0.8.24+commit.e11b9ed9.Emscripten.clang"
  },
  "schemaVersion": "3.4.16",
  "updatedAt": "2026-07-04T02:04:54.547Z",
  "devdoc": {
    "details": "Comprehensive smart contract for prediction market platform Handles market creation, trading, boost predictions, and jackpot management",
    "errors": {
      "ECDSAInvalidSignature()": [
        {
          "details": "The signature is invalid."
        }
      ],
      "ECDSAInvalidSignatureLength(uint256)": [
        {
          "details": "The signature has an invalid length."
        }
      ],
      "ECDSAInvalidSignatureS(bytes32)": [
        {
          "details": "The signature has an S value that is in the upper half order."
        }
      ],
      "ReentrancyGuardReentrantCall()": [
        {
          "details": "Unauthorized reentrant call."
        }
      ],
      "SafeERC20FailedOperation(address)": [
        {
          "details": "An operation with an ERC-20 token failed."
        }
      ]
    },
    "kind": "dev",
    "methods": {
      "addBoostStake(uint256,string,uint256)": {
        "details": "Add more stake to existing boost prediction"
      },
      "addLiquidity(uint256,string,uint256)": {
        "details": "Add initial liquidity to a market option"
      },
      "applyOrderbookSettlements(uint256,(address,string,int256,int256,int256)[],uint256,uint256)": {
        "details": "Apply batched vault + position updates after off-chain matching.      Platform fee share credits `claimPredictionWinsPool`; free-jackpot fee share credits `jackpotPool` (same split as superadmin Settings). Conservation: sum(vaultDelta) + feeToClaimPool + feeToJackpotPool == 0 (USDC units)."
      },
      "batchAddOrderbookLiquidity(uint256,(string,uint256,uint256)[])": {
        "details": "Single USDC pull; credits YES/NO pools per outcome (on-chain reference + settlement accounting)."
      },
      "batchSetJackpotBalances(address[],uint256[])": {
        "details": "Batch-set on-chain jackpot balances after resolve (gas-efficient sync with off-chain ledger)."
      },
      "buyMarketShares(uint256,string,uint256)": {
        "details": "Buy shares in market (fixed-sum AMM)"
      },
      "claimMarket(uint256,string)": {
        "details": "Claim market winnings after resolution"
      },
      "claimOrderbookPositionWithAuth(uint256,uint256,string,bytes32,uint256,bytes)": {
        "details": "Claim resolved orderbook position: eligibility and payout amount are enforced off-chain via signature."
      },
      "claimPredictionWinsWithAuth(uint256,bool,uint256,bytes32,uint256,bytes)": {
        "details": "Claim boost or market winnings using a signature from `claimAuthSigner`. Unsigned claimPredictionWins() removed — all user payouts require backend authorization."
      },
      "createMarket(bool,string[])": {
        "details": "Create a new market (match or poll)",
        "params": {
          "isPoll": "true if poll, false if match",
          "options": "array of outcome options"
        }
      },
      "depositTradingVault(uint256)": {
        "details": "User deposits USDC into the trading vault (custody) for orderbook flow."
      },
      "finalizeResolvedMarketSettlements(uint256,(address,string,int256,int256,int256)[],uint256)": {
        "details": "After market resolution: sweep remaining trading-vault collateral for this market into      `claimPredictionWinsPool` and clear on-chain positions so users cannot withdraw vault      funds that belong in the claim pool (prevents double payout with claimOrderbookPositionWithAuth).      Conservation: sum(vaultDelta) + collateralToClaimPool == 0."
      },
      "fundClaimPredictionWinsPool(uint256)": {
        "details": "Fund the claim prediction wins pool (super admin or deployer)."
      },
      "fundJackpotPool(uint256)": {
        "details": "Fund jackpot pool (deployer only). Transfers USDC into contract jackpotPool."
      },
      "getBoostPrediction(uint256,address,string)": {
        "details": "Get user's boost prediction"
      },
      "getClaimableBalance(uint256,address)": {
        "details": "Get claimable balance for user"
      },
      "getContractBalance()": {
        "details": "Get contract balance"
      },
      "getFees()": {
        "details": "Get current fees"
      },
      "getJackpotBalance(address)": {
        "details": "Get jackpot balance for user"
      },
      "getMarketOptions(uint256)": {
        "details": "Get options for a market (so frontend can validate outcome before staking)"
      },
      "getPrice(uint256,string)": {
        "details": "Get current price for an option (in basis points)"
      },
      "getTreasurySnapshot()": {
        "details": "USDC held by this contract and internal pool balances (for super-admin treasury view)."
      },
      "getUserPosition(uint256,address,string)": {
        "details": "Get user's market position"
      },
      "migrateAllFundsForUpgrade(address)": {
        "details": "Withdraw **all** USDC for contract upgrade / migration. Resets on-chain pool and vault      liability counters (per-user `tradingVaultBalances` mappings are not iterated).      Only use when deprecating this contract — users must claim on the new deployment.      Callable by deployer or superAdmin."
      },
      "resolveMarket(uint256,string)": {
        "details": "Resolve a market"
      },
      "sellMarketShares(uint256,string,uint256)": {
        "details": "Sell shares in market"
      },
      "setAdmin(address,bool)": {
        "details": "Manage on-chain admins (deployer only). Admins can operate Admin-page contract functions (resolve/update markets, set claimables, set jackpot balances)."
      },
      "setClaimAuthSigner(address)": {
        "details": "Set wallet whose signatures authorize user claims (off-chain payout amount). Use the same key as CLAIM_AUTH_PRIVATE_KEY on the API."
      },
      "setClaimableBalance(uint256,address,uint256)": {
        "details": "Set claimable balance for a user (legacy admin bookkeeping; not used for user claims)."
      },
      "setClaimableBoost(uint256,address,uint256)": {
        "details": "Set claimable boost amount for a user (called after resolution)."
      },
      "setClaimableMarket(uint256,address,uint256)": {
        "details": "Set claimable market amount for a user (admin bookkeeping after resolve; claims use WithAuth)."
      },
      "setJackpotBalance(address,uint256)": {
        "details": "User jackpot payout — signature required (withdrawJackpot without auth removed)."
      },
      "setSuperAdmin(address)": {
        "details": "Set superAdmin address"
      },
      "stakeBoost(uint256,string,uint256)": {
        "details": "Stake USDC for boost prediction. Net stake + platform fee fund `claimPredictionWinsPool`      (same pool `claimPredictionWinsWithAuth` pays from); jackpot fee funds `jackpotPool`."
      },
      "transferFunds(address,uint256)": {
        "details": "Transfer surplus USDC (above claim pool + jackpot + user vault liabilities).      Callable by deployer or superAdmin. For full contract drain before upgrade, use      `migrateAllFundsForUpgrade`."
      },
      "updateMarketStatus(uint256,uint8)": {
        "details": "Update market status"
      },
      "withdrawBoostStake(uint256,string,uint256)": {
        "details": "Withdraw stake from boost prediction (only before resolution)"
      },
      "withdrawFromClaimPredictionWinsPool(address,uint256)": {
        "details": "Withdraw from claim prediction wins pool (deployer only)."
      },
      "withdrawFromJackpotPool(address,uint256)": {
        "details": "Withdraw from jackpot pool (deployer only)"
      },
      "withdrawJackpotWithAuth(uint256,bytes32,uint256,bytes)": {
        "details": "Withdraw from jackpot pool using a signature from `claimAuthSigner`. Enforces per-user on-chain `jackpotBalances` (synced from admin/backend on resolve)."
      },
      "withdrawTradingVaultWithAuth(uint256,bytes32,uint256,bytes)": {
        "details": "Withdraw from trading vault using the same EIP-191 signer pattern as jackpot withdraw. Backend authorizes amount (must not exceed off-chain computed withdrawable)."
      }
    },
    "stateVariables": {
      "claimPredictionWinsPool": {
        "details": "Pool for paying Boost and Market prediction wins; funded by deployer and by boost stakes"
      }
    },
    "title": "WeRgame",
    "version": 1
  },
  "userdoc": {
    "kind": "user",
    "methods": {
      "claimAuthSigner()": {
        "notice": "Backend / ops wallet that signs authorized claims (set by deployer)"
      },
      "orderbookLiquidityYes(uint256,string)": {
        "notice": "On-chain reference liquidity for YES/NO books per outcome option (USDC units)"
      },
      "totalTradingVaultLiabilities()": {
        "notice": "Sum of all tradingVaultBalances — used to prevent superAdmin draining user vault collateral"
      },
      "tradingVaultBalances(address)": {
        "notice": "USDC credited to users for orderbook trading (deposit / settlement)"
      },
      "usdc()": {
        "notice": "Platform currency token (Base USDC). All pools and payouts are denominated in this token."
      },
      "usedAuthPredictionClaims(bytes32)": {
        "notice": "Replay protection for signature-based prediction claims"
      },
      "usedJackpotWithdrawNonces(bytes32)": {
        "notice": "Replay protection for signature-based jackpot withdrawals"
      },
      "usedOrderbookClaimKeys(bytes32)": {
        "notice": "Replay for orderbook position claims (separate from boost/market auth key space)"
      }
    },
    "version": 1
  }
}