{
  "contractName": "WeRgame",
  "abi": [
    {
      "inputs": [
        {
          "internalType": "address",
          "name": "usdcToken",
          "type": "address"
        }
      ],
      "stateMutability": "nonpayable",
      "type": "constructor"
    },
    {
      "inputs": [],
      "name": "ECDSAInvalidSignature",
      "type": "error"
    },
    {
      "inputs": [
        {
          "internalType": "uint256",
          "name": "length",
          "type": "uint256"
        }
      ],
      "name": "ECDSAInvalidSignatureLength",
      "type": "error"
    },
    {
      "inputs": [
        {
          "internalType": "bytes32",
          "name": "s",
          "type": "bytes32"
        }
      ],
      "name": "ECDSAInvalidSignatureS",
      "type": "error"
    },
    {
      "inputs": [],
      "name": "ReentrancyGuardReentrantCall",
      "type": "error"
    },
    {
      "inputs": [
        {
          "internalType": "address",
          "name": "token",
          "type": "address"
        }
      ],
      "name": "SafeERC20FailedOperation",
      "type": "error"
    },
    {
      "anonymous": false,
      "inputs": [
        {
          "indexed": true,
          "internalType": "uint256",
          "name": "marketId",
          "type": "uint256"
        },
        {
          "indexed": true,
          "internalType": "address",
          "name": "user",
          "type": "address"
        },
        {
          "indexed": false,
          "internalType": "uint256",
          "name": "amount",
          "type": "uint256"
        }
      ],
      "name": "BoostClaimed",
      "type": "event"
    },
    {
      "anonymous": false,
      "inputs": [
        {
          "indexed": true,
          "internalType": "uint256",
          "name": "marketId",
          "type": "uint256"
        },
        {
          "indexed": true,
          "internalType": "address",
          "name": "user",
          "type": "address"
        },
        {
          "indexed": false,
          "internalType": "uint256",
          "name": "amount",
          "type": "uint256"
        }
      ],
      "name": "BoostStakeAdded",
      "type": "event"
    },
    {
      "anonymous": false,
      "inputs": [
        {
          "indexed": true,
          "internalType": "uint256",
          "name": "marketId",
          "type": "uint256"
        },
        {
          "indexed": true,
          "internalType": "address",
          "name": "user",
          "type": "address"
        },
        {
          "indexed": false,
          "internalType": "uint256",
          "name": "amount",
          "type": "uint256"
        }
      ],
      "name": "BoostStakeWithdrawn",
      "type": "event"
    },
    {
      "anonymous": false,
      "inputs": [
        {
          "indexed": true,
          "internalType": "uint256",
          "name": "marketId",
          "type": "uint256"
        },
        {
          "indexed": true,
          "internalType": "address",
          "name": "user",
          "type": "address"
        },
        {
          "indexed": false,
          "internalType": "string",
          "name": "outcome",
          "type": "string"
        },
        {
          "indexed": false,
          "internalType": "uint256",
          "name": "amount",
          "type": "uint256"
        }
      ],
      "name": "BoostStaked",
      "type": "event"
    },
    {
      "anonymous": false,
      "inputs": [
        {
          "indexed": false,
          "internalType": "uint256",
          "name": "amount",
          "type": "uint256"
        }
      ],
      "name": "ClaimPredictionWinsPoolFunded",
      "type": "event"
    },
    {
      "anonymous": false,
      "inputs": [
        {
          "indexed": true,
          "internalType": "address",
          "name": "to",
          "type": "address"
        },
        {
          "indexed": false,
          "internalType": "uint256",
          "name": "amount",
          "type": "uint256"
        }
      ],
      "name": "ClaimPredictionWinsPoolWithdrawn",
      "type": "event"
    },
    {
      "anonymous": false,
      "inputs": [
        {
          "indexed": true,
          "internalType": "address",
          "name": "to",
          "type": "address"
        },
        {
          "indexed": false,
          "internalType": "uint256",
          "name": "amount",
          "type": "uint256"
        }
      ],
      "name": "ContractMigratedForUpgrade",
      "type": "event"
    },
    {
      "anonymous": false,
      "inputs": [
        {
          "indexed": false,
          "internalType": "uint256",
          "name": "platformFee",
          "type": "uint256"
        },
        {
          "indexed": false,
          "internalType": "uint256",
          "name": "boostJackpotFee",
          "type": "uint256"
        },
        {
          "indexed": false,
          "internalType": "uint256",
          "name": "marketPlatformFee",
          "type": "uint256"
        },
        {
          "indexed": false,
          "internalType": "uint256",
          "name": "freeJackpotFee",
          "type": "uint256"
        }
      ],
      "name": "FeesUpdated",
      "type": "event"
    },
    {
      "anonymous": false,
      "inputs": [
        {
          "indexed": true,
          "internalType": "address",
          "name": "to",
          "type": "address"
        },
        {
          "indexed": false,
          "internalType": "uint256",
          "name": "amount",
          "type": "uint256"
        }
      ],
      "name": "FundsTransferred",
      "type": "event"
    },
    {
      "anonymous": false,
      "inputs": [
        {
          "indexed": false,
          "internalType": "uint256",
          "name": "amount",
          "type": "uint256"
        }
      ],
      "name": "JackpotFunded",
      "type": "event"
    },
    {
      "anonymous": false,
      "inputs": [
        {
          "indexed": true,
          "internalType": "address",
          "name": "to",
          "type": "address"
        },
        {
          "indexed": false,
          "internalType": "uint256",
          "name": "amount",
          "type": "uint256"
        }
      ],
      "name": "JackpotPoolWithdrawn",
      "type": "event"
    },
    {
      "anonymous": false,
      "inputs": [
        {
          "indexed": true,
          "internalType": "address",
          "name": "user",
          "type": "address"
        },
        {
          "indexed": false,
          "internalType": "uint256",
          "name": "amount",
          "type": "uint256"
        }
      ],
      "name": "JackpotWithdrawn",
      "type": "event"
    },
    {
      "anonymous": false,
      "inputs": [
        {
          "indexed": true,
          "internalType": "uint256",
          "name": "marketId",
          "type": "uint256"
        },
        {
          "indexed": false,
          "internalType": "string",
          "name": "option",
          "type": "string"
        },
        {
          "indexed": false,
          "internalType": "uint256",
          "name": "amount",
          "type": "uint256"
        }
      ],
      "name": "LiquidityAdded",
      "type": "event"
    },
    {
      "anonymous": false,
      "inputs": [
        {
          "indexed": true,
          "internalType": "uint256",
          "name": "marketId",
          "type": "uint256"
        },
        {
          "indexed": true,
          "internalType": "address",
          "name": "user",
          "type": "address"
        },
        {
          "indexed": false,
          "internalType": "string",
          "name": "outcome",
          "type": "string"
        },
        {
          "indexed": false,
          "internalType": "uint256",
          "name": "ethAmount",
          "type": "uint256"
        },
        {
          "indexed": false,
          "internalType": "uint256",
          "name": "shares",
          "type": "uint256"
        }
      ],
      "name": "MarketBought",
      "type": "event"
    },
    {
      "anonymous": false,
      "inputs": [
        {
          "indexed": true,
          "internalType": "uint256",
          "name": "marketId",
          "type": "uint256"
        },
        {
          "indexed": true,
          "internalType": "address",
          "name": "user",
          "type": "address"
        },
        {
          "indexed": false,
          "internalType": "string",
          "name": "outcome",
          "type": "string"
        },
        {
          "indexed": false,
          "internalType": "uint256",
          "name": "amount",
          "type": "uint256"
        }
      ],
      "name": "MarketClaimed",
      "type": "event"
    },
    {
      "anonymous": false,
      "inputs": [
        {
          "indexed": true,
          "internalType": "uint256",
          "name": "marketId",
          "type": "uint256"
        },
        {
          "indexed": false,
          "internalType": "bool",
          "name": "isPoll",
          "type": "bool"
        },
        {
          "indexed": false,
          "internalType": "string[]",
          "name": "options",
          "type": "string[]"
        }
      ],
      "name": "MarketCreated",
      "type": "event"
    },
    {
      "anonymous": false,
      "inputs": [
        {
          "indexed": true,
          "internalType": "uint256",
          "name": "marketId",
          "type": "uint256"
        },
        {
          "indexed": false,
          "internalType": "string",
          "name": "winningOption",
          "type": "string"
        }
      ],
      "name": "MarketResolved",
      "type": "event"
    },
    {
      "anonymous": false,
      "inputs": [
        {
          "indexed": true,
          "internalType": "uint256",
          "name": "marketId",
          "type": "uint256"
        },
        {
          "indexed": true,
          "internalType": "address",
          "name": "user",
          "type": "address"
        },
        {
          "indexed": false,
          "internalType": "string",
          "name": "outcome",
          "type": "string"
        },
        {
          "indexed": false,
          "internalType": "uint256",
          "name": "shares",
          "type": "uint256"
        },
        {
          "indexed": false,
          "internalType": "uint256",
          "name": "ethAmount",
          "type": "uint256"
        }
      ],
      "name": "MarketSold",
      "type": "event"
    },
    {
      "anonymous": false,
      "inputs": [
        {
          "indexed": true,
          "internalType": "uint256",
          "name": "marketId",
          "type": "uint256"
        },
        {
          "indexed": false,
          "internalType": "enum WeRgame.MarketStatus",
          "name": "status",
          "type": "uint8"
        }
      ],
      "name": "MarketStatusUpdated",
      "type": "event"
    },
    {
      "anonymous": false,
      "inputs": [
        {
          "indexed": true,
          "internalType": "uint256",
          "name": "marketId",
          "type": "uint256"
        },
        {
          "indexed": false,
          "internalType": "uint256",
          "name": "totalAmount",
          "type": "uint256"
        }
      ],
      "name": "OrderbookLiquidityBatchAdded",
      "type": "event"
    },
    {
      "anonymous": false,
      "inputs": [
        {
          "indexed": true,
          "internalType": "uint256",
          "name": "marketId",
          "type": "uint256"
        },
        {
          "indexed": true,
          "internalType": "address",
          "name": "user",
          "type": "address"
        },
        {
          "indexed": false,
          "internalType": "string",
          "name": "positionKey",
          "type": "string"
        },
        {
          "indexed": false,
          "internalType": "uint256",
          "name": "amount",
          "type": "uint256"
        }
      ],
      "name": "OrderbookPositionClaimed",
      "type": "event"
    },
    {
      "anonymous": false,
      "inputs": [
        {
          "indexed": true,
          "internalType": "uint256",
          "name": "marketId",
          "type": "uint256"
        },
        {
          "indexed": false,
          "internalType": "uint256",
          "name": "legs",
          "type": "uint256"
        },
        {
          "indexed": false,
          "internalType": "uint256",
          "name": "feeToClaimPool",
          "type": "uint256"
        },
        {
          "indexed": false,
          "internalType": "uint256",
          "name": "feeToJackpotPool",
          "type": "uint256"
        }
      ],
      "name": "OrderbookSettlementsApplied",
      "type": "event"
    },
    {
      "anonymous": false,
      "inputs": [
        {
          "indexed": true,
          "internalType": "uint256",
          "name": "marketId",
          "type": "uint256"
        },
        {
          "indexed": true,
          "internalType": "address",
          "name": "user",
          "type": "address"
        },
        {
          "indexed": false,
          "internalType": "uint256",
          "name": "amount",
          "type": "uint256"
        }
      ],
      "name": "PredictionWinsClaimed",
      "type": "event"
    },
    {
      "anonymous": false,
      "inputs": [
        {
          "indexed": true,
          "internalType": "address",
          "name": "user",
          "type": "address"
        },
        {
          "indexed": false,
          "internalType": "uint256",
          "name": "amount",
          "type": "uint256"
        }
      ],
      "name": "TradingVaultDeposited",
      "type": "event"
    },
    {
      "anonymous": false,
      "inputs": [
        {
          "indexed": true,
          "internalType": "address",
          "name": "user",
          "type": "address"
        },
        {
          "indexed": false,
          "internalType": "uint256",
          "name": "amount",
          "type": "uint256"
        }
      ],
      "name": "TradingVaultWithdrawn",
      "type": "event"
    },
    {
      "inputs": [
        {
          "internalType": "address",
          "name": "",
          "type": "address"
        }
      ],
      "name": "admins",
      "outputs": [
        {
          "internalType": "bool",
          "name": "",
          "type": "bool"
        }
      ],
      "stateMutability": "view",
      "type": "function"
    },
    {
      "inputs": [],
      "name": "boostJackpotFee",
      "outputs": [
        {
          "internalType": "uint256",
          "name": "",
          "type": "uint256"
        }
      ],
      "stateMutability": "view",
      "type": "function"
    },
    {
      "inputs": [
        {
          "internalType": "uint256",
          "name": "",
          "type": "uint256"
        },
        {
          "internalType": "address",
          "name": "",
          "type": "address"
        },
        {
          "internalType": "string",
          "name": "",
          "type": "string"
        }
      ],
      "name": "boostPredictions",
      "outputs": [
        {
          "internalType": "address",
          "name": "user",
          "type": "address"
        },
        {
          "internalType": "uint256",
          "name": "marketId",
          "type": "uint256"
        },
        {
          "internalType": "string",
          "name": "outcome",
          "type": "string"
        },
        {
          "internalType": "uint256",
          "name": "stakeAmount",
          "type": "uint256"
        },
        {
          "internalType": "uint256",
          "name": "totalStake",
          "type": "uint256"
        },
        {
          "internalType": "bool",
          "name": "claimed",
          "type": "bool"
        }
      ],
      "stateMutability": "view",
      "type": "function"
    },
    {
      "inputs": [],
      "name": "claimAuthSigner",
      "outputs": [
        {
          "internalType": "address",
          "name": "",
          "type": "address"
        }
      ],
      "stateMutability": "view",
      "type": "function"
    },
    {
      "inputs": [],
      "name": "claimPredictionWinsPool",
      "outputs": [
        {
          "internalType": "uint256",
          "name": "",
          "type": "uint256"
        }
      ],
      "stateMutability": "view",
      "type": "function"
    },
    {
      "inputs": [
        {
          "internalType": "uint256",
          "name": "",
          "type": "uint256"
        },
        {
          "internalType": "address",
          "name": "",
          "type": "address"
        }
      ],
      "name": "claimableBalances",
      "outputs": [
        {
          "internalType": "uint256",
          "name": "",
          "type": "uint256"
        }
      ],
      "stateMutability": "view",
      "type": "function"
    },
    {
      "inputs": [
        {
          "internalType": "uint256",
          "name": "",
          "type": "uint256"
        },
        {
          "internalType": "address",
          "name": "",
          "type": "address"
        }
      ],
      "name": "claimableBoost",
      "outputs": [
        {
          "internalType": "uint256",
          "name": "",
          "type": "uint256"
        }
      ],
      "stateMutability": "view",
      "type": "function"
    },
    {
      "inputs": [
        {
          "internalType": "uint256",
          "name": "",
          "type": "uint256"
        },
        {
          "internalType": "address",
          "name": "",
          "type": "address"
        }
      ],
      "name": "claimableMarket",
      "outputs": [
        {
          "internalType": "uint256",
          "name": "",
          "type": "uint256"
        }
      ],
      "stateMutability": "view",
      "type": "function"
    },
    {
      "inputs": [],
      "name": "deployer",
      "outputs": [
        {
          "internalType": "address",
          "name": "",
          "type": "address"
        }
      ],
      "stateMutability": "view",
      "type": "function"
    },
    {
      "inputs": [],
      "name": "freeJackpotFee",
      "outputs": [
        {
          "internalType": "uint256",
          "name": "",
          "type": "uint256"
        }
      ],
      "stateMutability": "view",
      "type": "function"
    },
    {
      "inputs": [
        {
          "internalType": "address",
          "name": "",
          "type": "address"
        }
      ],
      "name": "jackpotBalances",
      "outputs": [
        {
          "internalType": "uint256",
          "name": "",
          "type": "uint256"
        }
      ],
      "stateMutability": "view",
      "type": "function"
    },
    {
      "inputs": [],
      "name": "jackpotPool",
      "outputs": [
        {
          "internalType": "uint256",
          "name": "",
          "type": "uint256"
        }
      ],
      "stateMutability": "view",
      "type": "function"
    },
    {
      "inputs": [],
      "name": "marketPlatformFee",
      "outputs": [
        {
          "internalType": "uint256",
          "name": "",
          "type": "uint256"
        }
      ],
      "stateMutability": "view",
      "type": "function"
    },
    {
      "inputs": [
        {
          "internalType": "uint256",
          "name": "",
          "type": "uint256"
        },
        {
          "internalType": "address",
          "name": "",
          "type": "address"
        },
        {
          "internalType": "string",
          "name": "",
          "type": "string"
        }
      ],
      "name": "marketPositions",
      "outputs": [
        {
          "internalType": "address",
          "name": "user",
          "type": "address"
        },
        {
          "internalType": "string",
          "name": "outcome",
          "type": "string"
        },
        {
          "internalType": "uint256",
          "name": "shares",
          "type": "uint256"
        },
        {
          "internalType": "uint256",
          "name": "totalInvested",
          "type": "uint256"
        }
      ],
      "stateMutability": "view",
      "type": "function"
    },
    {
      "inputs": [
        {
          "internalType": "uint256",
          "name": "",
          "type": "uint256"
        }
      ],
      "name": "markets",
      "outputs": [
        {
          "internalType": "uint256",
          "name": "marketId",
          "type": "uint256"
        },
        {
          "internalType": "bool",
          "name": "isPoll",
          "type": "bool"
        },
        {
          "internalType": "enum WeRgame.MarketStatus",
          "name": "status",
          "type": "uint8"
        },
        {
          "internalType": "uint256",
          "name": "totalLiquidity",
          "type": "uint256"
        },
        {
          "internalType": "bool",
          "name": "resolved",
          "type": "bool"
        },
        {
          "internalType": "string",
          "name": "winningOption",
          "type": "string"
        },
        {
          "internalType": "uint256",
          "name": "createdAt",
          "type": "uint256"
        },
        {
          "internalType": "uint256",
          "name": "resolvedAt",
          "type": "uint256"
        }
      ],
      "stateMutability": "view",
      "type": "function"
    },
    {
      "inputs": [],
      "name": "nextMarketId",
      "outputs": [
        {
          "internalType": "uint256",
          "name": "",
          "type": "uint256"
        }
      ],
      "stateMutability": "view",
      "type": "function"
    },
    {
      "inputs": [
        {
          "internalType": "uint256",
          "name": "",
          "type": "uint256"
        },
        {
          "internalType": "string",
          "name": "",
          "type": "string"
        }
      ],
      "name": "orderbookLiquidityNo",
      "outputs": [
        {
          "internalType": "uint256",
          "name": "",
          "type": "uint256"
        }
      ],
      "stateMutability": "view",
      "type": "function"
    },
    {
      "inputs": [
        {
          "internalType": "uint256",
          "name": "",
          "type": "uint256"
        },
        {
          "internalType": "string",
          "name": "",
          "type": "string"
        }
      ],
      "name": "orderbookLiquidityYes",
      "outputs": [
        {
          "internalType": "uint256",
          "name": "",
          "type": "uint256"
        }
      ],
      "stateMutability": "view",
      "type": "function"
    },
    {
      "inputs": [
        {
          "internalType": "uint256",
          "name": "",
          "type": "uint256"
        },
        {
          "internalType": "string",
          "name": "",
          "type": "string"
        }
      ],
      "name": "orderbookSharesNo",
      "outputs": [
        {
          "internalType": "uint256",
          "name": "",
          "type": "uint256"
        }
      ],
      "stateMutability": "view",
      "type": "function"
    },
    {
      "inputs": [
        {
          "internalType": "uint256",
          "name": "",
          "type": "uint256"
        },
        {
          "internalType": "string",
          "name": "",
          "type": "string"
        }
      ],
      "name": "orderbookSharesYes",
      "outputs": [
        {
          "internalType": "uint256",
          "name": "",
          "type": "uint256"
        }
      ],
      "stateMutability": "view",
      "type": "function"
    },
    {
      "inputs": [],
      "name": "platformFee",
      "outputs": [
        {
          "internalType": "uint256",
          "name": "",
          "type": "uint256"
        }
      ],
      "stateMutability": "view",
      "type": "function"
    },
    {
      "inputs": [],
      "name": "superAdmin",
      "outputs": [
        {
          "internalType": "address",
          "name": "",
          "type": "address"
        }
      ],
      "stateMutability": "view",
      "type": "function"
    },
    {
      "inputs": [],
      "name": "totalTradingVaultLiabilities",
      "outputs": [
        {
          "internalType": "uint256",
          "name": "",
          "type": "uint256"
        }
      ],
      "stateMutability": "view",
      "type": "function"
    },
    {
      "inputs": [
        {
          "internalType": "address",
          "name": "",
          "type": "address"
        }
      ],
      "name": "tradingVaultBalances",
      "outputs": [
        {
          "internalType": "uint256",
          "name": "",
          "type": "uint256"
        }
      ],
      "stateMutability": "view",
      "type": "function"
    },
    {
      "inputs": [],
      "name": "usdc",
      "outputs": [
        {
          "internalType": "contract IERC20",
          "name": "",
          "type": "address"
        }
      ],
      "stateMutability": "view",
      "type": "function"
    },
    {
      "inputs": [
        {
          "internalType": "bytes32",
          "name": "",
          "type": "bytes32"
        }
      ],
      "name": "usedAuthPredictionClaims",
      "outputs": [
        {
          "internalType": "bool",
          "name": "",
          "type": "bool"
        }
      ],
      "stateMutability": "view",
      "type": "function"
    },
    {
      "inputs": [
        {
          "internalType": "bytes32",
          "name": "",
          "type": "bytes32"
        }
      ],
      "name": "usedJackpotWithdrawNonces",
      "outputs": [
        {
          "internalType": "bool",
          "name": "",
          "type": "bool"
        }
      ],
      "stateMutability": "view",
      "type": "function"
    },
    {
      "inputs": [
        {
          "internalType": "bytes32",
          "name": "",
          "type": "bytes32"
        }
      ],
      "name": "usedOrderbookClaimKeys",
      "outputs": [
        {
          "internalType": "bool",
          "name": "",
          "type": "bool"
        }
      ],
      "stateMutability": "view",
      "type": "function"
    },
    {
      "inputs": [
        {
          "internalType": "bytes32",
          "name": "",
          "type": "bytes32"
        }
      ],
      "name": "usedTradingVaultWithdrawNonces",
      "outputs": [
        {
          "internalType": "bool",
          "name": "",
          "type": "bool"
        }
      ],
      "stateMutability": "view",
      "type": "function"
    },
    {
      "inputs": [
        {
          "internalType": "bool",
          "name": "isPoll",
          "type": "bool"
        },
        {
          "internalType": "string[]",
          "name": "options",
          "type": "string[]"
        }
      ],
      "name": "createMarket",
      "outputs": [
        {
          "internalType": "uint256",
          "name": "",
          "type": "uint256"
        }
      ],
      "stateMutability": "nonpayable",
      "type": "function"
    },
    {
      "inputs": [
        {
          "internalType": "uint256",
          "name": "marketId",
          "type": "uint256"
        },
        {
          "internalType": "enum WeRgame.MarketStatus",
          "name": "status",
          "type": "uint8"
        }
      ],
      "name": "updateMarketStatus",
      "outputs": [],
      "stateMutability": "nonpayable",
      "type": "function"
    },
    {
      "inputs": [
        {
          "internalType": "uint256",
          "name": "marketId",
          "type": "uint256"
        },
        {
          "internalType": "string",
          "name": "option",
          "type": "string"
        },
        {
          "internalType": "uint256",
          "name": "amount",
          "type": "uint256"
        }
      ],
      "name": "addLiquidity",
      "outputs": [],
      "stateMutability": "nonpayable",
      "type": "function"
    },
    {
      "inputs": [
        {
          "internalType": "uint256",
          "name": "marketId",
          "type": "uint256"
        },
        {
          "internalType": "string",
          "name": "winningOption",
          "type": "string"
        }
      ],
      "name": "resolveMarket",
      "outputs": [],
      "stateMutability": "nonpayable",
      "type": "function"
    },
    {
      "inputs": [
        {
          "internalType": "address",
          "name": "signer",
          "type": "address"
        }
      ],
      "name": "setClaimAuthSigner",
      "outputs": [],
      "stateMutability": "nonpayable",
      "type": "function"
    },
    {
      "inputs": [
        {
          "internalType": "uint256",
          "name": "_platformFee",
          "type": "uint256"
        },
        {
          "internalType": "uint256",
          "name": "_boostJackpotFee",
          "type": "uint256"
        },
        {
          "internalType": "uint256",
          "name": "_marketPlatformFee",
          "type": "uint256"
        },
        {
          "internalType": "uint256",
          "name": "_freeJackpotFee",
          "type": "uint256"
        }
      ],
      "name": "setFees",
      "outputs": [],
      "stateMutability": "nonpayable",
      "type": "function"
    },
    {
      "inputs": [],
      "name": "getFees",
      "outputs": [
        {
          "internalType": "uint256",
          "name": "_platformFee",
          "type": "uint256"
        },
        {
          "internalType": "uint256",
          "name": "_boostJackpotFee",
          "type": "uint256"
        },
        {
          "internalType": "uint256",
          "name": "_marketPlatformFee",
          "type": "uint256"
        },
        {
          "internalType": "uint256",
          "name": "_freeJackpotFee",
          "type": "uint256"
        }
      ],
      "stateMutability": "view",
      "type": "function"
    },
    {
      "inputs": [
        {
          "internalType": "uint256",
          "name": "marketId",
          "type": "uint256"
        }
      ],
      "name": "getMarketOptions",
      "outputs": [
        {
          "internalType": "string[]",
          "name": "",
          "type": "string[]"
        }
      ],
      "stateMutability": "view",
      "type": "function"
    },
    {
      "inputs": [
        {
          "internalType": "uint256",
          "name": "marketId",
          "type": "uint256"
        },
        {
          "internalType": "string",
          "name": "outcome",
          "type": "string"
        },
        {
          "internalType": "uint256",
          "name": "amount",
          "type": "uint256"
        }
      ],
      "name": "stakeBoost",
      "outputs": [],
      "stateMutability": "nonpayable",
      "type": "function"
    },
    {
      "inputs": [
        {
          "internalType": "uint256",
          "name": "marketId",
          "type": "uint256"
        },
        {
          "internalType": "string",
          "name": "outcome",
          "type": "string"
        },
        {
          "internalType": "uint256",
          "name": "amount",
          "type": "uint256"
        }
      ],
      "name": "addBoostStake",
      "outputs": [],
      "stateMutability": "nonpayable",
      "type": "function"
    },
    {
      "inputs": [
        {
          "internalType": "uint256",
          "name": "marketId",
          "type": "uint256"
        },
        {
          "internalType": "string",
          "name": "outcome",
          "type": "string"
        },
        {
          "internalType": "uint256",
          "name": "amount",
          "type": "uint256"
        }
      ],
      "name": "withdrawBoostStake",
      "outputs": [],
      "stateMutability": "nonpayable",
      "type": "function"
    },
    {
      "inputs": [
        {
          "internalType": "uint256",
          "name": "marketId",
          "type": "uint256"
        },
        {
          "internalType": "string",
          "name": "outcome",
          "type": "string"
        }
      ],
      "name": "claimBoost",
      "outputs": [],
      "stateMutability": "nonpayable",
      "type": "function"
    },
    {
      "inputs": [
        {
          "internalType": "uint256",
          "name": "marketId",
          "type": "uint256"
        },
        {
          "internalType": "address",
          "name": "user",
          "type": "address"
        },
        {
          "internalType": "uint256",
          "name": "amount",
          "type": "uint256"
        }
      ],
      "name": "setClaimableBalance",
      "outputs": [],
      "stateMutability": "nonpayable",
      "type": "function"
    },
    {
      "inputs": [
        {
          "internalType": "uint256",
          "name": "marketId",
          "type": "uint256"
        },
        {
          "internalType": "address",
          "name": "user",
          "type": "address"
        },
        {
          "internalType": "uint256",
          "name": "amount",
          "type": "uint256"
        }
      ],
      "name": "setClaimableBoost",
      "outputs": [],
      "stateMutability": "nonpayable",
      "type": "function"
    },
    {
      "inputs": [
        {
          "internalType": "uint256",
          "name": "marketId",
          "type": "uint256"
        },
        {
          "internalType": "address",
          "name": "user",
          "type": "address"
        },
        {
          "internalType": "uint256",
          "name": "amount",
          "type": "uint256"
        }
      ],
      "name": "setClaimableMarket",
      "outputs": [],
      "stateMutability": "nonpayable",
      "type": "function"
    },
    {
      "inputs": [
        {
          "internalType": "uint256",
          "name": "marketId",
          "type": "uint256"
        },
        {
          "internalType": "bool",
          "name": "isBoost",
          "type": "bool"
        }
      ],
      "name": "claimPredictionWins",
      "outputs": [],
      "stateMutability": "nonpayable",
      "type": "function"
    },
    {
      "inputs": [
        {
          "internalType": "uint256",
          "name": "marketId",
          "type": "uint256"
        },
        {
          "internalType": "bool",
          "name": "isBoost",
          "type": "bool"
        },
        {
          "internalType": "uint256",
          "name": "amount",
          "type": "uint256"
        },
        {
          "internalType": "bytes32",
          "name": "predictionId",
          "type": "bytes32"
        },
        {
          "internalType": "uint256",
          "name": "deadline",
          "type": "uint256"
        },
        {
          "internalType": "bytes",
          "name": "signature",
          "type": "bytes"
        }
      ],
      "name": "claimPredictionWinsWithAuth",
      "outputs": [],
      "stateMutability": "nonpayable",
      "type": "function"
    },
    {
      "inputs": [
        {
          "internalType": "uint256",
          "name": "amount",
          "type": "uint256"
        },
        {
          "internalType": "bytes32",
          "name": "nonce",
          "type": "bytes32"
        },
        {
          "internalType": "uint256",
          "name": "deadline",
          "type": "uint256"
        },
        {
          "internalType": "bytes",
          "name": "signature",
          "type": "bytes"
        }
      ],
      "name": "withdrawJackpotWithAuth",
      "outputs": [],
      "stateMutability": "nonpayable",
      "type": "function"
    },
    {
      "inputs": [
        {
          "internalType": "uint256",
          "name": "amount",
          "type": "uint256"
        }
      ],
      "name": "fundClaimPredictionWinsPool",
      "outputs": [],
      "stateMutability": "nonpayable",
      "type": "function"
    },
    {
      "inputs": [
        {
          "internalType": "address payable",
          "name": "to",
          "type": "address"
        },
        {
          "internalType": "uint256",
          "name": "amount",
          "type": "uint256"
        }
      ],
      "name": "withdrawFromClaimPredictionWinsPool",
      "outputs": [],
      "stateMutability": "nonpayable",
      "type": "function"
    },
    {
      "inputs": [
        {
          "internalType": "uint256",
          "name": "marketId",
          "type": "uint256"
        },
        {
          "internalType": "string",
          "name": "outcome",
          "type": "string"
        },
        {
          "internalType": "uint256",
          "name": "amount",
          "type": "uint256"
        }
      ],
      "name": "buyMarketShares",
      "outputs": [],
      "stateMutability": "nonpayable",
      "type": "function"
    },
    {
      "inputs": [
        {
          "internalType": "uint256",
          "name": "marketId",
          "type": "uint256"
        },
        {
          "internalType": "string",
          "name": "outcome",
          "type": "string"
        },
        {
          "internalType": "uint256",
          "name": "shares",
          "type": "uint256"
        }
      ],
      "name": "sellMarketShares",
      "outputs": [],
      "stateMutability": "nonpayable",
      "type": "function"
    },
    {
      "inputs": [
        {
          "internalType": "uint256",
          "name": "marketId",
          "type": "uint256"
        },
        {
          "internalType": "string",
          "name": "outcome",
          "type": "string"
        }
      ],
      "name": "claimMarket",
      "outputs": [],
      "stateMutability": "nonpayable",
      "type": "function"
    },
    {
      "inputs": [
        {
          "internalType": "uint256",
          "name": "marketId",
          "type": "uint256"
        },
        {
          "internalType": "string",
          "name": "outcome",
          "type": "string"
        }
      ],
      "name": "getPrice",
      "outputs": [
        {
          "internalType": "uint256",
          "name": "",
          "type": "uint256"
        }
      ],
      "stateMutability": "view",
      "type": "function"
    },
    {
      "inputs": [
        {
          "internalType": "uint256",
          "name": "marketId",
          "type": "uint256"
        },
        {
          "internalType": "address",
          "name": "user",
          "type": "address"
        },
        {
          "internalType": "string",
          "name": "outcome",
          "type": "string"
        }
      ],
      "name": "getUserPosition",
      "outputs": [
        {
          "internalType": "uint256",
          "name": "shares",
          "type": "uint256"
        },
        {
          "internalType": "uint256",
          "name": "totalInvested",
          "type": "uint256"
        }
      ],
      "stateMutability": "view",
      "type": "function"
    },
    {
      "inputs": [
        {
          "internalType": "uint256",
          "name": "marketId",
          "type": "uint256"
        },
        {
          "internalType": "address",
          "name": "user",
          "type": "address"
        },
        {
          "internalType": "string",
          "name": "outcome",
          "type": "string"
        }
      ],
      "name": "getBoostPrediction",
      "outputs": [
        {
          "internalType": "address",
          "name": "_user",
          "type": "address"
        },
        {
          "internalType": "uint256",
          "name": "_totalStake",
          "type": "uint256"
        },
        {
          "internalType": "bool",
          "name": "_claimed",
          "type": "bool"
        }
      ],
      "stateMutability": "view",
      "type": "function"
    },
    {
      "inputs": [
        {
          "internalType": "uint256",
          "name": "amount",
          "type": "uint256"
        }
      ],
      "name": "fundJackpotPool",
      "outputs": [],
      "stateMutability": "nonpayable",
      "type": "function"
    },
    {
      "inputs": [
        {
          "internalType": "uint256",
          "name": "amount",
          "type": "uint256"
        }
      ],
      "name": "withdrawJackpot",
      "outputs": [],
      "stateMutability": "nonpayable",
      "type": "function"
    },
    {
      "inputs": [
        {
          "internalType": "address",
          "name": "user",
          "type": "address"
        },
        {
          "internalType": "uint256",
          "name": "amount",
          "type": "uint256"
        }
      ],
      "name": "setJackpotBalance",
      "outputs": [],
      "stateMutability": "nonpayable",
      "type": "function"
    },
    {
      "inputs": [
        {
          "internalType": "address[]",
          "name": "users",
          "type": "address[]"
        },
        {
          "internalType": "uint256[]",
          "name": "amounts",
          "type": "uint256[]"
        }
      ],
      "name": "batchSetJackpotBalances",
      "outputs": [],
      "stateMutability": "nonpayable",
      "type": "function"
    },
    {
      "inputs": [
        {
          "internalType": "address payable",
          "name": "to",
          "type": "address"
        },
        {
          "internalType": "uint256",
          "name": "amount",
          "type": "uint256"
        }
      ],
      "name": "withdrawFromJackpotPool",
      "outputs": [],
      "stateMutability": "nonpayable",
      "type": "function"
    },
    {
      "inputs": [],
      "name": "getContractBalance",
      "outputs": [
        {
          "internalType": "uint256",
          "name": "",
          "type": "uint256"
        }
      ],
      "stateMutability": "view",
      "type": "function"
    },
    {
      "inputs": [
        {
          "internalType": "address payable",
          "name": "to",
          "type": "address"
        },
        {
          "internalType": "uint256",
          "name": "amount",
          "type": "uint256"
        }
      ],
      "name": "transferFunds",
      "outputs": [],
      "stateMutability": "nonpayable",
      "type": "function"
    },
    {
      "inputs": [
        {
          "internalType": "address payable",
          "name": "to",
          "type": "address"
        }
      ],
      "name": "migrateAllFundsForUpgrade",
      "outputs": [],
      "stateMutability": "nonpayable",
      "type": "function"
    },
    {
      "inputs": [
        {
          "internalType": "address",
          "name": "_superAdmin",
          "type": "address"
        }
      ],
      "name": "setSuperAdmin",
      "outputs": [],
      "stateMutability": "nonpayable",
      "type": "function"
    },
    {
      "inputs": [
        {
          "internalType": "address",
          "name": "admin",
          "type": "address"
        },
        {
          "internalType": "bool",
          "name": "enabled",
          "type": "bool"
        }
      ],
      "name": "setAdmin",
      "outputs": [],
      "stateMutability": "nonpayable",
      "type": "function"
    },
    {
      "inputs": [
        {
          "internalType": "address",
          "name": "user",
          "type": "address"
        }
      ],
      "name": "getJackpotBalance",
      "outputs": [
        {
          "internalType": "uint256",
          "name": "",
          "type": "uint256"
        }
      ],
      "stateMutability": "view",
      "type": "function"
    },
    {
      "inputs": [
        {
          "internalType": "uint256",
          "name": "marketId",
          "type": "uint256"
        },
        {
          "internalType": "address",
          "name": "user",
          "type": "address"
        }
      ],
      "name": "getClaimableBalance",
      "outputs": [
        {
          "internalType": "uint256",
          "name": "",
          "type": "uint256"
        }
      ],
      "stateMutability": "view",
      "type": "function"
    },
    {
      "inputs": [
        {
          "internalType": "uint256",
          "name": "amount",
          "type": "uint256"
        }
      ],
      "name": "depositTradingVault",
      "outputs": [],
      "stateMutability": "nonpayable",
      "type": "function"
    },
    {
      "inputs": [
        {
          "internalType": "uint256",
          "name": "amount",
          "type": "uint256"
        },
        {
          "internalType": "bytes32",
          "name": "nonce",
          "type": "bytes32"
        },
        {
          "internalType": "uint256",
          "name": "deadline",
          "type": "uint256"
        },
        {
          "internalType": "bytes",
          "name": "signature",
          "type": "bytes"
        }
      ],
      "name": "withdrawTradingVaultWithAuth",
      "outputs": [],
      "stateMutability": "nonpayable",
      "type": "function"
    },
    {
      "inputs": [
        {
          "internalType": "uint256",
          "name": "marketId",
          "type": "uint256"
        },
        {
          "components": [
            {
              "internalType": "string",
              "name": "option",
              "type": "string"
            },
            {
              "internalType": "uint256",
              "name": "yesAmount",
              "type": "uint256"
            },
            {
              "internalType": "uint256",
              "name": "noAmount",
              "type": "uint256"
            }
          ],
          "internalType": "struct WeRgame.OrderbookLiquidityRow[]",
          "name": "rows",
          "type": "tuple[]"
        }
      ],
      "name": "batchAddOrderbookLiquidity",
      "outputs": [],
      "stateMutability": "nonpayable",
      "type": "function"
    },
    {
      "inputs": [
        {
          "internalType": "uint256",
          "name": "marketId",
          "type": "uint256"
        },
        {
          "components": [
            {
              "internalType": "address",
              "name": "user",
              "type": "address"
            },
            {
              "internalType": "string",
              "name": "positionKey",
              "type": "string"
            },
            {
              "internalType": "int256",
              "name": "vaultDelta",
              "type": "int256"
            },
            {
              "internalType": "int256",
              "name": "sharesDelta",
              "type": "int256"
            },
            {
              "internalType": "int256",
              "name": "investedDelta",
              "type": "int256"
            }
          ],
          "internalType": "struct WeRgame.OrderbookSettlementLeg[]",
          "name": "legs",
          "type": "tuple[]"
        },
        {
          "internalType": "uint256",
          "name": "feeToClaimPool",
          "type": "uint256"
        },
        {
          "internalType": "uint256",
          "name": "feeToJackpotPool",
          "type": "uint256"
        }
      ],
      "name": "applyOrderbookSettlements",
      "outputs": [],
      "stateMutability": "nonpayable",
      "type": "function"
    },
    {
      "inputs": [
        {
          "internalType": "uint256",
          "name": "marketId",
          "type": "uint256"
        },
        {
          "components": [
            {
              "internalType": "address",
              "name": "user",
              "type": "address"
            },
            {
              "internalType": "string",
              "name": "positionKey",
              "type": "string"
            },
            {
              "internalType": "int256",
              "name": "vaultDelta",
              "type": "int256"
            },
            {
              "internalType": "int256",
              "name": "sharesDelta",
              "type": "int256"
            },
            {
              "internalType": "int256",
              "name": "investedDelta",
              "type": "int256"
            }
          ],
          "internalType": "struct WeRgame.OrderbookSettlementLeg[]",
          "name": "legs",
          "type": "tuple[]"
        },
        {
          "internalType": "uint256",
          "name": "collateralToClaimPool",
          "type": "uint256"
        }
      ],
      "name": "finalizeResolvedMarketSettlements",
      "outputs": [],
      "stateMutability": "nonpayable",
      "type": "function"
    },
    {
      "inputs": [],
      "name": "getTreasurySnapshot",
      "outputs": [
        {
          "internalType": "uint256",
          "name": "usdcBalance",
          "type": "uint256"
        },
        {
          "internalType": "uint256",
          "name": "claimPoolBalance",
          "type": "uint256"
        },
        {
          "internalType": "uint256",
          "name": "jackpotPoolBalance",
          "type": "uint256"
        },
        {
          "internalType": "uint256",
          "name": "tradingVaultLiabilities",
          "type": "uint256"
        },
        {
          "internalType": "uint256",
          "name": "maxRoutineTransfer",
          "type": "uint256"
        }
      ],
      "stateMutability": "view",
      "type": "function"
    },
    {
      "inputs": [
        {
          "internalType": "uint256",
          "name": "marketId",
          "type": "uint256"
        },
        {
          "internalType": "uint256",
          "name": "amount",
          "type": "uint256"
        },
        {
          "internalType": "string",
          "name": "positionKey",
          "type": "string"
        },
        {
          "internalType": "bytes32",
          "name": "predictionId",
          "type": "bytes32"
        },
        {
          "internalType": "uint256",
          "name": "deadline",
          "type": "uint256"
        },
        {
          "internalType": "bytes",
          "name": "signature",
          "type": "bytes"
        }
      ],
      "name": "claimOrderbookPositionWithAuth",
      "outputs": [],
      "stateMutability": "nonpayable",
      "type": "function"
    }
  ],
  "bytecode": "0x60a034620001bf57601f6200575138819003918201601f19168301916001600160401b03831184841017620001c357808492602094604052833981010312620001bf57516001600160a01b03811690819003620001bf5760017f9b779b17422d0df92223018b32b4d1fa46e071723d6817e2486d003becc55f00558015620001855760018060a01b03199033825f5416175f5533826001541617600155335f52600260205260405f20600160ff198254161790556080526103e86003556101f480600455806005556006556001600e55339060115416176011556040516155799081620001d8823960805181818161052a01528181610722015281816109c601528181610bcb015281816113a201528181611456015281816116330152818161196801528181611a9e01528181611c3d01528181611dda01528181611e9c0152818161269f01528181612a0101528181612bc801528181612d43015281816133a00152818161346201528181613554015281816137d101528181613a670152613e810152f35b60405162461bcd60e51b815260206004820152601260248201527124b73b30b634b2102aa9a221903a37b5b2b760711b6044820152606490fd5b5f80fd5b634e487b7160e01b5f52604160045260245ffdfe604060808152600480361015610013575f80fd5b5f3560e01c8063012e293814613f69578063019d669414610a4d5780630325bbe814613f4b578063033a7e0614613dbd57806305d45d5f14613d215780630cd83c6e14613cf457806312497adb14613cd65780631570005214613c7c57806318bb1f2914613bf15780631d38461c14613b9157806326232a2e14613b73578063277c02aa14613b1157806329575f6a14613ae95780632b96b6ae1461383c5780632e82ff04146137a25780632fd09b6f14613775578063307e2e61146137575780633577392e146136f7578063392a9094146134a95780633a08ff3b146133f45780633d165aaa146133cf5780633e413bee1461338c5780633ed724081461327f578063406ef2ef14613261578063429b62e51461322557806348d0eca2146131615780634b0bddd2146130f957806357765582146130d45780636523acf414613094578063663370c1146130775780636742775014612e515780636822d82314612544578063698d2d7614612e1a5780636a4d9a0c14612dba5780636f9fb98a14612d155780636fcba37714612c025780637a73103d14612b68578063814fb79014612b43578063990dc9db146129975780639ef69e8c1461296a5780639f1d0246146126c3578063a2ddbca5146125fe578063ad21a6691461257b578063b00e039514612544578063b05b32ae14612526578063b1283e7714612477578063b3e60a2614612404578063b3eb5253146123c4578063b5f3d19c14612138578063b8f8f2ca14611e0a578063bd0237b114611d31578063c01744e914611b6b578063c08e7c7114611a70578063c1730ee1146119d3578063c20499ff14611856578063c75bb72414611694578063ce1ea42b146115b9578063d437441e1461159b578063d5f3948814611574578063d81168b0146113f3578063db8311271461123d578063db8d55f1146111fe578063dcc8dee91461119e578063dd75444814611176578063df1aa90514610e42578063e44da3af14610e15578063e87ece1314610d15578063e981012314610ce8578063ecf7137d14610cb1578063ef9f8d2614610a8d578063f87dd74b14610a4d578063f95d530b14610898578063fb5bdd491461064d5763fbf91a1414610349575f80fd5b3461064957610357366141fc565b825f94929452602060078152610371865f2054151561450b565b610379614fd6565b835f5260078152855f20906103ab60ff600184015460081c1661039b816144b2565b8015908115610635575b5061474f565b845f5260098152865f20335f5281526103c6875f2087614316565b80549091906103df906001600160a01b03163314614f54565b60028201926103f18585541015614f94565b60058101805490919080156106085761040d600383018b614316565b54612710908181029181830414901517156105f55761043261271092610438926147a2565b8861478f565b049660038201918861044a848d614316565b54106105b2578101938761045e868d614316565b54106105705750508899936104c361055a9694610506946104a36003957f2136d4ee254f7d800aae52b9b653ccd229ae15988bf2d1371a31db50132a69e99d9e614316565b6104ae8c82546146e2565b90556104bb8b82546146e2565b90558c614316565b6104ce8882546146e2565b90556104db8785546146e2565b80945501916105008354916104fa886104f4858c61478f565b9261480c565b906147a2565b906146e2565b90556105208460105461051b82821015614696565b6146e2565b60105561054e84337f0000000000000000000000000000000000000000000000000000000000000000615005565b51928392339784614e0c565b0390a360015f8051602061552483398151915255005b8b5162461bcd60e51b815291820152601a60248201527f496e73756666696369656e74206d61726b657420736861726573000000000000604482015260649150fd5b8b5162461bcd60e51b8152808301869052601d60248201527f496e73756666696369656e74206d61726b6574206c69717569646974790000006044820152606490fd5b601189634e487b7160e01b5f525260245ffd5b506002810154801561062257610438612710918204610432565b601288634e487b7160e01b5f525260245ffd5b60019150610642816144b2565b145f6103a5565b5f80fd5b5090346106495761065d366141fc565b92825f9392935260209260078452610679825f2054151561450b565b610681614fd6565b61068c851515614703565b825f5260078452815f20946001966106c260ff8989015460081c166106b0816144b2565b898115918215610884575b505061474f565b875f60025f99018054995b8a8110610834575b50508798506107e56107dd61080195897f9af5caefb8cea3d0910b8a9636232b856d7fadb93249d5b0bfbeab7c38f792169a9b98966107f09661071a61051b97614dce565b6107468430337f0000000000000000000000000000000000000000000000000000000000000000615083565b610773612710948561075a6003548361478f565b0498899661076a6006548461478f565b04998a926146e2565b9a8b936107818515156147c0565b5f52600881528c5f2090335f52528d61079c8d5f208b614316565b80549092906001600160a01b031661081c5782546001600160a01b031916331783558201556107ce8960028301614c7b565b82600382015501555b8761480c565b60105461480c565b601055600f5461480c565b600f55835193808552840190614253565b948201528033940390a35f8051602061552483398151915255005b50509091500161082d89825461480c565b90556107d7565b6108506108576108448385614c66565b508a5192838092614374565b038261411d565b8a815191012087518b8901201461086f5783016106cd565b509798508897508190506107e56107dd6106d5565b909150610890816144b2565b14895f6106bb565b509034610649576108a8366141a1565b815f93929352602093600785526108c3835f2054151561450b565b6108cb614fd6565b835f526007855261090e60076108fc855f206108ed60ff60068301541661454f565b61085087518094819301614374565b86815191012083518785012014614591565b835f5260098552825f20335f528552600261092b845f2084614316565b8054610941906001600160a01b03163314614f54565b015415610a155750907fb293892389f4a468a51fa597d7cd2627d3fa920ae52f4843616707f64a80417691835f52600a8552815f20335f5285526109f8825f20549161098e831515614653565b61099c836010541015614696565b855f52600a8752835f20335f5287525f848120556109bc836010546146e2565b6010556109ea83337f0000000000000000000000000000000000000000000000000000000000000000615005565b835193808552840190614253565b948201528033940390a360015f8051602061552483398151915255005b825162461bcd60e51b815290810185905260126024820152714e6f2073686172657320746f20636c61696d60701b6044820152606490fd5b509034610649578060031936011261064957602091610a6a6141d0565b90355f52600a8352815f209060018060a01b03165f528252805f20549051908152f35b5090346106495780600319360112610649577fa3097d366dbda72a300109ce4eb4df25c8b2709e0b539bcfaf91102fff0e8174826007933592610ace61448c565b91845f52602092868452610ae6835f2054151561450b565b610aee614fd6565b855f52868452610b20835f20610b0a60ff60068301541661454f565b610b198551809a819301614374565b038861411d565b15610c2457600590855f52600b8452825f20335f528452610b62835f205497610b4a891515614653565b875f5260088652845f20335f528652845f2090614316565b903360018060a01b03835416149081610c17575b5080610c09575b610b8690614f14565b610b94876010541015614696565b5f868152600b855283812033825285528381205501805460ff191660011790555b610bc1856010546146e2565b601055610bef85337f0000000000000000000000000000000000000000000000000000000000000000615005565b519384523393a360015f8051602061552483398151915255005b508082015460ff1615610b7d565b905081015415155f610b76565b50835f52600c8252805f20335f528252610c7c610c62825f205496610c4a881515614653565b865f5260098552835f20335f528552835f2090614316565b80546001600160a01b031633149081610ca3575b50614f14565b610c8a856010541015614696565b835f52600c8252805f20335f5282525f81812055610bb5565b60029150015415155f610c76565b8234610649576020366003190112610649576020906001600160a01b03610cd66141e6565b165f5260148252805f20549051908152f35b50903461064957602036600319011261064957602091355f526017825260ff815f20541690519015158152f35b50346106495781600319360112610649576001600160401b03813581811161064957610d44903690840161445c565b93909160243590811161064957610d5e903690850161445c565b5f54919590946001600160a01b0392831633148015610dfe575b610d8190614893565b858203610dc957505f5b818110610d9457005b80610da2600192888a614f04565b3584610db7610db284878b614f04565b614ac4565b165f52600d602052855f205501610d8b565b606490602085519162461bcd60e51b8352820152600f60248201526e098cadccee8d040dad2e6dac2e8c6d608b1b6044820152fd5b50335f90815260026020528490205460ff16610d78565b50903461064957602036600319011261064957602091355f526016825260ff815f20541690519015158152f35b50346106495760c036600319011261064957803590610e5f61448c565b9260443593606435926084359060a4356001600160401b0381116106495784938891610e8e903690850161442f565b9790895f5260209860078a52875f20541515610ea99061450b565b610eb1614fd6565b8a8a600160a01b60019003988995866011541698891515610ed1906148cc565b82421115610ede9061490f565b610ee9811515614945565b8c51948486013360601b9687825284603482015260348152610f0a81614102565b5190209d8e5f5260128652805f205460ff1615610f2690614615565b51948501958652603485015288151560f81b60548501526055840152607583015260958201524660b58201523060601b60d582015260c98152610f68816140d2565b51902091610f75926150ed565b16801515600793610f8d928261116c575b505061497f565b875f52818752610fbf865f20610fa960ff60068301541661454f565b610fb888518095819301614374565b038361411d565b156110b857610fe090875f5260088752855f20335f528752855f2090614316565b91339083541614806110ac575b8061109d575b1561105a5750600501805460ff191660011790557fa3097d366dbda72a300109ce4eb4df25c8b2709e0b539bcfaf91102fff0e81749291905b61103a866010541015614696565b5f5260128252805f20600160ff19825416179055610bc1856010546146e2565b835162461bcd60e51b8152908101859052601760248201527f4e6f74206120626f6f7374207061727469636970616e740000000000000000006044820152606490fd5b5060ff60058301541615610ff3565b50808201541515610fed565b6110d490875f5260098752855f20335f528752855f2090614316565b913390835416148061115f575b1561111c5750905f6003838260027fa3097d366dbda72a300109ce4eb4df25c8b2709e0b539bcfaf91102fff0e81749897960155015561102c565b835162461bcd60e51b8152908101859052601860248201527f4e6f742061206d61726b6574207061727469636970616e7400000000000000006044820152606490fd5b50600282015415156110e1565b1490505f80610f86565b8234610649575f3660031901126106495760115490516001600160a01b039091168152602090f35b8234610649576111ad36614405565b5f549093926001600160a01b03918216331480156111e7575b6111cf90614893565b5f52600a602052825f2091165f526020525f20555f80f35b50335f90815260026020528490205460ff166111c6565b5034610649575f3660031901126106495760035490546005546006549351928352602083019190915260408201526060810191909152608090f35b0390f35b5090346106495761124d366144d0565b61125b969495939296614fd6565b6011546001600160a01b03908116979092906112788915156148cc565b6112848142111561490f565b61128f881515614945565b845f52602096601388526112a960ff885f20541615614e2e565b865190888201923360601b84528a603484015287605484015260748301524660948301523060601b60b483015260a8825260e08201908282106001600160401b038311176113e057509261132b927fd40b323ed8b019a73e488040e2e991ed6218cbfa9561673125581fc3778091879a9b959261133d97958a525190206150ed565b1690811515918261116c57505061497f565b335f52600d835261135385835f20541015614c0f565b61136185600f541015614eb8565b5f5260138252805f20600160ff19825416179055335f52600d8252805f2061138a8582546146e2565b905561139884600f546146e2565b600f556113c684337f0000000000000000000000000000000000000000000000000000000000000000615005565b519283523392a260015f8051602061552483398151915255005b604190634e487b7160e01b5f525260245ffd5b5034610649576020806003193601126106495760246114106141e6565b6001546001600160a01b03918291821633148015611568575b61143290614a64565b61143a614fd6565b1693611447851515614b83565b61145330861415614bc3565b837f0000000000000000000000000000000000000000000000000000000000000000928751948580926370a0823160e01b8252308683015286165afa92831561155e575f9361152f575b5082156114f75750936114df82857ff4dce203c8f4eb3095854b1c66cbc121ab60692c57b36989ec635f685dfc53aa96975f6010555f600f555f601555615005565b51908152a260015f8051602061552483398151915255005b855162461bcd60e51b815290810184905260126024820152714e6f205553444320746f206d69677261746560701b6044820152606490fd5b9092508381813d8311611557575b611547818361411d565b810103126106495751915f61149d565b503d61153d565b86513d5f823e3d90fd5b505f5482163314611429565b8234610649575f366003190112610649575f5490516001600160a01b039091168152602090f35b8234610649575f366003190112610649576020906006549051908152f35b50346106495760203660031901126106495735906115d5614fd6565b6115e0821515614703565b6115ee82600f541015614eb8565b335f52600d60205261160582825f20541015614c0f565b335f52600d602052805f2061161b8382546146e2565b905561162982600f546146e2565b600f5561165782337f0000000000000000000000000000000000000000000000000000000000000000615005565b519081527fd40b323ed8b019a73e488040e2e991ed6218cbfa9561673125581fc37780918760203392a260015f8051602061552483398151915255005b5034610649576116a3366141a1565b91909260018060a01b035f54163314801561183f575b6116c290614893565b835f52602091600783526116da825f2054151561450b565b845f5260078352815f2090600180830191825491600360ff8460081c16611700816144b2565b14611809575f905f600287018054915b8281106117c7575b505050501561178b575061ff00191661030017905560068101805460ff191660011790557f2ec1f84b4079525f1ab2216f53a16f520efec75c91c517667151e55bbea7b9ec939291611786916117718560078301614c7b565b60094291015551928284938452830190614253565b0390a2005b845162461bcd60e51b8152908101869052601660248201527524b73b30b634b2103bb4b73734b7339037b83a34b7b760511b6044820152606490fd5b6108506117e36117d78385614c66565b508c5192838092614374565b8051908c01208c518d8d0120146117fb578301611710565b50505090505f808080611718565b855162461bcd60e51b8152808301889052601060248201526f105b1c9958591e481c995cdbdb1d995960821b6044820152606490fd5b50335f90815260026020528190205460ff166116b9565b8234610649576119239061191161186c366144d0565b61187c9794979591929395614fd6565b6011546001600160a01b03908116949093906118998615156148cc565b6118a58142111561490f565b6118b08a1515614945565b875f5260166020526118c860ff8a5f20541615614e2e565b885160208101913360601b83528b603483015289605483015260748201524660948201523060601b60b4820152600160c882015260c88152611909816140d2565b5190206150ed565b169081151591826119c957505061497f565b335f52601460205261193a83835f20541015614e67565b5f526016602052805f20600160ff1982541617905561196161195b83614ea8565b33615150565b61198c82337f0000000000000000000000000000000000000000000000000000000000000000615005565b519081527fc806a53d83b50a9163d7117c35333b998202cee5dffd5dea16a45f725f26c26e60203392a260015f8051602061552483398151915255005b1490508580610f86565b50903461064957611a0c916119e7366142d4565b9094915f526008602052835f2060018060a01b038096165f52602052835f2090614316565b9283541691600184015493611a5a8251611a2d816108508160028701614374565b60c060ff6005600386015497860154950154169480519889988952602089015287015260c0860190614253565b9260608501526080840152151560a08301520390f35b509034610649575f3660031901126106495780516370a0823160e01b815230928101929092526020826024817f00000000000000000000000000000000000000000000000000000000000000006001600160a01b03165afa908115611b62575f91611b2d575b60a0925060105490600f5460155491611af883611af3848761480c565b61480c565b80861115611b2557611b0a90866146e2565b935b8151958652602086015284015260608301526080820152f35b505f93611b0c565b90506020823d602011611b5a575b81611b486020938361411d565b810103126106495760a0915190611ad6565b3d9150611b3b565b513d5f823e3d90fd5b823461064957611b7a366141fc565b9260018060a01b035f541633148015611d1a575b611b9790614893565b825f526020936007602052611bb0825f2054151561450b565b611bbb811515614703565b835f526007602052815f206001611bee60ff600184015460081c16611bdf816144b2565b8015908115611d06575061474f565b5f965f90600284018054925b838110611ca7575b5050505050600590611c357faa83f946898046e98d04323d1f949f879cd43a774cb0981f1025ce3caa9afc8c9697614a27565b611c618330337f0000000000000000000000000000000000000000000000000000000000000000615083565b611c6e6003820186614316565b611c7984825461480c565b905501611c8782825461480c565b9055611c9c8251938385948552840190614253565b9060208301520390a2005b610850611cb76108448385614c66565b8381519101208951848b012014611ccf578401611bfa565b50929850839250611c3591507faa83f946898046e98d04323d1f949f879cd43a774cb0981f1025ce3caa9afc8c905060058a611c02565b60019150611d13816144b2565b14896103a5565b50335f90815260026020528190205460ff16611b8e565b82346106495780600319360112610649577f9b4720e539e7a1f0094cfce31d8cc4e3f6a63afdbe9350a2636b0edd879c83256020611d6d6141e6565b600154602435916001600160a01b0391821633148015611dfe575b611d9190614a64565b611d99614fd6565b1693611da6851515614b83565b611db230861415614bc3565b611dbd821515614703565b611dd08260105461051b82821015614d82565b6010556114df82867f0000000000000000000000000000000000000000000000000000000000000000615005565b505f5482163314611d88565b503461064957611e19366141fc565b825f9392935260209460078652611e34815f2054151561450b565b611e3c614fd6565b611e47821515614703565b825f5260078652805f2091600196611e6b60ff8986015460081c166106b0816144b2565b5f965f9460028101958a8754915b828110612100575b505050611e94611eee9596979899614dce565b611ec08430337f0000000000000000000000000000000000000000000000000000000000000000615083565b6127109687611ed16005548761478f565b0495869561051b8a611ee56006548461478f565b049889926146e2565b9788156120bd57600583018054909281156120995750611f11600385018d614316565b54828102908082048414901517156120865790611f2d916147a2565b905b808a02908a8204036120735794611fab7f65b9cf5504284839513abe58c29b419750bf6617216734ca4c0aa61a06c717849a9895612011956107dd958f9c99611f7f6120279c97611f8a926147a2565b9d6003840190614316565b611f958d825461480c565b9055611fa28c825461480c565b9055018d614316565b611fb68a825461480c565b90558a5f5260098152855f2090335f52526003611fd5865f208d614316565b80548d8f6001600160a01b03831615612050575b50505060028101611ffb8b825461480c565b90550161200988825461480c565b90558661480c565b6010558061203b575b5051928392339784614e0c565b0390a35f8051602061552483398151915255005b61204790600f5461480c565b600f555f61201a565b6001600160a01b03199092163317835561206b918301614c7b565b5f8d8f611fe9565b601185634e487b7160e01b5f525260245ffd5b601186634e487b7160e01b5f525260245ffd5b90505480156120aa57810490611f2f565b601285634e487b7160e01b5f525260245ffd5b875162461bcd60e51b8152808501869052601b60248201527f416d6f756e7420746f6f20736d616c6c206166746572206665657300000000006044820152606490fd5b610850612110610844838c614c66565b8681519101208b51878d01201461212957018b90611e79565b509950611e9490508a5f611e81565b5034610649576080906080600319360112610649578035926024356001600160401b0381116106495761216e903690840161445c565b5f549094606435946044359390926001600160a01b0392908316331480156123ad575b61219a90614893565b885f52602060076020526121b2875f2054151561450b565b6121ba614fd6565b895f5260076020526001926121de60ff60018a5f20015460081c1661039b816144b2565b5f945f5b8b8d8b8284106122c0578d83918d8d6122058e6121ff868561480c565b90614b10565b6122865750917ff16f569f7fb6cac6c3cb740184f9b94cf82d3b473d2f1156c0c3628bedd4982b939183606094612272575b8261225e575b81519384526020840152820152a260015f8051602061552483398151915255005b61226a83600f5461480c565b600f5561223d565b61227e8160105461480c565b601055612237565b606490602084519162461bcd60e51b83528201526014602482015273536574746c656d656e7420696d62616c616e636560601b6044820152fd5b918587926123126122ff9c87966122dc610db28f9a8888614aa2565b9e8f6122eb8c82161515614ad8565b826122f78b8a8a614aa2565b013590615150565b61230a888787614aa2565b013590614b10565b9b8560608c81612323848989614aa2565b013515801590612397575b612341575b5050505050505050016121e2565b612379836123636123899a61235a612383978c8c614aa2565b908101906149f5565b99909461237183838c614aa2565b013598614aa2565b013595369161413e565b9161529b565b848d8f86905f85818c612333565b50806123a4848989614aa2565b0135151561232e565b50335f90815260026020528690205460ff16612191565b5090346106495780600319360112610649576020916123e16141d0565b90355f52600b8352815f209060018060a01b03165f528252805f20549051908152f35b50346106495760609161245860ff600561241d366142d4565b909491805f526007602052612436875f2054151561450b565b5f526008602052855f2060018060a01b038096165f52602052855f2090614316565b9283541694830154920154169082519384526020840152151590820152f35b5090346106495760203660031901126106495760ff91355f526007602052805f20805491612517600183015493858560081c1690600585015487600687015416908551936124d3856124cc8160078c01614374565b038661411d565b600960088901549801549680519a8b9a610100968c5216151560208b01526124fa826144b2565b8901526060880152151560808701528060a0870152850190614253565b9160c084015260e08301520390f35b8234610649575f36600319011261064957602090600f549051908152f35b8234610649576020366003190112610649576020906001600160a01b036125696141e6565b165f52600d8252805f20549051908152f35b5034610649576020366003190112610649576125956141e6565b5f546001600160a01b0391906125ae9083163314614819565b169182156125ca57601180546001600160a01b03191684179055005b906020606492519162461bcd60e51b8352820152600e60248201526d24b73b30b634b21039b4b3b732b960911b6044820152fd5b82346106495780600319360112610649577f05388187d2d8839bf46fead5ad128385c82076ad81b57a1278382a2f77ca2444602061263a6141e6565b5f54602435916001600160a01b03916126569083163314614819565b61265e614fd6565b169361266b851515614b83565b61267730861415614bc3565b612682821515614703565b61269582600f5461051b82821015614d82565b600f556114df82867f0000000000000000000000000000000000000000000000000000000000000000615005565b50903461064957806003193601126106495781359081151591828103610649576024928335916001600160401b039586841161064957366023850112156106495783810135936127128561449b565b9461271f8751968761411d565b808652602098888a88019260051b8401019236841161064957898101925b84841061294457505050505060018060a01b035f54163314801561292e575b61276590614893565b60028451106128ec57600e54955f1987146128da57918693919492600191829160018701600e55865f5260078b52885f20918783556127b46001840191829060ff801983541691151516179055565b61ff001981541690554260088301555f97600283019181600385019401945b612820575b8c898c817f41671df7de79859ef92d2dc3d0936d3890eea9d4dda0c64e7d375277f2e5e7a18c8c61281785519283928352868984015286830190614278565b0390a251908152f35b91939597879991939597518210156128d0575061283d818a614c52565b518454680100000000000000008110156128be5780896128609201875586614c66565b6128ad57915f61289c89612890848f6128818f9e9d9c9b9a99988f99614c7b565b856128968d6128908585614c52565b51614316565b55614c52565b5501989694939291908b98966127d3565b835f86634e487b7160e01b8252525ffd5b83604186634e487b7160e01b5f52525ffd5b97958997506127d8565b634e487b7160e01b5f90815260118352fd5b845162461bcd60e51b8152908101879052601c818701527f4d7573742068617665206174206c656173742032206f7074696f6e73000000006044820152606490fd5b50335f908152600288528590205460ff1661275c565b8335838111610649578c9161295f83928e3691870101614183565b81520193019261273d565b82346106495760209061298f61297f366141a1565b905f5260198452825f2090614316565b549051908152f35b50346106495781600319360112610649576129b06141e6565b60243560018060a01b038092816001541633148015612b37575b6129d390614a64565b6129db614fd6565b16926129e8841515614b83565b6129f430851415614bc3565b6129ff821515614703565b7f000000000000000000000000000000000000000000000000000000000000000090855180946370a0823160e01b82523083830152816024602097889387165afa908115612b2d575f91612b00575b50612a7b84612a6e612a65601054600f549061480c565b6015549061480c565b9261051b82821015614c0f565b10612aaf5750936114df82857f8c9a4f13b67cb64d7c6aa1ae0c9bf07694af521a28b93e7060020810ab4bc59f9697615005565b855162461bcd60e51b8152908101849052602560248201527f43616e6e6f742077697468647261772075736572206f7220706f6f6c20726573604482015264657276657360d81b6064820152608490fd5b90508481813d8311612b26575b612b17818361411d565b8101031261064957515f612a4e565b503d612b0d565b87513d5f823e3d90fd5b505f54821633146129ca565b82346106495760209061298f612b58366141a1565b905f52601a8452825f2090614316565b5034610649576020366003190112610649577f2076cd8bd7c147f4b7bb2b5e2dd0db46fb74246bc4c4e3ded824202bfff5ca57916020913590612bb560018060a01b035f54163314614819565b612bc0821515614703565b612bec8230337f0000000000000000000000000000000000000000000000000000000000000000615083565b612bf882600f5461480c565b600f5551908152a1005b50346106495760803660031901126106495780356024359160443560643591612c3560018060a01b035f54163314614819565b612710808511159081612d0a575b81612cff575b81612cf4575b5015612cb157907f16e6f67290546b8dd0e587f4b7f67d4f61932ae17ffd8c60d3509dbc05c175fe9585612cac94938660035555816005558260065551948594859094939260609260808301968352602083015260408201520152565b0390a1005b606490602087519162461bcd60e51b8352820152601760248201527f466565732063616e6e6f742065786365656420313030250000000000000000006044820152fd5b90508311155f612c4f565b808411159150612c49565b808711159150612c43565b509034610649575f3660031901126106495780516370a0823160e01b815230928101929092526020826024817f00000000000000000000000000000000000000000000000000000000000000006001600160a01b03165afa908115611b62575f91612d85575b6020925051908152f35b90506020823d602011612db2575b81612da06020938361411d565b81010312610649576020915190612d7b565b3d9150612d93565b823461064957612dc936614405565b5f549093926001600160a01b0391821633148015612e03575b612deb90614893565b5f52600c602052825f2091165f526020525f20555f80f35b50335f90815260026020528490205460ff16612de2565b823461064957602090612e4a612e2f366141a1565b90805f5260078552612e45845f2054151561450b565b614b2b565b9051908152f35b5034610649576060916060600319360112610649578135926024356001600160401b03811161064957612e87903690850161445c565b5f5490946044359390926001600160a01b0392831633148015613060575b91889391612eb38794614893565b845f526020926007602052612ecc895f2054151561450b565b612ed4614fd6565b855f526007602052612eee60ff60068b5f2001541661454f565b5f935f5b8a8c808310612fa7578991898c612f09828c614b10565b612f6f5750915f606092847ff16f569f7fb6cac6c3cb740184f9b94cf82d3b473d2f1156c0c3628bedd4982b95612f5b5781519384526020840152820152a260015f8051602061552483398151915255005b612f678160105461480c565b60105561223d565b606490602084519162461bcd60e51b8352820152601260248201527146696e616c697a6520696d62616c616e636560701b6044820152fd5b90919294600194969850612ff48198612fc4610db2878686614aa2565b94612fd28a87161515614ad8565b612fe981612fe1898888614aa2565b013587615150565b61230a878686614aa2565b9989613001868585614aa2565b013515801590613049575b613023575b5050505001918a959391889593612ef2565b613040936123838b6080612379896123638d61235a838c8c614aa2565b5f8b868e613011565b506080613057868585614aa2565b0135151561300c565b50335f90815260026020528690205460ff16612ea5565b509034610649575f36600319011261064957602091549051908152f35b5090346106495780600319360112610649576020916130b16141d0565b90355f52600c8352815f209060018060a01b03165f528252805f20549051908152f35b82346106495760209061298f6130e9366141a1565b905f52601b8452825f2090614316565b823461064957806003193601126106495761315f906131166141e6565b9061311f61448c565b5f5490926001600160a01b03916131399083163314614819565b16613145811515614855565b5f5260026020525f209060ff801983541691151516179055565b005b503461064957816003193601126106495780359160243591821015610649577fd067ebf1565b7b7f7e3c08ccb7f355defc06fd6a3e5e3da1f0a43c8a235350ac9160209160018060a01b035f54163314801561320f575b6131c190614893565b845f52600783526131d6815f2054151561450b565b845f52600783526001815f20016131ec836144b2565b805461ff001916600884901b61ff0016179055519061320a816144b2565b8152a2005b50335f908152600284528190205460ff166131b8565b8234610649576020366003190112610649576020906001600160a01b0361324a6141e6565b165f526002825260ff815f20541690519015158152f35b8234610649575f36600319011261064957602090600e549051908152f35b50346106495761328e366141fc565b93909192835f52806132ee602094600786526132ae855f2054151561450b565b6132b6614fd6565b865f52600786526132d660ff6001875f20015460081c1661039b816144b2565b865f5260088652845f20335f528652845f2090614316565b8054613304906001600160a01b031633146145d3565b019081549086821061335457509061333f867fbcbb1a32e70b3a4c7e261bf1aa686d9baefa195ed797e1225c008ae953d6f1cf9594936146e2565b9055610bc18560105461051b82821015614696565b835162461bcd60e51b81529081018590526012602482015271496e73756666696369656e74207374616b6560701b6044820152606490fd5b8234610649575f36600319011261064957517f00000000000000000000000000000000000000000000000000000000000000006001600160a01b03168152602090f35b82346106495760209061298f6133e4366141a1565b905f5260188452825f2090614316565b5034610649576020366003190112610649576001547f4986ef868ee9659d51f041598f943aa46a8bd02efd1912472d5990a090d3732192602092359161344f90336001600160a01b039182161490811561349c575b50614a64565b61345a821515614703565b6134868230337f0000000000000000000000000000000000000000000000000000000000000000615083565b6134928260105461480c565b60105551908152a1005b90505f541633145f613449565b50346106495781600319360112610649578035906024356001600160401b038111610649576134db903690830161445c565b91909360018060a01b035f5416331480156136e0575b6134fa90614893565b835f5260209260078452613512825f2054151561450b565b845f526007845260019061353560ff6001855f20015460081c1661039b816144b2565b5f935f5b88878483106136a757505050841561367757506135788430337f0000000000000000000000000000000000000000000000000000000000000000615083565b5f5b8181106135ad57867f6b10a9fec29d0efd07b4aabbce21a618ccab013b141804be2f6bf1fc67c0a43087878751908152a2005b806135cd6135c66135c08694868d6149bf565b806149f5565b369161413e565b6135df6135da828b615230565b614a27565b876135eb83868d6149bf565b013561364c575b8184878c816136028585846149bf565b0135613614575b50505050500161357a565b6136409361363893613625926149bf565b0135928b5f5260198b52885f2090614316565b91825461480c565b90555f8184878c613609565b8761365883868d6149bf565b0135895f5260188952613670613638885f2084614316565b90556135f2565b835162461bcd60e51b8152908101869052600a60248201526916995c9bc81d1bdd185b60b21b6044820152606490fd5b966136d382886136cb8689819d6136c38d9a836136d99b6149bf565b0135946149bf565b01359061480c565b9061480c565b9501613539565b50335f90815260026020528190205460ff166134f1565b823461064957613741613709366142d4565b91805f526007602052613720855f2054151561450b565b5f526009602052835f209060018060a01b03165f52602052825f2090614316565b6003600282015491015482519182526020820152f35b8234610649575f366003190112610649576020906015549051908152f35b50903461064957602036600319011261064957602091355f526012825260ff815f20541690519015158152f35b50346106495760203660031901126106495735906137be614fd6565b6137c9821515614703565b6137f58230337f0000000000000000000000000000000000000000000000000000000000000000615083565b6137ff8233615150565b519081527fd537095d36052e8eac258e2230bac449b49fb5f034a431d7114fdc1ab3786f4560203392a260015f8051602061552483398151915255005b5090346106495760c0366003190112610649578135906001600160401b039060243560443583811161064957613875903690870161442f565b959060643560843560a43587811161064957613894903690860161442f565b895f52602095600787526138ac895f2054151561450b565b6138b4614fd6565b6011546001600160a01b039081169a9094906138d18c15156148cc565b6138dd8242111561490f565b6138e88a1515614945565b8a51898101913360601b9485845289603484015260026054840152605483526080830191838310908311176113e057508f9998979694928f9192889795938f5251902097885f5260178c528d5f205460ff161561394490614615565b8d519283928d840195865260348401528d60548401528b8b60748501378b830191607483015260948201524660b48201523060601b60d482015260e88101600390520360e8810182526101080161399b908261411d565b519020916139a8926150ed565b168015157f01009e1bdaf798125523e8dfa68dfc4c46e9d3eebc55e7b123757baeb4667699996139de928261116c57505061497f565b885f52600785526139f760ff6006895f2001541661454f565b885f5260098552865f20335f528552865f20858851809287878337878201908152030190209033908254161480613adc575b613aca575b50613a3d856010541015614696565b5f5260178352845f20600160ff19825416179055613a5d846010546146e2565b601055613a8b84337f0000000000000000000000000000000000000000000000000000000000000000615005565b8185519580875286015260608501375f606087850101528201526060813395601f80199101168101030190a360015f8051602061552483398151915255005b6003815f60028194015501555f613a2e565b5060028101541515613a29565b8234610649575f3660031901126106495760015490516001600160a01b039091168152602090f35b8234610649578060031936011261064957613b2a6141e6565b5f546001600160a01b039190821633148015613b5c575b613b4a90614893565b165f908152600d602052206024359055005b50335f90815260026020528390205460ff16613b41565b8234610649575f366003190112610649576020906003549051908152f35b823461064957613ba036614405565b5f549093926001600160a01b0391821633148015613bda575b613bc290614893565b5f52600b602052825f2091165f526020525f20555f80f35b50335f90815260026020528490205460ff16613bb9565b823461064957613c2990613c04366142d4565b9093915f526009602052825f2060018060a01b038095165f52602052825f2090614316565b9182541690805192613c4984613c428160018501614374565b038561411d565b6003600282015491015490613c6f83519586958652608060208701526080860190614253565b9284015260608301520390f35b3461064957602036600319011261064957613c956141e6565b5f546001600160a01b039190613cae9083163314614819565b16613cba811515614855565b6bffffffffffffffffffffffff60a01b60015416176001555f80f35b8234610649575f366003190112610649576020906010549051908152f35b50903461064957602036600319011261064957602091355f526013825260ff815f20541690519015158152f35b503461064957602090816003193601126106495735805f5260078252613d4b835f2054151561450b565b5f52600781526002825f2001918254613d638161449b565b93613d708351958661411d565b8185525f908152838120848087015b848410613d98578551828152806112398185018b614278565b60019182918751613dad816108508189614374565b8152019201920191908590613d7f565b50903461064957613dcd366141fc565b825f9492939452613e3760209360078552613dec845f2054151561450b565b613df4614fd6565b613dff831515614703565b855f5260078552613e1f60ff6001865f20015460081c1661039b816144b2565b855f5260088552835f20335f528552835f2090614316565b943360018060a01b0387541603613f0f5761051b6107e56107dd84613ef294613ea57fafc28a1adb0af8d9ee797f710633dbeb0799ebb3270743a3c4a31111f1ffbc9099989730337f0000000000000000000000000000000000000000000000000000000000000000615083565b613ed26127109283613eb96003548361478f565b04968794613ec96006548461478f565b049788926146e2565b9a613ede8c15156147c0565b01613eea8b825461480c565b90558961480c565b600f55519384523393a360015f8051602061552483398151915255005b825162461bcd60e51b8152908101849052601660248201527527379032bc34b9ba34b73390383932b234b1ba34b7b760511b6044820152606490fd5b8234610649575f366003190112610649576020906005549051908152f35b50903461064957613f79366141a1565b9091825f52613fea60209260078452613f96835f2054151561450b565b613f9e614fd6565b845f5260078452613fd26007613fc0855f206108ed60ff60068301541661454f565b85815191012082518684012014614591565b845f5260088452825f20335f528452825f2090614316565b8054909490614003906001600160a01b031633146145d3565b60058501908082549661401960ff891615614615565b01541561409b5750907f20e28d0ec25cd6e7b3ce931db96b9a33e940a54a32e1c0b8379e7660a2828c699291845f52600a8352815f20335f5283526001825f205496614066881515614653565b614074886010541015614696565b60ff1916179055835f52600a8252805f20335f5282525f81812055610bc1856010546146e2565b825162461bcd60e51b815290810184905260116024820152704e6f207374616b6520746f20636c61696d60781b6044820152606490fd5b61010081019081106001600160401b038211176140ee57604052565b634e487b7160e01b5f52604160045260245ffd5b606081019081106001600160401b038211176140ee57604052565b90601f801991011681019081106001600160401b038211176140ee57604052565b9291926001600160401b0382116140ee5760405191614167601f8201601f19166020018461411d565b829481845281830111610649578281602093845f960137010152565b9080601f830112156106495781602061419e9335910161413e565b90565b9060406003198301126106495760043591602435906001600160401b0382116106495761419e91600401614183565b602435906001600160a01b038216820361064957565b600435906001600160a01b038216820361064957565b9060606003198301126106495760043591602435906001600160401b0382116106495761422b91600401614183565b9060443590565b5f5b8381106142435750505f910152565b8181015183820152602001614234565b9060209161426c81518092818552858086019101614232565b601f01601f1916010190565b90808251908181526020809101926020808460051b8301019501935f915b8483106142a65750505050505090565b90919293949584806142c4600193601f198682030187528a51614253565b9801930193019194939290614296565b606060031982011261064957600435916024356001600160a01b03811681036106495791604435906001600160401b0382116106495761419e91600401614183565b602090614330928260405194838680955193849201614232565b82019081520301902090565b90600182811c9216801561436a575b602083101461435657565b634e487b7160e01b5f52602260045260245ffd5b91607f169161434b565b80545f93926143828261433c565b918282526020936001916001811690815f146143e657506001146143a8575b5050505050565b90939495505f92919252835f2092845f945b8386106143d257505050500101905f808080806143a1565b8054858701830152940193859082016143ba565b60ff19168685015250505090151560051b010191505f808080806143a1565b606090600319011261064957600435906024356001600160a01b0381168103610649579060443590565b9181601f84011215610649578235916001600160401b038311610649576020838186019501011161064957565b9181601f84011215610649578235916001600160401b038311610649576020808501948460051b01011161064957565b60243590811515820361064957565b6001600160401b0381116140ee5760051b60200190565b600411156144bc57565b634e487b7160e01b5f52602160045260245ffd5b90608060031983011261064957600435916024359160443591606435906001600160401b038211610649576145079160040161442f565b9091565b1561451257565b60405162461bcd60e51b815260206004820152601560248201527413585c9ad95d08191bd95cc81b9bdd08195e1a5cdd605a1b6044820152606490fd5b1561455657565b60405162461bcd60e51b815260206004820152601360248201527213585c9ad95d081b9bdd081c995cdbdb1d9959606a1b6044820152606490fd5b1561459857565b60405162461bcd60e51b81526020600482015260136024820152724e6f742077696e6e696e67206f7574636f6d6560681b6044820152606490fd5b156145da57565b60405162461bcd60e51b8152602060048201526013602482015272139bc81c1c99591a58dd1a5bdb88199bdd5b99606a1b6044820152606490fd5b1561461c57565b60405162461bcd60e51b815260206004820152600f60248201526e105b1c9958591e4818db185a5b5959608a1b6044820152606490fd5b1561465a57565b60405162461bcd60e51b81526020600482015260146024820152734e6f20636c61696d61626c652062616c616e636560601b6044820152606490fd5b1561469d57565b60405162461bcd60e51b815260206004820152601760248201527f496e73756666696369656e7420636c61696d20706f6f6c0000000000000000006044820152606490fd5b919082039182116146ef57565b634e487b7160e01b5f52601160045260245ffd5b1561470a57565b60405162461bcd60e51b815260206004820152601d60248201527f416d6f756e74206d7573742062652067726561746572207468616e20300000006044820152606490fd5b1561475657565b60405162461bcd60e51b81526020600482015260116024820152704d61726b6574206e6f742061637469766560781b6044820152606490fd5b818102929181159184041417156146ef57565b81156147ac570490565b634e487b7160e01b5f52601260045260245ffd5b156147c757565b60405162461bcd60e51b815260206004820152601a60248201527f5374616b6520746f6f20736d616c6c20616674657220666565730000000000006044820152606490fd5b919082018092116146ef57565b1561482057565b60405162461bcd60e51b815260206004820152600d60248201526c27b7363c903232b83637bcb2b960991b6044820152606490fd5b1561485c57565b60405162461bcd60e51b815260206004820152600f60248201526e496e76616c6964206164647265737360881b6044820152606490fd5b1561489a57565b60405162461bcd60e51b815260206004820152600a60248201526927b7363c9030b236b4b760b11b6044820152606490fd5b156148d357565b60405162461bcd60e51b815260206004820152601460248201527310db185a5b481cda59db995c881b9bdd081cd95d60621b6044820152606490fd5b1561491657565b60405162461bcd60e51b8152602060048201526007602482015266115e1c1a5c995960ca1b6044820152606490fd5b1561494c57565b60405162461bcd60e51b815260206004820152600b60248201526a16995c9bc8185b5bdd5b9d60aa1b6044820152606490fd5b1561498657565b60405162461bcd60e51b8152602060048201526011602482015270496e76616c6964207369676e617475726560781b6044820152606490fd5b91908110156149e15760051b81013590605e1981360301821215610649570190565b634e487b7160e01b5f52603260045260245ffd5b903590601e198136030182121561064957018035906001600160401b0382116106495760200191813603831361064957565b15614a2e57565b60405162461bcd60e51b815260206004820152600e60248201526d24b73b30b634b21037b83a34b7b760911b6044820152606490fd5b15614a6b57565b60405162461bcd60e51b815260206004820152600f60248201526e27b7363c9039bab832b920b236b4b760891b6044820152606490fd5b91908110156149e15760051b81013590609e1981360301821215610649570190565b356001600160a01b03811681036106495790565b15614adf57565b60405162461bcd60e51b81526020600482015260096024820152682d32b937903ab9b2b960b91b6044820152606490fd5b9190915f83820193841291129080158216911516176146ef57565b5f52600760205260405f20906005820154908115614b70576003614b5192930190614316565b5490612710918281029281840414901517156146ef5761419e916147a2565b50506002015480156147ac576127100490565b15614b8a57565b60405162461bcd60e51b8152602060048201526011602482015270125b9d985b1a59081c9958da5c1a595b9d607a1b6044820152606490fd5b15614bca57565b60405162461bcd60e51b815260206004820152601760248201527f43616e6e6f742073656e6420746f20636f6e74726163740000000000000000006044820152606490fd5b15614c1657565b60405162461bcd60e51b8152602060048201526014602482015273496e73756666696369656e742062616c616e636560601b6044820152606490fd5b80518210156149e15760209160051b010190565b80548210156149e1575f5260205f2001905f90565b91909182516001600160401b0381116140ee57614c98825461433c565b601f8111614d3d575b50602080601f8311600114614cdc5750819293945f92614cd1575b50508160011b915f199060031b1c1916179055565b015190505f80614cbc565b90601f19831695845f5260205f20925f905b888210614d2557505083600195969710614d0d575b505050811b019055565b01515f1960f88460031b161c191690555f8080614d03565b80600185968294968601518155019501930190614cee565b825f5260205f20601f830160051c81019160208410614d78575b601f0160051c01905b818110614d6d5750614ca1565b5f8155600101614d60565b9091508190614d57565b15614d8957565b60405162461bcd60e51b815260206004820152601960248201527f496e73756666696369656e7420706f6f6c2062616c616e6365000000000000006044820152606490fd5b15614dd557565b60405162461bcd60e51b815260206004820152600f60248201526e496e76616c6964206f7574636f6d6560881b6044820152606490fd5b614e2460409295949395606083526060830190614253565b9460208201520152565b15614e3557565b60405162461bcd60e51b815260206004820152600a602482015269139bdb98d9481d5cd95960b21b6044820152606490fd5b15614e6e57565b60405162461bcd60e51b8152602060048201526012602482015271125b9cdd59999a58da595b9d081d985d5b1d60721b6044820152606490fd5b600160ff1b81146146ef575f0390565b15614ebf57565b60405162461bcd60e51b815260206004820152601960248201527f496e73756666696369656e74206a61636b706f7420706f6f6c000000000000006044820152606490fd5b91908110156149e15760051b0190565b15614f1b57565b60405162461bcd60e51b8152602060048201526011602482015270139bdd0818481c185c9d1a58da5c185b9d607a1b6044820152606490fd5b15614f5b57565b60405162461bcd60e51b8152602060048201526011602482015270139bc81c1bdcda5d1a5bdb88199bdd5b99607a1b6044820152606490fd5b15614f9b57565b60405162461bcd60e51b8152602060048201526013602482015272496e73756666696369656e742073686172657360681b6044820152606490fd5b5f805160206155248339815191526002815414614ff35760029055565b604051633ee5aeb560e01b8152600490fd5b60405163a9059cbb60e01b5f9081526001600160a01b039384166004526024949094529260209060448180855af160015f5114811615615064575b836040521561504e57505050565b635274afe760e01b835216600482015260249150fd5b600181151661507a57813b15153d151616615040565b833d5f823e3d90fd5b6040516323b872dd60e01b5f9081526001600160a01b03938416600452938316602452604494909452909160209060648180855af160015f51148116156150d7575b836040525f6060521561504e57505050565b600181151661507a57813b15153d1516166150c5565b916151416151479261419e9460405160208101917f19457468657265756d205369676e6564204d6573736167653a0a3332000000008352603c820152603c815261513681614102565b51902092369161413e565b906153d1565b9092919261540b565b905f81131561518a576151859160018060a01b03165f52601460205260405f2061517b82825461480c565b905560155461480c565b601555565b5f8112615195575050565b61519e90614ea8565b9060018060a01b0316805f5260146020526151bf8260405f20541015614e67565b5f52601460205260405f206151d58282546146e2565b9055601554908082106151eb57615185916146e2565b60405162461bcd60e51b815260206004820152601960248201527f5661756c74206c696162696c69747920756e646572666c6f77000000000000006044820152606490fd5b5f526020600760205260409160405f209260025f94018054945b85811061525b575050505050505f90565b61085061527761526b8385614c66565b50855192838092614374565b858151910120845186860120146152905760010161524a565b505050505050600190565b9291925f52600960205260405f209260018060a01b0380921693845f526020526152c860405f2082614316565b938454928316156153a8575b5050505f811315615373576152ee6002830191825461480c565b90555b5f82131561530c576003615308910191825461480c565b9055565b905f8112615318575050565b615323600391614ea8565b91019081549080821061533957615308916146e2565b60405162461bcd60e51b8152602060048201526012602482015271496e76657374656420756e646572666c6f7760701b6044820152606490fd5b5f8112615381575b506152f1565b61538a90614ea8565b6153a06002830191825461051b82821015614f94565b90555f61537b565b6153c9926bffffffffffffffffffffffff60a01b1617845560018401614c7b565b5f80806152d4565b8151919060418303615401576153fa9250602082015190606060408401519301515f1a90615496565b9192909190565b50505f9160029190565b615414816144b2565b8061541d575050565b615426816144b2565b600181036154405760405163f645eedf60e01b8152600490fd5b615449816144b2565b6002810361546a5760405163fce698f760e01b815260048101839052602490fd5b806154766003926144b2565b1461547e5750565b602490604051906335e2f38360e21b82526004820152fd5b91907f7fffffffffffffffffffffffffffffff5d576e7357a4501ddfe92f46681b20a08411615518579160209360809260ff5f9560405194855216868401526040830152606082015282805260015afa1561550d575f516001600160a01b0381161561550357905f905f90565b505f906001905f90565b6040513d5f823e3d90fd5b5050505f916003919056fe9b779b17422d0df92223018b32b4d1fa46e071723d6817e2486d003becc55f00a2646970667358221220118efd9d1142013e8a979156b1a654f3cab8a951eb9d83cc405e0e63c3c55dd264736f6c63430008180033",
  "immutableReferences": {
    "8936": [
      {
        "length": 32,
        "start": 1322
      },
      {
        "length": 32,
        "start": 1826
      },
      {
        "length": 32,
        "start": 2502
      },
      {
        "length": 32,
        "start": 3019
      },
      {
        "length": 32,
        "start": 5026
      },
      {
        "length": 32,
        "start": 5206
      },
      {
        "length": 32,
        "start": 5683
      },
      {
        "length": 32,
        "start": 6504
      },
      {
        "length": 32,
        "start": 6814
      },
      {
        "length": 32,
        "start": 7229
      },
      {
        "length": 32,
        "start": 7642
      },
      {
        "length": 32,
        "start": 7836
      },
      {
        "length": 32,
        "start": 9887
      },
      {
        "length": 32,
        "start": 10753
      },
      {
        "length": 32,
        "start": 11208
      },
      {
        "length": 32,
        "start": 11587
      },
      {
        "length": 32,
        "start": 13216
      },
      {
        "length": 32,
        "start": 13410
      },
      {
        "length": 32,
        "start": 13652
      },
      {
        "length": 32,
        "start": 14289
      },
      {
        "length": 32,
        "start": 14951
      },
      {
        "length": 32,
        "start": 16001
      }
    ]
  },
  "source": "// SPDX-License-Identifier: MIT\r\npragma solidity ^0.8.20;\r\n\r\nimport {IERC20} from \"@openzeppelin/contracts/token/ERC20/IERC20.sol\";\r\nimport {SafeERC20} from \"@openzeppelin/contracts/token/ERC20/utils/SafeERC20.sol\";\r\nimport {ReentrancyGuard} from \"@openzeppelin/contracts/utils/ReentrancyGuard.sol\";\r\nimport {ECDSA} from \"@openzeppelin/contracts/utils/cryptography/ECDSA.sol\";\r\n\r\n/**\r\n * @title WeRgame\r\n * @dev Comprehensive smart contract for prediction market platform\r\n * Handles market creation, trading, boost predictions, and jackpot management\r\n */\r\ncontract WeRgame is ReentrancyGuard {\r\n    using SafeERC20 for IERC20;\r\n\r\n    address public deployer;\r\n    address public superAdmin;\r\n    mapping(address => bool) public admins;\r\n\r\n    /// @notice Platform currency token (Base USDC). All pools and payouts are denominated in this token.\r\n    IERC20 public immutable usdc;\r\n    \r\n    // Fee structure (in basis points, 10000 = 100%)\r\n    uint256 public platformFee; // For boost predictions\r\n    uint256 public boostJackpotFee;\r\n    uint256 public marketPlatformFee;\r\n    uint256 public freeJackpotFee;\r\n    \r\n    // Market status enum\r\n    enum MarketStatus {\r\n        Upcoming,\r\n        Active,\r\n        Locked,\r\n        Resolved\r\n    }\r\n    \r\n    // Market structure\r\n    struct Market {\r\n        uint256 marketId;\r\n        bool isPoll; // true for poll, false for match\r\n        MarketStatus status;\r\n        string[] options; // Options/outcomes for this market\r\n        mapping(string => uint256) liquidity; // Liquidity per option\r\n        mapping(string => uint256) shares; // Total shares per option\r\n        uint256 totalLiquidity;\r\n        bool resolved;\r\n        string winningOption; // Set when resolved\r\n        uint256 createdAt;\r\n        uint256 resolvedAt;\r\n    }\r\n    \r\n    // Boost prediction structure\r\n    struct BoostPrediction {\r\n        address user;\r\n        uint256 marketId;\r\n        string outcome;\r\n        uint256 stakeAmount;\r\n        uint256 totalStake;\r\n        bool claimed;\r\n    }\r\n    \r\n    // Market trading position\r\n    struct MarketPosition {\r\n        address user;\r\n        string outcome;\r\n        uint256 shares;\r\n        uint256 totalInvested;\r\n    }\r\n    \r\n    // Mappings\r\n    mapping(uint256 => Market) public markets;\r\n    mapping(uint256 => mapping(address => mapping(string => BoostPrediction))) public boostPredictions; // marketId => user => outcome => prediction\r\n    mapping(uint256 => mapping(address => mapping(string => MarketPosition))) public marketPositions; // marketId => user => outcome => position\r\n    mapping(uint256 => mapping(address => uint256)) public claimableBalances; // marketId => user => claimable amount (legacy/total)\r\n    mapping(uint256 => mapping(address => uint256)) public claimableBoost;    // marketId => user => boost claimable\r\n    mapping(uint256 => mapping(address => uint256)) public claimableMarket;  // marketId => user => market claimable\r\n    mapping(address => uint256) public jackpotBalances; // user => jackpot balance\r\n    \r\n    uint256 public nextMarketId;\r\n    uint256 public jackpotPool;\r\n    /// @dev Pool for paying Boost and Market prediction wins; funded by deployer and by boost stakes\r\n    uint256 public claimPredictionWinsPool;\r\n\r\n    /// @notice Backend / ops wallet that signs authorized claims (set by deployer)\r\n    address public claimAuthSigner;\r\n    /// @notice Replay protection for signature-based prediction claims\r\n    mapping(bytes32 => bool) public usedAuthPredictionClaims;\r\n    /// @notice Replay protection for signature-based jackpot withdrawals\r\n    mapping(bytes32 => bool) public usedJackpotWithdrawNonces;\r\n    /// @notice USDC credited to users for orderbook trading (deposit / settlement)\r\n    mapping(address => uint256) public tradingVaultBalances;\r\n    /// @notice Sum of all tradingVaultBalances — used to prevent superAdmin draining user vault collateral\r\n    uint256 public totalTradingVaultLiabilities;\r\n    mapping(bytes32 => bool) public usedTradingVaultWithdrawNonces;\r\n    /// @notice Replay for orderbook position claims (separate from boost/market auth key space)\r\n    mapping(bytes32 => bool) public usedOrderbookClaimKeys;\r\n    /// @notice On-chain reference liquidity for YES/NO books per outcome option (USDC units)\r\n    mapping(uint256 => mapping(string => uint256)) public orderbookLiquidityYes;\r\n    mapping(uint256 => mapping(string => uint256)) public orderbookLiquidityNo;\r\n    mapping(uint256 => mapping(string => uint256)) public orderbookSharesYes;\r\n    mapping(uint256 => mapping(string => uint256)) public orderbookSharesNo;\r\n    \r\n    // Events\r\n    event MarketCreated(uint256 indexed marketId, bool isPoll, string[] options);\r\n    event MarketStatusUpdated(uint256 indexed marketId, MarketStatus status);\r\n    event MarketResolved(uint256 indexed marketId, string winningOption);\r\n    event LiquidityAdded(uint256 indexed marketId, string option, uint256 amount);\r\n    event FeesUpdated(uint256 platformFee, uint256 boostJackpotFee, uint256 marketPlatformFee, uint256 freeJackpotFee);\r\n    event BoostStaked(uint256 indexed marketId, address indexed user, string outcome, uint256 amount);\r\n    event BoostStakeAdded(uint256 indexed marketId, address indexed user, uint256 amount);\r\n    event BoostStakeWithdrawn(uint256 indexed marketId, address indexed user, uint256 amount);\r\n    event BoostClaimed(uint256 indexed marketId, address indexed user, uint256 amount);\r\n    event MarketBought(uint256 indexed marketId, address indexed user, string outcome, uint256 ethAmount, uint256 shares);\r\n    event MarketSold(uint256 indexed marketId, address indexed user, string outcome, uint256 shares, uint256 ethAmount);\r\n    event MarketClaimed(uint256 indexed marketId, address indexed user, string outcome, uint256 amount);\r\n    event JackpotFunded(uint256 amount);\r\n    event JackpotWithdrawn(address indexed user, uint256 amount);\r\n    event JackpotPoolWithdrawn(address indexed to, uint256 amount);\r\n    event FundsTransferred(address indexed to, uint256 amount);\r\n    event ClaimPredictionWinsPoolFunded(uint256 amount);\r\n    event ClaimPredictionWinsPoolWithdrawn(address indexed to, uint256 amount);\r\n    event PredictionWinsClaimed(uint256 indexed marketId, address indexed user, uint256 amount);\r\n    event TradingVaultDeposited(address indexed user, uint256 amount);\r\n    event TradingVaultWithdrawn(address indexed user, uint256 amount);\r\n    event OrderbookLiquidityBatchAdded(uint256 indexed marketId, uint256 totalAmount);\r\n    event OrderbookSettlementsApplied(\r\n        uint256 indexed marketId,\r\n        uint256 legs,\r\n        uint256 feeToClaimPool,\r\n        uint256 feeToJackpotPool\r\n    );\r\n    event OrderbookPositionClaimed(uint256 indexed marketId, address indexed user, string positionKey, uint256 amount);\r\n    event ContractMigratedForUpgrade(address indexed to, uint256 amount);\r\n    \r\n    modifier onlyDeployer() {\r\n        require(msg.sender == deployer, \"Only deployer\");\r\n        _;\r\n    }\r\n    \r\n    modifier onlySuperAdmin() {\r\n        require(msg.sender == superAdmin || msg.sender == deployer, \"Only superAdmin\");\r\n        _;\r\n    }\r\n\r\n    modifier onlyAdmin() {\r\n        require(msg.sender == deployer || admins[msg.sender], \"Only admin\");\r\n        _;\r\n    }\r\n    \r\n    modifier validMarket(uint256 marketId) {\r\n        require(markets[marketId].marketId != 0, \"Market does not exist\");\r\n        _;\r\n    }\r\n\r\n    function _marketHasOption(uint256 marketId, string memory option) internal view returns (bool) {\r\n        Market storage market = markets[marketId];\r\n        for (uint256 i = 0; i < market.options.length; i++) {\r\n            if (keccak256(bytes(market.options[i])) == keccak256(bytes(option))) {\r\n                return true;\r\n            }\r\n        }\r\n        return false;\r\n    }\r\n\r\n    function _applyVaultDelta(address user, int256 delta) internal {\r\n        if (delta > 0) {\r\n            tradingVaultBalances[user] += uint256(delta);\r\n            totalTradingVaultLiabilities += uint256(delta);\r\n        } else if (delta < 0) {\r\n            uint256 dec = uint256(-delta);\r\n            require(tradingVaultBalances[user] >= dec, \"Insufficient vault\");\r\n            tradingVaultBalances[user] -= dec;\r\n            require(totalTradingVaultLiabilities >= dec, \"Vault liability underflow\");\r\n            totalTradingVaultLiabilities -= dec;\r\n        }\r\n    }\r\n\r\n    function _applyShareDelta(uint256 marketId, address user, string memory positionKey, int256 sharesDelta, int256 investedDelta) internal {\r\n        MarketPosition storage position = marketPositions[marketId][user][positionKey];\r\n        if (position.user == address(0)) {\r\n            position.user = user;\r\n            position.outcome = positionKey;\r\n        }\r\n        if (sharesDelta > 0) {\r\n            position.shares += uint256(sharesDelta);\r\n        } else if (sharesDelta < 0) {\r\n            uint256 dec = uint256(-sharesDelta);\r\n            require(position.shares >= dec, \"Insufficient shares\");\r\n            position.shares -= dec;\r\n        }\r\n        if (investedDelta > 0) {\r\n            position.totalInvested += uint256(investedDelta);\r\n        } else if (investedDelta < 0) {\r\n            uint256 dec2 = uint256(-investedDelta);\r\n            require(position.totalInvested >= dec2, \"Invested underflow\");\r\n            position.totalInvested -= dec2;\r\n        }\r\n    }\r\n    \r\n    /// @dev EIP-191 personal_sign over keccak256(abi.encodePacked(...fields...))\r\n    function _recoverAuthSigner(bytes32 messageHash, bytes calldata signature) internal pure returns (address) {\r\n        bytes32 ethSigned = keccak256(abi.encodePacked(\"\\x19Ethereum Signed Message:\\n32\", messageHash));\r\n        return ECDSA.recover(ethSigned, signature);\r\n    }\r\n    \r\n    constructor(address usdcToken) {\r\n        require(usdcToken != address(0), \"Invalid USDC token\");\r\n        deployer = msg.sender;\r\n        superAdmin = msg.sender;\r\n        admins[msg.sender] = true;\r\n        usdc = IERC20(usdcToken);\r\n        \r\n        // Default fees (in basis points: 1000 = 10%, 500 = 5%)\r\n        platformFee = 1000; // 10%\r\n        boostJackpotFee = 500; // 5%\r\n        marketPlatformFee = 500; // 5%\r\n        freeJackpotFee = 500; // 5%\r\n        \r\n        nextMarketId = 1;\r\n        // Default to deployer; change with setClaimAuthSigner if backend uses a dedicated ops key.\r\n        claimAuthSigner = msg.sender;\r\n    }\r\n    \r\n    /**\r\n     * @dev Create a new market (match or poll)\r\n     * @param isPoll true if poll, false if match\r\n     * @param options array of outcome options\r\n     */\r\n    function createMarket(bool isPoll, string[] memory options) external onlyAdmin returns (uint256) {\r\n        require(options.length >= 2, \"Must have at least 2 options\");\r\n        \r\n        uint256 marketId = nextMarketId++;\r\n        Market storage market = markets[marketId];\r\n        market.marketId = marketId;\r\n        market.isPoll = isPoll;\r\n        market.status = MarketStatus.Upcoming;\r\n        market.createdAt = block.timestamp;\r\n        \r\n        // Initialize options\r\n        for (uint256 i = 0; i < options.length; i++) {\r\n            market.options.push(options[i]);\r\n            market.liquidity[options[i]] = 0;\r\n            market.shares[options[i]] = 0;\r\n        }\r\n        \r\n        emit MarketCreated(marketId, isPoll, options);\r\n        return marketId;\r\n    }\r\n    \r\n    /**\r\n     * @dev Update market status\r\n     */\r\n    function updateMarketStatus(uint256 marketId, MarketStatus status) external onlyAdmin validMarket(marketId) {\r\n        markets[marketId].status = status;\r\n        emit MarketStatusUpdated(marketId, status);\r\n    }\r\n    \r\n    /**\r\n     * @dev Add initial liquidity to a market option\r\n     */\r\n    function addLiquidity(uint256 marketId, string memory option, uint256 amount) external onlyAdmin validMarket(marketId) {\r\n        require(amount > 0, \"Amount must be greater than 0\");\r\n        \r\n        Market storage market = markets[marketId];\r\n        require(market.status == MarketStatus.Upcoming || market.status == MarketStatus.Active, \"Market not active\");\r\n        \r\n        // Verify option exists\r\n        bool optionExists = false;\r\n        for (uint256 i = 0; i < market.options.length; i++) {\r\n            if (keccak256(bytes(market.options[i])) == keccak256(bytes(option))) {\r\n                optionExists = true;\r\n                break;\r\n            }\r\n        }\r\n        require(optionExists, \"Invalid option\");\r\n        \r\n        usdc.safeTransferFrom(msg.sender, address(this), amount);\r\n\r\n        market.liquidity[option] += amount;\r\n        market.totalLiquidity += amount;\r\n        \r\n        emit LiquidityAdded(marketId, option, amount);\r\n    }\r\n    \r\n    /**\r\n     * @dev Resolve a market\r\n     */\r\n    function resolveMarket(uint256 marketId, string memory winningOption) external onlyAdmin validMarket(marketId) {\r\n        Market storage market = markets[marketId];\r\n        require(market.status != MarketStatus.Resolved, \"Already resolved\");\r\n        \r\n        // Verify option exists\r\n        bool optionExists = false;\r\n        for (uint256 i = 0; i < market.options.length; i++) {\r\n            if (keccak256(bytes(market.options[i])) == keccak256(bytes(winningOption))) {\r\n                optionExists = true;\r\n                break;\r\n            }\r\n        }\r\n        require(optionExists, \"Invalid winning option\");\r\n        \r\n        market.status = MarketStatus.Resolved;\r\n        market.resolved = true;\r\n        market.winningOption = winningOption;\r\n        market.resolvedAt = block.timestamp;\r\n        \r\n        emit MarketResolved(marketId, winningOption);\r\n    }\r\n    \r\n    /**\r\n     * @dev Set fees (in basis points)\r\n     */\r\n    /**\r\n     * @dev Set wallet whose signatures authorize user claims (off-chain payout amount). Use the same key as CLAIM_AUTH_PRIVATE_KEY on the API.\r\n     */\r\n    function setClaimAuthSigner(address signer) external onlyDeployer {\r\n        require(signer != address(0), \"Invalid signer\");\r\n        claimAuthSigner = signer;\r\n    }\r\n    \r\n    function setFees(\r\n        uint256 _platformFee,\r\n        uint256 _boostJackpotFee,\r\n        uint256 _marketPlatformFee,\r\n        uint256 _freeJackpotFee\r\n    ) external onlyDeployer {\r\n        require(_platformFee <= 10000 && _boostJackpotFee <= 10000 && \r\n                _marketPlatformFee <= 10000 && _freeJackpotFee <= 10000, \"Fees cannot exceed 100%\");\r\n        \r\n        platformFee = _platformFee;\r\n        boostJackpotFee = _boostJackpotFee;\r\n        marketPlatformFee = _marketPlatformFee;\r\n        freeJackpotFee = _freeJackpotFee;\r\n        \r\n        emit FeesUpdated(_platformFee, _boostJackpotFee, _marketPlatformFee, _freeJackpotFee);\r\n    }\r\n    \r\n    /**\r\n     * @dev Get current fees\r\n     */\r\n    function getFees() external view returns (\r\n        uint256 _platformFee,\r\n        uint256 _boostJackpotFee,\r\n        uint256 _marketPlatformFee,\r\n        uint256 _freeJackpotFee\r\n    ) {\r\n        return (platformFee, boostJackpotFee, marketPlatformFee, freeJackpotFee);\r\n    }\r\n    \r\n    /**\r\n     * @dev Get options for a market (so frontend can validate outcome before staking)\r\n     */\r\n    function getMarketOptions(uint256 marketId) external view validMarket(marketId) returns (string[] memory) {\r\n        return markets[marketId].options;\r\n    }\r\n    \r\n    /**\r\n     * @dev Stake USDC for boost prediction. Net stake + platform fee fund `claimPredictionWinsPool`\r\n     *      (same pool `claimPredictionWinsWithAuth` pays from); jackpot fee funds `jackpotPool`.\r\n     */\r\n    function stakeBoost(uint256 marketId, string memory outcome, uint256 amount) external validMarket(marketId) nonReentrant {\r\n        require(amount > 0, \"Amount must be greater than 0\");\r\n        Market storage market = markets[marketId];\r\n        require(market.status == MarketStatus.Upcoming || market.status == MarketStatus.Active, \"Market not active\");\r\n        \r\n        // Verify option exists\r\n        bool optionExists = false;\r\n        for (uint256 i = 0; i < market.options.length; i++) {\r\n            if (keccak256(bytes(market.options[i])) == keccak256(bytes(outcome))) {\r\n                optionExists = true;\r\n                break;\r\n            }\r\n        }\r\n        require(optionExists, \"Invalid outcome\");\r\n        \r\n        usdc.safeTransferFrom(msg.sender, address(this), amount);\r\n\r\n        uint256 platformFeeAmount = (amount * platformFee) / 10000;\r\n        uint256 jackpotFeeAmount = (amount * freeJackpotFee) / 10000;\r\n        uint256 netStake = amount - platformFeeAmount - jackpotFeeAmount;\r\n        require(netStake > 0, \"Stake too small after fees\");\r\n        \r\n        // Update or create boost prediction\r\n        BoostPrediction storage prediction = boostPredictions[marketId][msg.sender][outcome];\r\n        if (prediction.user == address(0)) {\r\n            // New prediction\r\n            prediction.user = msg.sender;\r\n            prediction.marketId = marketId;\r\n            prediction.outcome = outcome;\r\n            prediction.stakeAmount = netStake;\r\n            prediction.totalStake = netStake;\r\n        } else {\r\n            // Update existing prediction\r\n            prediction.totalStake += netStake;\r\n        }\r\n        \r\n        claimPredictionWinsPool += netStake + platformFeeAmount;\r\n        jackpotPool += jackpotFeeAmount;\r\n        \r\n        emit BoostStaked(marketId, msg.sender, outcome, netStake);\r\n    }\r\n    \r\n    /**\r\n     * @dev Add more stake to existing boost prediction\r\n     */\r\n    function addBoostStake(uint256 marketId, string memory outcome, uint256 amount) external validMarket(marketId) nonReentrant {\r\n        require(amount > 0, \"Amount must be greater than 0\");\r\n        Market storage market = markets[marketId];\r\n        require(market.status == MarketStatus.Upcoming || market.status == MarketStatus.Active, \"Market not active\");\r\n        \r\n        BoostPrediction storage prediction = boostPredictions[marketId][msg.sender][outcome];\r\n        require(prediction.user == msg.sender, \"No existing prediction\");\r\n        \r\n        usdc.safeTransferFrom(msg.sender, address(this), amount);\r\n\r\n        uint256 platformFeeAmount = (amount * platformFee) / 10000;\r\n        uint256 jackpotFeeAmount = (amount * freeJackpotFee) / 10000;\r\n        uint256 netStake = amount - platformFeeAmount - jackpotFeeAmount;\r\n        require(netStake > 0, \"Stake too small after fees\");\r\n        \r\n        prediction.totalStake += netStake;\r\n        \r\n        claimPredictionWinsPool += netStake + platformFeeAmount;\r\n        jackpotPool += jackpotFeeAmount;\r\n        \r\n        emit BoostStakeAdded(marketId, msg.sender, netStake);\r\n    }\r\n    \r\n    /**\r\n     * @dev Withdraw stake from boost prediction (only before resolution)\r\n     */\r\n    function withdrawBoostStake(uint256 marketId, string memory outcome, uint256 amount) external validMarket(marketId) nonReentrant {\r\n        Market storage market = markets[marketId];\r\n        require(market.status == MarketStatus.Upcoming || market.status == MarketStatus.Active, \"Market not active\");\r\n        \r\n        BoostPrediction storage prediction = boostPredictions[marketId][msg.sender][outcome];\r\n        require(prediction.user == msg.sender, \"No prediction found\");\r\n        require(prediction.totalStake >= amount, \"Insufficient stake\");\r\n        \r\n        prediction.totalStake -= amount;\r\n        require(claimPredictionWinsPool >= amount, \"Insufficient claim pool\");\r\n        claimPredictionWinsPool -= amount;\r\n        \r\n        usdc.safeTransfer(msg.sender, amount);\r\n        \r\n        emit BoostStakeWithdrawn(marketId, msg.sender, amount);\r\n    }\r\n    \r\n    /**\r\n     * @dev Claim boost prediction winnings\r\n     */\r\n    function claimBoost(uint256 marketId, string memory outcome) external validMarket(marketId) nonReentrant {\r\n        Market storage market = markets[marketId];\r\n        require(market.resolved, \"Market not resolved\");\r\n        require(keccak256(bytes(market.winningOption)) == keccak256(bytes(outcome)), \"Not winning outcome\");\r\n        \r\n        BoostPrediction storage prediction = boostPredictions[marketId][msg.sender][outcome];\r\n        require(prediction.user == msg.sender, \"No prediction found\");\r\n        require(!prediction.claimed, \"Already claimed\");\r\n        require(prediction.totalStake > 0, \"No stake to claim\");\r\n        \r\n        // Calculate claimable amount (backend will set this via setClaimableBalance)\r\n        uint256 claimable = claimableBalances[marketId][msg.sender];\r\n        require(claimable > 0, \"No claimable balance\");\r\n        require(claimPredictionWinsPool >= claimable, \"Insufficient claim pool\");\r\n        \r\n        prediction.claimed = true;\r\n        claimableBalances[marketId][msg.sender] = 0;\r\n        claimPredictionWinsPool -= claimable;\r\n        \r\n        usdc.safeTransfer(msg.sender, claimable);\r\n        \r\n        emit BoostClaimed(marketId, msg.sender, claimable);\r\n    }\r\n    \r\n    /**\r\n     * @dev Set claimable balance for a user (legacy; prefer setClaimableBoost/setClaimableMarket)\r\n     */\r\n    function setClaimableBalance(uint256 marketId, address user, uint256 amount) external onlyAdmin {\r\n        claimableBalances[marketId][user] = amount;\r\n    }\r\n    \r\n    /**\r\n     * @dev Set claimable boost amount for a user (called after resolution).\r\n     */\r\n    function setClaimableBoost(uint256 marketId, address user, uint256 amount) external onlyAdmin {\r\n        claimableBoost[marketId][user] = amount;\r\n    }\r\n    \r\n    /**\r\n     * @dev Set claimable market amount for a user (called after resolution).\r\n     */\r\n    function setClaimableMarket(uint256 marketId, address user, uint256 amount) external onlyAdmin {\r\n        claimableMarket[marketId][user] = amount;\r\n    }\r\n    \r\n    /**\r\n     * @dev Claim prediction winnings (Boost or Market) for a resolved market.\r\n     * @param marketId Market id\r\n     * @param isBoost true to claim boost winnings, false to claim market winnings. Pays from claimPredictionWinsPool.\r\n     */\r\n    function claimPredictionWins(uint256 marketId, bool isBoost) external validMarket(marketId) nonReentrant {\r\n        Market storage market = markets[marketId];\r\n        require(market.resolved, \"Market not resolved\");\r\n        \r\n        string memory winningOption = market.winningOption;\r\n        uint256 amount;\r\n        \r\n        if (isBoost) {\r\n            amount = claimableBoost[marketId][msg.sender];\r\n            require(amount > 0, \"No claimable balance\");\r\n            BoostPrediction storage boostPred = boostPredictions[marketId][msg.sender][winningOption];\r\n            require(boostPred.user == msg.sender && boostPred.totalStake > 0 && !boostPred.claimed, \"Not a participant\");\r\n            require(claimPredictionWinsPool >= amount, \"Insufficient claim pool\");\r\n            claimableBoost[marketId][msg.sender] = 0;\r\n            boostPred.claimed = true;\r\n        } else {\r\n            amount = claimableMarket[marketId][msg.sender];\r\n            require(amount > 0, \"No claimable balance\");\r\n            MarketPosition storage pos = marketPositions[marketId][msg.sender][winningOption];\r\n            require(pos.user == msg.sender && pos.shares > 0, \"Not a participant\");\r\n            require(claimPredictionWinsPool >= amount, \"Insufficient claim pool\");\r\n            claimableMarket[marketId][msg.sender] = 0;\r\n        }\r\n        \r\n        claimPredictionWinsPool -= amount;\r\n        usdc.safeTransfer(msg.sender, amount);\r\n        emit PredictionWinsClaimed(marketId, msg.sender, amount);\r\n    }\r\n\r\n    /**\r\n     * @dev Claim boost or market winnings using a signature from `claimAuthSigner`. Amount must match what the backend encoded (off-chain payout).\r\n     * Replaces relying on claimableBoost / claimableMarket mappings for normal user flow.\r\n     */\r\n    function claimPredictionWinsWithAuth(\r\n        uint256 marketId,\r\n        bool isBoost,\r\n        uint256 amount,\r\n        bytes32 predictionId,\r\n        uint256 deadline,\r\n        bytes calldata signature\r\n    ) external validMarket(marketId) nonReentrant {\r\n        require(claimAuthSigner != address(0), \"Claim signer not set\");\r\n        require(block.timestamp <= deadline, \"Expired\");\r\n        require(amount > 0, \"Zero amount\");\r\n\r\n        bytes32 authKey = keccak256(abi.encodePacked(msg.sender, predictionId));\r\n        require(!usedAuthPredictionClaims[authKey], \"Already claimed\");\r\n\r\n        bytes32 messageHash = keccak256(\r\n            abi.encodePacked(\r\n                msg.sender,\r\n                marketId,\r\n                isBoost,\r\n                amount,\r\n                predictionId,\r\n                deadline,\r\n                block.chainid,\r\n                address(this)\r\n            )\r\n        );\r\n        address recovered = _recoverAuthSigner(messageHash, signature);\r\n        require(recovered != address(0) && recovered == claimAuthSigner, \"Invalid signature\");\r\n\r\n        Market storage market = markets[marketId];\r\n        require(market.resolved, \"Market not resolved\");\r\n        string memory winningOption = market.winningOption;\r\n\r\n        if (isBoost) {\r\n            BoostPrediction storage boostPred = boostPredictions[marketId][msg.sender][winningOption];\r\n            require(boostPred.user == msg.sender && boostPred.totalStake > 0 && !boostPred.claimed, \"Not a boost participant\");\r\n            boostPred.claimed = true;\r\n        } else {\r\n            MarketPosition storage pos = marketPositions[marketId][msg.sender][winningOption];\r\n            require(pos.user == msg.sender && pos.shares > 0, \"Not a market participant\");\r\n            pos.shares = 0;\r\n            pos.totalInvested = 0;\r\n        }\r\n\r\n        require(claimPredictionWinsPool >= amount, \"Insufficient claim pool\");\r\n        usedAuthPredictionClaims[authKey] = true;\r\n        claimPredictionWinsPool -= amount;\r\n        usdc.safeTransfer(msg.sender, amount);\r\n        emit PredictionWinsClaimed(marketId, msg.sender, amount);\r\n    }\r\n    \r\n    /**\r\n     * @dev Withdraw from jackpot pool using a signature from `claimAuthSigner`.\r\n     * Enforces per-user on-chain `jackpotBalances` (synced from admin/backend on resolve).\r\n     */\r\n    function withdrawJackpotWithAuth(\r\n        uint256 amount,\r\n        bytes32 nonce,\r\n        uint256 deadline,\r\n        bytes calldata signature\r\n    ) external nonReentrant {\r\n        require(claimAuthSigner != address(0), \"Claim signer not set\");\r\n        require(block.timestamp <= deadline, \"Expired\");\r\n        require(amount > 0, \"Zero amount\");\r\n        require(!usedJackpotWithdrawNonces[nonce], \"Nonce used\");\r\n\r\n        bytes32 messageHash = keccak256(\r\n            abi.encodePacked(msg.sender, amount, nonce, deadline, block.chainid, address(this))\r\n        );\r\n        address recovered = _recoverAuthSigner(messageHash, signature);\r\n        require(recovered != address(0) && recovered == claimAuthSigner, \"Invalid signature\");\r\n\r\n        require(jackpotBalances[msg.sender] >= amount, \"Insufficient balance\");\r\n        require(jackpotPool >= amount, \"Insufficient jackpot pool\");\r\n        usedJackpotWithdrawNonces[nonce] = true;\r\n        jackpotBalances[msg.sender] -= amount;\r\n        jackpotPool -= amount;\r\n\r\n        usdc.safeTransfer(msg.sender, amount);\r\n        emit JackpotWithdrawn(msg.sender, amount);\r\n    }\r\n\r\n    /**\r\n     * @dev Fund the claim prediction wins pool (super admin or deployer).\r\n     */\r\n    function fundClaimPredictionWinsPool(uint256 amount) external onlySuperAdmin {\r\n        require(amount > 0, \"Amount must be greater than 0\");\r\n        usdc.safeTransferFrom(msg.sender, address(this), amount);\r\n        claimPredictionWinsPool += amount;\r\n        emit ClaimPredictionWinsPoolFunded(amount);\r\n    }\r\n    \r\n    /**\r\n     * @dev Withdraw from claim prediction wins pool (deployer only).\r\n     */\r\n    function withdrawFromClaimPredictionWinsPool(address payable to, uint256 amount) external onlySuperAdmin nonReentrant {\r\n        require(to != address(0), \"Invalid recipient\");\r\n        require(to != address(this), \"Cannot send to contract\");\r\n        require(amount > 0, \"Amount must be greater than 0\");\r\n        require(claimPredictionWinsPool >= amount, \"Insufficient pool balance\");\r\n        claimPredictionWinsPool -= amount;\r\n        usdc.safeTransfer(to, amount);\r\n        emit ClaimPredictionWinsPoolWithdrawn(to, amount);\r\n    }\r\n    \r\n    /**\r\n     * @dev Buy shares in market (fixed-sum AMM)\r\n     */\r\n    function buyMarketShares(uint256 marketId, string memory outcome, uint256 amount) external validMarket(marketId) nonReentrant {\r\n        require(amount > 0, \"Amount must be greater than 0\");\r\n        Market storage market = markets[marketId];\r\n        require(market.status == MarketStatus.Upcoming || market.status == MarketStatus.Active, \"Market not active\");\r\n        \r\n        // Verify option exists\r\n        bool optionExists = false;\r\n        for (uint256 i = 0; i < market.options.length; i++) {\r\n            if (keccak256(bytes(market.options[i])) == keccak256(bytes(outcome))) {\r\n                optionExists = true;\r\n                break;\r\n            }\r\n        }\r\n        require(optionExists, \"Invalid outcome\");\r\n        \r\n        // Calculate fees\r\n        usdc.safeTransferFrom(msg.sender, address(this), amount);\r\n\r\n        uint256 platformFeeAmount = (amount * marketPlatformFee) / 10000;\r\n        uint256 freeJackpotFeeAmount = (amount * freeJackpotFee) / 10000;\r\n        uint256 netAmount = amount - platformFeeAmount - freeJackpotFeeAmount;\r\n        require(netAmount > 0, \"Amount too small after fees\");\r\n        \r\n        // Calculate current price (liquidity / total liquidity)\r\n        uint256 currentPrice = market.totalLiquidity > 0 \r\n            ? (market.liquidity[outcome] * 10000) / market.totalLiquidity \r\n            : (10000 / market.options.length); // Equal distribution if no liquidity\r\n        \r\n        // Calculate shares received\r\n        uint256 shares = (netAmount * 10000) / currentPrice;\r\n        \r\n        // Update liquidity (fixed-sum AMM: buying increases selected option's liquidity)\r\n        market.liquidity[outcome] += netAmount;\r\n        market.totalLiquidity += netAmount;\r\n        market.shares[outcome] += shares;\r\n        \r\n        // Update user position\r\n        MarketPosition storage position = marketPositions[marketId][msg.sender][outcome];\r\n        if (position.user == address(0)) {\r\n            position.user = msg.sender;\r\n            position.outcome = outcome;\r\n        }\r\n        position.shares += shares;\r\n        position.totalInvested += netAmount;\r\n        \r\n        // Market buys fund the claim prediction wins pool; jackpot fee share goes to jackpotPool\r\n        claimPredictionWinsPool += netAmount + platformFeeAmount;\r\n        if (freeJackpotFeeAmount > 0) {\r\n            jackpotPool += freeJackpotFeeAmount;\r\n        }\r\n        \r\n        emit MarketBought(marketId, msg.sender, outcome, netAmount, shares);\r\n    }\r\n    \r\n    /**\r\n     * @dev Sell shares in market\r\n     */\r\n    function sellMarketShares(uint256 marketId, string memory outcome, uint256 shares) external validMarket(marketId) nonReentrant {\r\n        Market storage market = markets[marketId];\r\n        require(market.status == MarketStatus.Upcoming || market.status == MarketStatus.Active, \"Market not active\");\r\n        \r\n        MarketPosition storage position = marketPositions[marketId][msg.sender][outcome];\r\n        require(position.user == msg.sender, \"No position found\");\r\n        require(position.shares >= shares, \"Insufficient shares\");\r\n        \r\n        // Calculate current price\r\n        uint256 currentPrice = market.totalLiquidity > 0 \r\n            ? (market.liquidity[outcome] * 10000) / market.totalLiquidity \r\n            : (10000 / market.options.length);\r\n        \r\n        // Calculate payout\r\n        uint256 payout = (shares * currentPrice) / 10000;\r\n        require(market.liquidity[outcome] >= payout, \"Insufficient market liquidity\");\r\n        require(market.shares[outcome] >= shares, \"Insufficient market shares\");\r\n        \r\n        // Update liquidity (selling decreases selected option's liquidity)\r\n        market.liquidity[outcome] -= payout;\r\n        market.totalLiquidity -= payout;\r\n        market.shares[outcome] -= shares;\r\n        \r\n        // Update user position\r\n        position.shares -= shares;\r\n        position.totalInvested -= (payout * position.totalInvested) / (position.shares + shares);\r\n        \r\n        // Deduct from claim prediction wins pool when user sells (pool was credited on buy)\r\n        require(claimPredictionWinsPool >= payout, \"Insufficient claim pool\");\r\n        claimPredictionWinsPool -= payout;\r\n        \r\n        usdc.safeTransfer(msg.sender, payout);\r\n        \r\n        emit MarketSold(marketId, msg.sender, outcome, shares, payout);\r\n    }\r\n    \r\n    /**\r\n     * @dev Claim market winnings after resolution\r\n     */\r\n    function claimMarket(uint256 marketId, string memory outcome) external validMarket(marketId) nonReentrant {\r\n        Market storage market = markets[marketId];\r\n        require(market.resolved, \"Market not resolved\");\r\n        require(keccak256(bytes(market.winningOption)) == keccak256(bytes(outcome)), \"Not winning outcome\");\r\n        \r\n        MarketPosition storage position = marketPositions[marketId][msg.sender][outcome];\r\n        require(position.user == msg.sender, \"No position found\");\r\n        require(position.shares > 0, \"No shares to claim\");\r\n        \r\n        // Calculate claimable amount (backend will set this)\r\n        uint256 claimable = claimableBalances[marketId][msg.sender];\r\n        require(claimable > 0, \"No claimable balance\");\r\n        require(claimPredictionWinsPool >= claimable, \"Insufficient claim pool\");\r\n        \r\n        claimableBalances[marketId][msg.sender] = 0;\r\n        claimPredictionWinsPool -= claimable;\r\n        \r\n        usdc.safeTransfer(msg.sender, claimable);\r\n        \r\n        emit MarketClaimed(marketId, msg.sender, outcome, claimable);\r\n    }\r\n    \r\n    /**\r\n     * @dev Get current price for an option (in basis points)\r\n     */\r\n    function getPrice(uint256 marketId, string memory outcome) external view validMarket(marketId) returns (uint256) {\r\n        Market storage market = markets[marketId];\r\n        if (market.totalLiquidity == 0) {\r\n            return (10000 / market.options.length);\r\n        }\r\n        return (market.liquidity[outcome] * 10000) / market.totalLiquidity;\r\n    }\r\n    \r\n    /**\r\n     * @dev Get user's market position\r\n     */\r\n    function getUserPosition(uint256 marketId, address user, string memory outcome) external view validMarket(marketId) returns (uint256 shares, uint256 totalInvested) {\r\n        MarketPosition storage position = marketPositions[marketId][user][outcome];\r\n        return (position.shares, position.totalInvested);\r\n    }\r\n    \r\n    /**\r\n     * @dev Get user's boost prediction\r\n     */\r\n    function getBoostPrediction(uint256 marketId, address user, string memory outcome) external view validMarket(marketId) returns (\r\n        address _user,\r\n        uint256 _totalStake,\r\n        bool _claimed\r\n    ) {\r\n        BoostPrediction storage prediction = boostPredictions[marketId][user][outcome];\r\n        return (prediction.user, prediction.totalStake, prediction.claimed);\r\n    }\r\n    \r\n    /**\r\n     * @dev Fund jackpot pool (deployer only)\r\n     */\r\n    function fundJackpotPool(uint256 amount) external onlyDeployer {\r\n        require(amount > 0, \"Amount must be greater than 0\");\r\n        usdc.safeTransferFrom(msg.sender, address(this), amount);\r\n        jackpotPool += amount;\r\n        emit JackpotFunded(amount);\r\n    }\r\n    \r\n    /**\r\n     * @dev User withdraw from jackpot pool\r\n     */\r\n    function withdrawJackpot(uint256 amount) external nonReentrant {\r\n        require(amount > 0, \"Amount must be greater than 0\");\r\n        require(jackpotPool >= amount, \"Insufficient jackpot pool\");\r\n        require(jackpotBalances[msg.sender] >= amount, \"Insufficient balance\");\r\n        \r\n        jackpotBalances[msg.sender] -= amount;\r\n        jackpotPool -= amount;\r\n        \r\n        usdc.safeTransfer(msg.sender, amount);\r\n        \r\n        emit JackpotWithdrawn(msg.sender, amount);\r\n    }\r\n    \r\n    /**\r\n     * @dev Set user's jackpot balance (called by backend after resolve / reconciliation).\r\n     */\r\n    function setJackpotBalance(address user, uint256 amount) external onlyAdmin {\r\n        jackpotBalances[user] = amount;\r\n    }\r\n\r\n    /**\r\n     * @dev Batch-set on-chain jackpot balances after resolve (gas-efficient sync with off-chain ledger).\r\n     */\r\n    function batchSetJackpotBalances(address[] calldata users, uint256[] calldata amounts) external onlyAdmin {\r\n        require(users.length == amounts.length, \"Length mismatch\");\r\n        for (uint256 i = 0; i < users.length; i++) {\r\n            jackpotBalances[users[i]] = amounts[i];\r\n        }\r\n    }\r\n    \r\n    /**\r\n     * @dev Withdraw from jackpot pool (deployer only)\r\n     */\r\n    function withdrawFromJackpotPool(address payable to, uint256 amount) external onlyDeployer nonReentrant {\r\n        require(to != address(0), \"Invalid recipient\");\r\n        require(to != address(this), \"Cannot send to contract\");\r\n        require(amount > 0, \"Amount must be greater than 0\");\r\n        require(jackpotPool >= amount, \"Insufficient pool balance\");\r\n        jackpotPool -= amount;\r\n        usdc.safeTransfer(to, amount);\r\n\r\n        emit JackpotPoolWithdrawn(to, amount);\r\n    }\r\n    \r\n    /**\r\n     * @dev Get contract balance\r\n     */\r\n    function getContractBalance() external view returns (uint256) {\r\n        return usdc.balanceOf(address(this));\r\n    }\r\n    \r\n    /**\r\n     * @dev Transfer surplus USDC (above claim pool + jackpot + user vault liabilities).\r\n     *      Callable by deployer or superAdmin. For full contract drain before upgrade, use\r\n     *      `migrateAllFundsForUpgrade`.\r\n     */\r\n    function transferFunds(address payable to, uint256 amount) external onlySuperAdmin nonReentrant {\r\n        require(to != address(0), \"Invalid recipient\");\r\n        require(to != address(this), \"Cannot send to contract\");\r\n        require(amount > 0, \"Amount must be greater than 0\");\r\n        uint256 balance = usdc.balanceOf(address(this));\r\n        uint256 minReserve = claimPredictionWinsPool + jackpotPool + totalTradingVaultLiabilities;\r\n        require(balance >= amount, \"Insufficient balance\");\r\n        require(balance - amount >= minReserve, \"Cannot withdraw user or pool reserves\");\r\n        usdc.safeTransfer(to, amount);\r\n\r\n        emit FundsTransferred(to, amount);\r\n    }\r\n\r\n    /**\r\n     * @dev Withdraw **all** USDC for contract upgrade / migration. Resets on-chain pool and vault\r\n     *      liability counters (per-user `tradingVaultBalances` mappings are not iterated).\r\n     *      Only use when deprecating this contract — users must claim on the new deployment.\r\n     *      Callable by deployer or superAdmin.\r\n     */\r\n    function migrateAllFundsForUpgrade(address payable to) external onlySuperAdmin nonReentrant {\r\n        require(to != address(0), \"Invalid recipient\");\r\n        require(to != address(this), \"Cannot send to contract\");\r\n        uint256 balance = usdc.balanceOf(address(this));\r\n        require(balance > 0, \"No USDC to migrate\");\r\n\r\n        claimPredictionWinsPool = 0;\r\n        jackpotPool = 0;\r\n        totalTradingVaultLiabilities = 0;\r\n\r\n        usdc.safeTransfer(to, balance);\r\n        emit ContractMigratedForUpgrade(to, balance);\r\n    }\r\n    \r\n    /**\r\n     * @dev Set superAdmin address\r\n     */\r\n    function setSuperAdmin(address _superAdmin) external onlyDeployer {\r\n        require(_superAdmin != address(0), \"Invalid address\");\r\n        superAdmin = _superAdmin;\r\n    }\r\n\r\n    /**\r\n     * @dev Manage on-chain admins (deployer only).\r\n     * Admins can operate Admin-page contract functions (resolve/update markets, set claimables, set jackpot balances).\r\n     */\r\n    function setAdmin(address admin, bool enabled) external onlyDeployer {\r\n        require(admin != address(0), \"Invalid address\");\r\n        admins[admin] = enabled;\r\n    }\r\n    \r\n    /**\r\n     * @dev Get jackpot balance for user\r\n     */\r\n    function getJackpotBalance(address user) external view returns (uint256) {\r\n        return jackpotBalances[user];\r\n    }\r\n    \r\n    /**\r\n     * @dev Get claimable balance for user\r\n     */\r\n    function getClaimableBalance(uint256 marketId, address user) external view returns (uint256) {\r\n        return claimableBalances[marketId][user];\r\n    }\r\n\r\n    // --- Orderbook / trading vault (backend matching + admin settlement) ---\r\n\r\n    /**\r\n     * @dev User deposits USDC into the trading vault (custody) for orderbook flow.\r\n     */\r\n    function depositTradingVault(uint256 amount) external nonReentrant {\r\n        require(amount > 0, \"Amount must be greater than 0\");\r\n        usdc.safeTransferFrom(msg.sender, address(this), amount);\r\n        _applyVaultDelta(msg.sender, int256(amount));\r\n        emit TradingVaultDeposited(msg.sender, amount);\r\n    }\r\n\r\n    /**\r\n     * @dev Withdraw from trading vault using the same EIP-191 signer pattern as jackpot withdraw.\r\n     * Backend authorizes amount (must not exceed off-chain computed withdrawable).\r\n     */\r\n    function withdrawTradingVaultWithAuth(\r\n        uint256 amount,\r\n        bytes32 nonce,\r\n        uint256 deadline,\r\n        bytes calldata signature\r\n    ) external nonReentrant {\r\n        require(claimAuthSigner != address(0), \"Claim signer not set\");\r\n        require(block.timestamp <= deadline, \"Expired\");\r\n        require(amount > 0, \"Zero amount\");\r\n        require(!usedTradingVaultWithdrawNonces[nonce], \"Nonce used\");\r\n\r\n        bytes32 messageHash = keccak256(\r\n            abi.encodePacked(msg.sender, amount, nonce, deadline, block.chainid, address(this), uint256(1))\r\n        );\r\n        address recovered = _recoverAuthSigner(messageHash, signature);\r\n        require(recovered != address(0) && recovered == claimAuthSigner, \"Invalid signature\");\r\n\r\n        require(tradingVaultBalances[msg.sender] >= amount, \"Insufficient vault\");\r\n        usedTradingVaultWithdrawNonces[nonce] = true;\r\n        _applyVaultDelta(msg.sender, -int256(amount));\r\n        usdc.safeTransfer(msg.sender, amount);\r\n        emit TradingVaultWithdrawn(msg.sender, amount);\r\n    }\r\n\r\n    struct OrderbookLiquidityRow {\r\n        string option;\r\n        uint256 yesAmount;\r\n        uint256 noAmount;\r\n    }\r\n\r\n    /**\r\n     * @dev Single USDC pull; credits YES/NO pools per outcome (on-chain reference + settlement accounting).\r\n     */\r\n    function batchAddOrderbookLiquidity(uint256 marketId, OrderbookLiquidityRow[] calldata rows)\r\n        external\r\n        onlyAdmin\r\n        validMarket(marketId)\r\n    {\r\n        Market storage market = markets[marketId];\r\n        require(market.status == MarketStatus.Upcoming || market.status == MarketStatus.Active, \"Market not active\");\r\n\r\n        uint256 total = 0;\r\n        for (uint256 i = 0; i < rows.length; i++) {\r\n            total += rows[i].yesAmount + rows[i].noAmount;\r\n        }\r\n        require(total > 0, \"Zero total\");\r\n\r\n        usdc.safeTransferFrom(msg.sender, address(this), total);\r\n\r\n        for (uint256 i = 0; i < rows.length; i++) {\r\n            string memory opt = rows[i].option;\r\n            require(_marketHasOption(marketId, opt), \"Invalid option\");\r\n            if (rows[i].yesAmount > 0) {\r\n                orderbookLiquidityYes[marketId][opt] += rows[i].yesAmount;\r\n            }\r\n            if (rows[i].noAmount > 0) {\r\n                orderbookLiquidityNo[marketId][opt] += rows[i].noAmount;\r\n            }\r\n        }\r\n\r\n        emit OrderbookLiquidityBatchAdded(marketId, total);\r\n    }\r\n\r\n    struct OrderbookSettlementLeg {\r\n        address user;\r\n        string positionKey;\r\n        int256 vaultDelta;\r\n        int256 sharesDelta;\r\n        int256 investedDelta;\r\n    }\r\n\r\n    /**\r\n     * @dev Apply batched vault + position updates after off-chain matching.\r\n     *      Platform fee share credits `claimPredictionWinsPool`; free-jackpot fee share credits `jackpotPool` (same split as superadmin Settings).\r\n     * Conservation: sum(vaultDelta) + feeToClaimPool + feeToJackpotPool == 0 (USDC units).\r\n     */\r\n    function applyOrderbookSettlements(\r\n        uint256 marketId,\r\n        OrderbookSettlementLeg[] calldata legs,\r\n        uint256 feeToClaimPool,\r\n        uint256 feeToJackpotPool\r\n    ) external onlyAdmin validMarket(marketId) nonReentrant {\r\n        Market storage market = markets[marketId];\r\n        require(market.status == MarketStatus.Upcoming || market.status == MarketStatus.Active, \"Market not active\");\r\n\r\n        int256 netFromVaults = 0;\r\n        for (uint256 i = 0; i < legs.length; i++) {\r\n            address u = legs[i].user;\r\n            require(u != address(0), \"Zero user\");\r\n            _applyVaultDelta(u, legs[i].vaultDelta);\r\n            netFromVaults += legs[i].vaultDelta;\r\n            if (legs[i].sharesDelta != 0 || legs[i].investedDelta != 0) {\r\n                _applyShareDelta(marketId, u, legs[i].positionKey, legs[i].sharesDelta, legs[i].investedDelta);\r\n            }\r\n        }\r\n\r\n        uint256 totalFees = feeToClaimPool + feeToJackpotPool;\r\n        require(netFromVaults + int256(totalFees) == 0, \"Settlement imbalance\");\r\n        if (feeToClaimPool > 0) {\r\n            claimPredictionWinsPool += feeToClaimPool;\r\n        }\r\n        if (feeToJackpotPool > 0) {\r\n            jackpotPool += feeToJackpotPool;\r\n        }\r\n\r\n        emit OrderbookSettlementsApplied(marketId, legs.length, feeToClaimPool, feeToJackpotPool);\r\n    }\r\n\r\n    /**\r\n     * @dev After market resolution: sweep remaining trading-vault collateral for this market into\r\n     *      `claimPredictionWinsPool` and clear on-chain positions so users cannot withdraw vault\r\n     *      funds that belong in the claim pool (prevents double payout with claimOrderbookPositionWithAuth).\r\n     *      Conservation: sum(vaultDelta) + collateralToClaimPool == 0.\r\n     */\r\n    function finalizeResolvedMarketSettlements(\r\n        uint256 marketId,\r\n        OrderbookSettlementLeg[] calldata legs,\r\n        uint256 collateralToClaimPool\r\n    ) external onlyAdmin validMarket(marketId) nonReentrant {\r\n        Market storage market = markets[marketId];\r\n        require(market.resolved, \"Market not resolved\");\r\n\r\n        int256 netFromVaults = 0;\r\n        for (uint256 i = 0; i < legs.length; i++) {\r\n            address u = legs[i].user;\r\n            require(u != address(0), \"Zero user\");\r\n            _applyVaultDelta(u, legs[i].vaultDelta);\r\n            netFromVaults += legs[i].vaultDelta;\r\n            if (legs[i].sharesDelta != 0 || legs[i].investedDelta != 0) {\r\n                _applyShareDelta(marketId, u, legs[i].positionKey, legs[i].sharesDelta, legs[i].investedDelta);\r\n            }\r\n        }\r\n\r\n        require(netFromVaults + int256(collateralToClaimPool) == 0, \"Finalize imbalance\");\r\n        if (collateralToClaimPool > 0) {\r\n            claimPredictionWinsPool += collateralToClaimPool;\r\n        }\r\n\r\n        emit OrderbookSettlementsApplied(marketId, legs.length, collateralToClaimPool, 0);\r\n    }\r\n\r\n    /**\r\n     * @dev USDC held by this contract and internal pool balances (for super-admin treasury view).\r\n     */\r\n    function getTreasurySnapshot()\r\n        external\r\n        view\r\n        returns (\r\n            uint256 usdcBalance,\r\n            uint256 claimPoolBalance,\r\n            uint256 jackpotPoolBalance,\r\n            uint256 tradingVaultLiabilities,\r\n            uint256 maxRoutineTransfer\r\n        )\r\n    {\r\n        usdcBalance = usdc.balanceOf(address(this));\r\n        claimPoolBalance = claimPredictionWinsPool;\r\n        jackpotPoolBalance = jackpotPool;\r\n        tradingVaultLiabilities = totalTradingVaultLiabilities;\r\n        uint256 minReserve = claimPredictionWinsPool + jackpotPool + totalTradingVaultLiabilities;\r\n        maxRoutineTransfer = usdcBalance > minReserve ? usdcBalance - minReserve : 0;\r\n    }\r\n\r\n    /**\r\n     * @dev Claim resolved orderbook position: eligibility and payout amount are enforced off-chain via signature.\r\n     */\r\n    function claimOrderbookPositionWithAuth(\r\n        uint256 marketId,\r\n        uint256 amount,\r\n        string calldata positionKey,\r\n        bytes32 predictionId,\r\n        uint256 deadline,\r\n        bytes calldata signature\r\n    ) external validMarket(marketId) nonReentrant {\r\n        require(claimAuthSigner != address(0), \"Claim signer not set\");\r\n        require(block.timestamp <= deadline, \"Expired\");\r\n        require(amount > 0, \"Zero amount\");\r\n\r\n        bytes32 authKey = keccak256(abi.encodePacked(msg.sender, predictionId, uint256(2)));\r\n        require(!usedOrderbookClaimKeys[authKey], \"Already claimed\");\r\n\r\n        bytes32 messageHash = keccak256(\r\n            abi.encodePacked(\r\n                msg.sender,\r\n                marketId,\r\n                amount,\r\n                positionKey,\r\n                predictionId,\r\n                deadline,\r\n                block.chainid,\r\n                address(this),\r\n                uint256(3)\r\n            )\r\n        );\r\n        address recovered = _recoverAuthSigner(messageHash, signature);\r\n        require(recovered != address(0) && recovered == claimAuthSigner, \"Invalid signature\");\r\n\r\n        require(markets[marketId].resolved, \"Market not resolved\");\r\n\r\n        MarketPosition storage pos = marketPositions[marketId][msg.sender][positionKey];\r\n        // Payout is authorized only by `claimAuthSigner` (replay-safe via `usedOrderbookClaimKeys`).\r\n        // Clear on-chain ledger when it exists; allow claims when settlement never wrote shares on-chain\r\n        // (off-chain book + backend payout) so winners still receive from `claimPredictionWinsPool`.\r\n        if (pos.user == msg.sender && pos.shares > 0) {\r\n            pos.shares = 0;\r\n            pos.totalInvested = 0;\r\n        }\r\n\r\n        require(claimPredictionWinsPool >= amount, \"Insufficient claim pool\");\r\n        usedOrderbookClaimKeys[authKey] = true;\r\n        claimPredictionWinsPool -= amount;\r\n        usdc.safeTransfer(msg.sender, amount);\r\n\r\n        emit OrderbookPositionClaimed(marketId, msg.sender, positionKey, amount);\r\n    }\r\n    \r\n    // No receive/fallback: this contract is ERC20-based (USDC), not native ETH.\r\n}\r\n",
  "sourcePath": "C:\\Users\\HELLO\\Desktop\\startups\\SaveWRG\\smart-contracts\\contracts\\WeRgame.sol",
  "compiler": {
    "name": "solc",
    "version": "0.8.24+commit.e11b9ed9.Emscripten.clang"
  },
  "schemaVersion": "3.4.16",
  "updatedAt": "2026-07-03T21:44:48.542Z",
  "devdoc": {
    "details": "Comprehensive smart contract for prediction market platform Handles market creation, trading, boost predictions, and jackpot management",
    "errors": {
      "ECDSAInvalidSignature()": [
        {
          "details": "The signature is invalid."
        }
      ],
      "ECDSAInvalidSignatureLength(uint256)": [
        {
          "details": "The signature has an invalid length."
        }
      ],
      "ECDSAInvalidSignatureS(bytes32)": [
        {
          "details": "The signature has an S value that is in the upper half order."
        }
      ],
      "ReentrancyGuardReentrantCall()": [
        {
          "details": "Unauthorized reentrant call."
        }
      ],
      "SafeERC20FailedOperation(address)": [
        {
          "details": "An operation with an ERC-20 token failed."
        }
      ]
    },
    "kind": "dev",
    "methods": {
      "addBoostStake(uint256,string,uint256)": {
        "details": "Add more stake to existing boost prediction"
      },
      "addLiquidity(uint256,string,uint256)": {
        "details": "Add initial liquidity to a market option"
      },
      "applyOrderbookSettlements(uint256,(address,string,int256,int256,int256)[],uint256,uint256)": {
        "details": "Apply batched vault + position updates after off-chain matching.      Platform fee share credits `claimPredictionWinsPool`; free-jackpot fee share credits `jackpotPool` (same split as superadmin Settings). Conservation: sum(vaultDelta) + feeToClaimPool + feeToJackpotPool == 0 (USDC units)."
      },
      "batchAddOrderbookLiquidity(uint256,(string,uint256,uint256)[])": {
        "details": "Single USDC pull; credits YES/NO pools per outcome (on-chain reference + settlement accounting)."
      },
      "batchSetJackpotBalances(address[],uint256[])": {
        "details": "Batch-set on-chain jackpot balances after resolve (gas-efficient sync with off-chain ledger)."
      },
      "buyMarketShares(uint256,string,uint256)": {
        "details": "Buy shares in market (fixed-sum AMM)"
      },
      "claimBoost(uint256,string)": {
        "details": "Claim boost prediction winnings"
      },
      "claimMarket(uint256,string)": {
        "details": "Claim market winnings after resolution"
      },
      "claimOrderbookPositionWithAuth(uint256,uint256,string,bytes32,uint256,bytes)": {
        "details": "Claim resolved orderbook position: eligibility and payout amount are enforced off-chain via signature."
      },
      "claimPredictionWins(uint256,bool)": {
        "details": "Claim prediction winnings (Boost or Market) for a resolved market.",
        "params": {
          "isBoost": "true to claim boost winnings, false to claim market winnings. Pays from claimPredictionWinsPool.",
          "marketId": "Market id"
        }
      },
      "claimPredictionWinsWithAuth(uint256,bool,uint256,bytes32,uint256,bytes)": {
        "details": "Claim boost or market winnings using a signature from `claimAuthSigner`. Amount must match what the backend encoded (off-chain payout). Replaces relying on claimableBoost / claimableMarket mappings for normal user flow."
      },
      "createMarket(bool,string[])": {
        "details": "Create a new market (match or poll)",
        "params": {
          "isPoll": "true if poll, false if match",
          "options": "array of outcome options"
        }
      },
      "depositTradingVault(uint256)": {
        "details": "User deposits USDC into the trading vault (custody) for orderbook flow."
      },
      "finalizeResolvedMarketSettlements(uint256,(address,string,int256,int256,int256)[],uint256)": {
        "details": "After market resolution: sweep remaining trading-vault collateral for this market into      `claimPredictionWinsPool` and clear on-chain positions so users cannot withdraw vault      funds that belong in the claim pool (prevents double payout with claimOrderbookPositionWithAuth).      Conservation: sum(vaultDelta) + collateralToClaimPool == 0."
      },
      "fundClaimPredictionWinsPool(uint256)": {
        "details": "Fund the claim prediction wins pool (super admin or deployer)."
      },
      "fundJackpotPool(uint256)": {
        "details": "Fund jackpot pool (deployer only)"
      },
      "getBoostPrediction(uint256,address,string)": {
        "details": "Get user's boost prediction"
      },
      "getClaimableBalance(uint256,address)": {
        "details": "Get claimable balance for user"
      },
      "getContractBalance()": {
        "details": "Get contract balance"
      },
      "getFees()": {
        "details": "Get current fees"
      },
      "getJackpotBalance(address)": {
        "details": "Get jackpot balance for user"
      },
      "getMarketOptions(uint256)": {
        "details": "Get options for a market (so frontend can validate outcome before staking)"
      },
      "getPrice(uint256,string)": {
        "details": "Get current price for an option (in basis points)"
      },
      "getTreasurySnapshot()": {
        "details": "USDC held by this contract and internal pool balances (for super-admin treasury view)."
      },
      "getUserPosition(uint256,address,string)": {
        "details": "Get user's market position"
      },
      "migrateAllFundsForUpgrade(address)": {
        "details": "Withdraw **all** USDC for contract upgrade / migration. Resets on-chain pool and vault      liability counters (per-user `tradingVaultBalances` mappings are not iterated).      Only use when deprecating this contract — users must claim on the new deployment.      Callable by deployer or superAdmin."
      },
      "resolveMarket(uint256,string)": {
        "details": "Resolve a market"
      },
      "sellMarketShares(uint256,string,uint256)": {
        "details": "Sell shares in market"
      },
      "setAdmin(address,bool)": {
        "details": "Manage on-chain admins (deployer only). Admins can operate Admin-page contract functions (resolve/update markets, set claimables, set jackpot balances)."
      },
      "setClaimAuthSigner(address)": {
        "details": "Set wallet whose signatures authorize user claims (off-chain payout amount). Use the same key as CLAIM_AUTH_PRIVATE_KEY on the API."
      },
      "setClaimableBalance(uint256,address,uint256)": {
        "details": "Set claimable balance for a user (legacy; prefer setClaimableBoost/setClaimableMarket)"
      },
      "setClaimableBoost(uint256,address,uint256)": {
        "details": "Set claimable boost amount for a user (called after resolution)."
      },
      "setClaimableMarket(uint256,address,uint256)": {
        "details": "Set claimable market amount for a user (called after resolution)."
      },
      "setJackpotBalance(address,uint256)": {
        "details": "Set user's jackpot balance (called by backend after resolve / reconciliation)."
      },
      "setSuperAdmin(address)": {
        "details": "Set superAdmin address"
      },
      "stakeBoost(uint256,string,uint256)": {
        "details": "Stake USDC for boost prediction. Net stake + platform fee fund `claimPredictionWinsPool`      (same pool `claimPredictionWinsWithAuth` pays from); jackpot fee funds `jackpotPool`."
      },
      "transferFunds(address,uint256)": {
        "details": "Transfer surplus USDC (above claim pool + jackpot + user vault liabilities).      Callable by deployer or superAdmin. For full contract drain before upgrade, use      `migrateAllFundsForUpgrade`."
      },
      "updateMarketStatus(uint256,uint8)": {
        "details": "Update market status"
      },
      "withdrawBoostStake(uint256,string,uint256)": {
        "details": "Withdraw stake from boost prediction (only before resolution)"
      },
      "withdrawFromClaimPredictionWinsPool(address,uint256)": {
        "details": "Withdraw from claim prediction wins pool (deployer only)."
      },
      "withdrawFromJackpotPool(address,uint256)": {
        "details": "Withdraw from jackpot pool (deployer only)"
      },
      "withdrawJackpot(uint256)": {
        "details": "User withdraw from jackpot pool"
      },
      "withdrawJackpotWithAuth(uint256,bytes32,uint256,bytes)": {
        "details": "Withdraw from jackpot pool using a signature from `claimAuthSigner`. Enforces per-user on-chain `jackpotBalances` (synced from admin/backend on resolve)."
      },
      "withdrawTradingVaultWithAuth(uint256,bytes32,uint256,bytes)": {
        "details": "Withdraw from trading vault using the same EIP-191 signer pattern as jackpot withdraw. Backend authorizes amount (must not exceed off-chain computed withdrawable)."
      }
    },
    "stateVariables": {
      "claimPredictionWinsPool": {
        "details": "Pool for paying Boost and Market prediction wins; funded by deployer and by boost stakes"
      }
    },
    "title": "WeRgame",
    "version": 1
  },
  "userdoc": {
    "kind": "user",
    "methods": {
      "claimAuthSigner()": {
        "notice": "Backend / ops wallet that signs authorized claims (set by deployer)"
      },
      "orderbookLiquidityYes(uint256,string)": {
        "notice": "On-chain reference liquidity for YES/NO books per outcome option (USDC units)"
      },
      "totalTradingVaultLiabilities()": {
        "notice": "Sum of all tradingVaultBalances — used to prevent superAdmin draining user vault collateral"
      },
      "tradingVaultBalances(address)": {
        "notice": "USDC credited to users for orderbook trading (deposit / settlement)"
      },
      "usdc()": {
        "notice": "Platform currency token (Base USDC). All pools and payouts are denominated in this token."
      },
      "usedAuthPredictionClaims(bytes32)": {
        "notice": "Replay protection for signature-based prediction claims"
      },
      "usedJackpotWithdrawNonces(bytes32)": {
        "notice": "Replay protection for signature-based jackpot withdrawals"
      },
      "usedOrderbookClaimKeys(bytes32)": {
        "notice": "Replay for orderbook position claims (separate from boost/market auth key space)"
      }
    },
    "version": 1
  }
}